Component: ARM Compiler 5.06 update 6 (build 750) Tool: armlink [4d35ed]

==============================================================================

Section Cross References

    startup_stm32f103xb.o(RESET) refers to startup_stm32f103xb.o(STACK) for __initial_sp
    startup_stm32f103xb.o(RESET) refers to startup_stm32f103xb.o(.text) for Reset_Handler
    startup_stm32f103xb.o(RESET) refers to stm32f1xx_it.o(i.NMI_Handler) for NMI_Handler
    startup_stm32f103xb.o(RESET) refers to stm32f1xx_it.o(i.HardFault_Handler) for HardFault_Handler
    startup_stm32f103xb.o(RESET) refers to stm32f1xx_it.o(i.MemManage_Handler) for MemManage_Handler
    startup_stm32f103xb.o(RESET) refers to stm32f1xx_it.o(i.BusFault_Handler) for BusFault_Handler
    startup_stm32f103xb.o(RESET) refers to stm32f1xx_it.o(i.UsageFault_Handler) for UsageFault_Handler
    startup_stm32f103xb.o(RESET) refers to stm32f1xx_it.o(i.SVC_Handler) for SVC_Handler
    startup_stm32f103xb.o(RESET) refers to stm32f1xx_it.o(i.DebugMon_Handler) for DebugMon_Handler
    startup_stm32f103xb.o(RESET) refers to stm32f1xx_it.o(i.PendSV_Handler) for PendSV_Handler
    startup_stm32f103xb.o(RESET) refers to stm32f1xx_it.o(i.SysTick_Handler) for SysTick_Handler
    startup_stm32f103xb.o(RESET) refers to stm32f1xx_it.o(i.USB_LP_CAN1_RX0_IRQHandler) for USB_LP_CAN1_RX0_IRQHandler
    startup_stm32f103xb.o(RESET) refers to stm32f1xx_it.o(i.TIM3_IRQHandler) for TIM3_IRQHandler
    startup_stm32f103xb.o(RESET) refers to stm32f1xx_it.o(i.USART2_IRQHandler) for USART2_IRQHandler
    startup_stm32f103xb.o(.text) refers to system_stm32f1xx.o(i.SystemInit) for SystemInit
    startup_stm32f103xb.o(.text) refers to entry.o(.ARM.Collect$$$$00000000) for __main
    main.o(i.MX_GPIO_Init) refers to stm32f1xx_hal_gpio.o(i.HAL_GPIO_WritePin) for HAL_GPIO_WritePin
    main.o(i.MX_GPIO_Init) refers to stm32f1xx_hal_gpio.o(i.HAL_GPIO_Init) for HAL_GPIO_Init
==============================================================================

Removing Unused input sections from the image.

    Removing main.o(.rev16_text), (4 bytes).
    Removing main.o(.revsh_text), (4 bytes).
    Removing main.o(.rrx_text), (6 bytes).
    Removing stm32f1xx_it.o(.rev16_text), (4 bytes).
    Removing stm32f1xx_it.o(.revsh_text), (4 bytes).
    Removing stm32f1xx_it.o(.rrx_text), (6 bytes).
    Removing stm32f1xx_hal_msp.o(.rev16_text), (4 bytes).
    Removing stm32f1xx_hal_msp.o(.revsh_text), (4 bytes).
    Removing stm32f1xx_hal_msp.o(.rrx_text), (6 bytes).
    Removing stm32f1xx_hal_msp.o(i.HAL_TIM_Base_MspDeInit), (36 bytes).
    Removing stm32f1xx_hal_msp.o(i.HAL_UART_MspDeInit), (84 bytes).
    Removing usb_device.o(.rev16_text), (4 bytes).
    Removing usb_device.o(.revsh_text), (4 bytes).
    Removing usb_device.o(.rrx_text), (6 bytes).
    Removing usbd_desc.o(.rev16_text), (4 bytes).
    Removing usbd_desc.o(.revsh_text), (4 bytes).
    Removing usbd_desc.o(.rrx_text), (6 bytes).
    Removing usbd_custom_hid_if.o(.rev16_text), (4 bytes).
==============================================================================

Image Symbol Table

    Local Symbols

    Symbol Name                              Value     Ov Type        Size  Object(Section)

    ../Core/Src/main.c                       0x00000000   Number         0  main.o ABSOLUTE
    ../Core/Src/stm32f1xx_hal_msp.c          0x00000000   Number         0  stm32f1xx_hal_msp.o ABSOLUTE
    ../Core/Src/stm32f1xx_it.c               0x00000000   Number         0  stm32f1xx_it.o ABSOLUTE
    ../Core/Src/system_stm32f1xx.c           0x00000000   Number         0  system_stm32f1xx.o ABSOLUTE
    ../Drivers/STM32F1xx_HAL_Driver/Src/stm32f1xx_hal.c 0x00000000   Number         0  stm32f1xx_hal.o ABSOLUTE
    ../Drivers/STM32F1xx_HAL_Driver/Src/stm32f1xx_hal_cortex.c 0x00000000   Number         0  stm32f1xx_hal_cortex.o ABSOLUTE
    ../Drivers/STM32F1xx_HAL_Driver/Src/stm32f1xx_hal_dma.c 0x00000000   Number         0  stm32f1xx_hal_dma.o ABSOLUTE
    ../Drivers/STM32F1xx_HAL_Driver/Src/stm32f1xx_hal_exti.c 0x00000000   Number         0  stm32f1xx_hal_exti.o ABSOLUTE
    ../Drivers/STM32F1xx_HAL_Driver/Src/stm32f1xx_hal_flash.c 0x00000000   Number         0  stm32f1xx_hal_flash.o ABSOLUTE
    ../Drivers/STM32F1xx_HAL_Driver/Src/stm32f1xx_hal_flash_ex.c 0x00000000   Number         0  stm32f1xx_hal_flash_ex.o ABSOLUTE
    ../Drivers/STM32F1xx_HAL_Driver/Src/stm32f1xx_hal_gpio.c 0x00000000   Number         0  stm32f1xx_hal_gpio.o ABSOLUTE
    ../Drivers/STM32F1xx_HAL_Driver/Src/stm32f1xx_hal_gpio_ex.c 0x00000000   Number         0  stm32f1xx_hal_gpio_ex.o ABSOLUTE
    ../Drivers/STM32F1xx_HAL_Driver/Src/stm32f1xx_hal_pcd.c 0x00000000   Number         0  stm32f1xx_hal_pcd.o ABSOLUTE
    ../Drivers/STM32F1xx_HAL_Driver/Src/stm32f1xx_hal_pcd_ex.c 0x00000000   Number         0  stm32f1xx_hal_pcd_ex.o ABSOLUTE
    ../Drivers/STM32F1xx_HAL_Driver/Src/stm32f1xx_hal_pwr.c 0x00000000   Number         0  stm32f1xx_hal_pwr.o ABSOLUTE
    ../Drivers/STM32F1xx_HAL_Driver/Src/stm32f1xx_hal_rcc.c 0x00000000   Number         0  stm32f1xx_hal_rcc.o ABSOLUTE
    ../Drivers/STM32F1xx_HAL_Driver/Src/stm32f1xx_hal_rcc_ex.c 0x00000000   Number         0  stm32f1xx_hal_rcc_ex.o ABSOLUTE
    ../Drivers/STM32F1xx_HAL_Driver/Src/stm32f1xx_hal_tim.c 0x00000000   Number         0  stm32f1xx_hal_tim.o ABSOLUTE
    ../Drivers/STM32F1xx_HAL_Driver/Src/stm32f1xx_hal_tim_ex.c 0x00000000   Number         0  stm32f1xx_hal_tim_ex.o ABSOLUTE
    ../Drivers/STM32F1xx_HAL_Driver/Src/stm32f1xx_ll_usb.c 0x00000000   Number         0  stm32f1xx_ll_usb.o ABSOLUTE
    ../Middlewares/ST/STM32_USB_Device_Library/Class/CustomHID/Src/usbd_customhid.c 0x00000000   Number         0  usbd_customhid.o ABSOLUTE
    ../Middlewares/ST/STM32_USB_Device_Library/Core/Src/usbd_core.c 0x00000000   Number         0  usbd_core.o ABSOLUTE
    ../Middlewares/ST/STM32_USB_Device_Library/Core/Src/usbd_ctlreq.c 0x00000000   Number         0  usbd_ctlreq.o ABSOLUTE
    ../Middlewares/ST/STM32_USB_Device_Library/Core/Src/usbd_ioreq.c 0x00000000   Number         0  usbd_ioreq.o ABSOLUTE
    ../USB_DEVICE/App/usb_device.c           0x00000000   Number         0  usb_device.o ABSOLUTE
    ../USB_DEVICE/App/usbd_custom_hid_if.c   0x00000000   Number         0  usbd_custom_hid_if.o ABSOLUTE
    ../USB_DEVICE/App/usbd_desc.c            0x00000000   Number         0  usbd_desc.o ABSOLUTE
    ../USB_DEVICE/Target/usbd_conf.c         0x00000000   Number         0  usbd_conf.o ABSOLUTE
    ../clib/../cmprslib/zerorunl2.c          0x00000000   Number         0  __dczerorl2.o ABSOLUTE
    ../clib/microlib/division.c              0x00000000   Number         0  uldiv.o ABSOLUTE
    ../clib/microlib/division.c              0x00000000   Number         0  uidiv.o ABSOLUTE
    ../clib/microlib/init/entry.s            0x00000000   Number         0  entry8b.o ABSOLUTE
    ../clib/microlib/init/entry.s            0x00000000   Number         0  entry.o ABSOLUTE
    ../clib/microlib/init/entry.s            0x00000000   Number         0  entry11b.o ABSOLUTE
    ../clib/microlib/init/entry.s            0x00000000   Number         0  entry7b.o ABSOLUTE
    ../clib/microlib/init/entry.s            0x00000000   Number         0  entry9b.o ABSOLUTE
    ../clib/microlib/init/entry.s            0x00000000   Number         0  entry9a.o ABSOLUTE
    ../clib/microlib/init/entry.s            0x00000000   Number         0  entry8a.o ABSOLUTE
    ../clib/microlib/init/entry.s            0x00000000   Number         0  entry10b.o ABSOLUTE
    ../clib/microlib/init/entry.s            0x00000000   Number         0  entry2.o ABSOLUTE
    ../clib/microlib/init/entry.s            0x00000000   Number         0  entry11a.o ABSOLUTE
    ../clib/microlib/init/entry.s            0x00000000   Number         0  entry7a.o ABSOLUTE
    ../clib/microlib/init/entry.s            0x00000000   Number         0  entry10a.o ABSOLUTE
    ../clib/microlib/init/entry.s            0x00000000   Number         0  entry5.o ABSOLUTE
    ../clib/microlib/longlong.c              0x00000000   Number         0  llushr.o ABSOLUTE
    ../clib/microlib/longlong.c              0x00000000   Number         0  llsshr.o ABSOLUTE
    ../clib/microlib/longlong.c              0x00000000   Number         0  llshl.o ABSOLUTE
    ../clib/microlib/malloc/calloc.c         0x00000000   Number         0  calloc.o ABSOLUTE
    ../clib/microlib/malloc/malloc.c         0x00000000   Number         0  mallocr.o ABSOLUTE
    ../clib/microlib/malloc/malloc.c         0x00000000   Number         0  malloc.o ABSOLUTE
    ../clib/microlib/malloc/malloc.c         0x00000000   Number         0  malloca.o ABSOLUTE
    ../clib/microlib/malloc/malloc.c         0x00000000   Number         0  mallocra.o ABSOLUTE
    ../clib/microlib/malloc/mvars.c          0x00000000   Number         0  mvars.o ABSOLUTE
    ../clib/microlib/printf/printf.c         0x00000000   Number         0  printfa.o ABSOLUTE
    ../clib/microlib/printf/printf.c         0x00000000   Number         0  printf8.o ABSOLUTE
    ../clib/microlib/printf/printf.c         0x00000000   Number         0  printf7.o ABSOLUTE
    ../clib/microlib/printf/printf.c         0x00000000   Number         0  printf6.o ABSOLUTE
    ../clib/microlib/printf/printf.c         0x00000000   Number         0  printf4.o ABSOLUTE
    ../clib/microlib/printf/printf.c         0x00000000   Number         0  printf2.o ABSOLUTE
    ../clib/microlib/printf/printf.c         0x00000000   Number         0  printf1.o ABSOLUTE
    ../clib/microlib/printf/printf.c         0x00000000   Number         0  printf0.o ABSOLUTE
    ../clib/microlib/printf/printf.c         0x00000000   Number         0  printfb.o ABSOLUTE
    ../clib/microlib/printf/printf.c         0x00000000   Number         0  printf3.o ABSOLUTE
    ../clib/microlib/printf/printf.c         0x00000000   Number         0  printf5.o ABSOLUTE
    ../clib/microlib/printf/stubs.s          0x00000000   Number         0  stubs.o ABSOLUTE
    ../clib/microlib/stdio/streams.c         0x00000000   Number         0  stdout.o ABSOLUTE
    ../clib/microlib/stdlib/rand.c           0x00000000   Number         0  rand.o ABSOLUTE
    ../clib/microlib/string/memcpy.c         0x00000000   Number         0  memcpya.o ABSOLUTE
    ../clib/microlib/string/memcpy.c         0x00000000   Number         0  memcpyb.o ABSOLUTE
    ../clib/microlib/string/memset.c         0x00000000   Number         0  memseta.o ABSOLUTE
    ../clib/microlib/stubs.s                 0x00000000   Number         0  iusefp.o ABSOLUTE
    ../fplib/microlib/fpadd.c                0x00000000   Number         0  dadd.o ABSOLUTE
    ../fplib/microlib/fpdiv.c                0x00000000   Number         0  ddiv.o ABSOLUTE
    ../fplib/microlib/fpepilogue.c           0x00000000   Number         0  depilogue.o ABSOLUTE
    ../fplib/microlib/fpfix.c                0x00000000   Number         0  dfixul.o ABSOLUTE
    ../fplib/microlib/fpmul.c                0x00000000   Number         0  dmul.o ABSOLUTE
    ..\Core\Src\main.c                       0x00000000   Number         0  main.o ABSOLUTE
    ..\Core\Src\stm32f1xx_hal_msp.c          0x00000000   Number         0  stm32f1xx_hal_msp.o ABSOLUTE
    ..\Core\Src\stm32f1xx_it.c               0x00000000   Number         0  stm32f1xx_it.o ABSOLUTE
    ..\Core\Src\system_stm32f1xx.c           0x00000000   Number         0  system_stm32f1xx.o ABSOLUTE
    ..\Drivers\STM32F1xx_HAL_Driver\Src\stm32f1xx_hal.c 0x00000000   Number         0  stm32f1xx_hal.o ABSOLUTE
    ..\Drivers\STM32F1xx_HAL_Driver\Src\stm32f1xx_hal_cortex.c 0x00000000   Number         0  stm32f1xx_hal_cortex.o ABSOLUTE
    ..\Drivers\STM32F1xx_HAL_Driver\Src\stm32f1xx_hal_dma.c 0x00000000   Number         0  stm32f1xx_hal_dma.o ABSOLUTE
    ..\Drivers\STM32F1xx_HAL_Driver\Src\stm32f1xx_hal_exti.c 0x00000000   Number         0  stm32f1xx_hal_exti.o ABSOLUTE
    ..\Drivers\STM32F1xx_HAL_Driver\Src\stm32f1xx_hal_flash.c 0x00000000   Number         0  stm32f1xx_hal_flash.o ABSOLUTE
    ..\Drivers\STM32F1xx_HAL_Driver\Src\stm32f1xx_hal_flash_ex.c 0x00000000   Number         0  stm32f1xx_hal_flash_ex.o ABSOLUTE
    ..\Drivers\STM32F1xx_HAL_Driver\Src\stm32f1xx_hal_gpio.c 0x00000000   Number         0  stm32f1xx_hal_gpio.o ABSOLUTE
    ..\Drivers\STM32F1xx_HAL_Driver\Src\stm32f1xx_hal_gpio_ex.c 0x00000000   Number         0  stm32f1xx_hal_gpio_ex.o ABSOLUTE
    ..\Drivers\STM32F1xx_HAL_Driver\Src\stm32f1xx_hal_pcd.c 0x00000000   Number         0  stm32f1xx_hal_pcd.o ABSOLUTE
    ..\Drivers\STM32F1xx_HAL_Driver\Src\stm32f1xx_hal_pcd_ex.c 0x00000000   Number         0  stm32f1xx_hal_pcd_ex.o ABSOLUTE
    ..\Drivers\STM32F1xx_HAL_Driver\Src\stm32f1xx_hal_pwr.c 0x00000000   Number         0  stm32f1xx_hal_pwr.o ABSOLUTE
    ..\Drivers\STM32F1xx_HAL_Driver\Src\stm32f1xx_hal_rcc.c 0x00000000   Number         0  stm32f1xx_hal_rcc.o ABSOLUTE
    ..\Drivers\STM32F1xx_HAL_Driver\Src\stm32f1xx_hal_rcc_ex.c 0x00000000   Number         0  stm32f1xx_hal_rcc_ex.o ABSOLUTE
    ..\Drivers\STM32F1xx_HAL_Driver\Src\stm32f1xx_hal_tim.c 0x00000000   Number         0  stm32f1xx_hal_tim.o ABSOLUTE
    ..\Drivers\STM32F1xx_HAL_Driver\Src\stm32f1xx_hal_tim_ex.c 0x00000000   Number         0  stm32f1xx_hal_tim_ex.o ABSOLUTE
    ..\Drivers\STM32F1xx_HAL_Driver\Src\stm32f1xx_hal_uart.c 0x00000000   Number         0  stm32f1xx_hal_uart.o ABSOLUTE
    ..\Drivers\STM32F1xx_HAL_Driver\Src\stm32f1xx_ll_usb.c 0x00000000   Number         0  stm32f1xx_ll_usb.o ABSOLUTE
    ..\Middlewares\ST\STM32_USB_Device_Library\Class\CustomHID\Src\usbd_customhid.c 0x00000000   Number         0  usbd_customhid.o ABSOLUTE
    ..\Middlewares\ST\STM32_USB_Device_Library\Core\Src\usbd_core.c 0x00000000   Number         0  usbd_core.o ABSOLUTE
    ..\Middlewares\ST\STM32_USB_Device_Library\Core\Src\usbd_ctlreq.c 0x00000000   Number         0  usbd_ctlreq.o ABSOLUTE
    ..\Middlewares\ST\STM32_USB_Device_Library\Core\Src\usbd_ioreq.c 0x00000000   Number         0  usbd_ioreq.o ABSOLUTE
    ..\USB_DEVICE\App\usb_device.c           0x00000000   Number         0  usb_device.o ABSOLUTE
    ..\USB_DEVICE\App\usbd_custom_hid_if.c   0x00000000   Number         0  usbd_custom_hid_if.o ABSOLUTE
    ..\USB_DEVICE\App\usbd_desc.c            0x00000000   Number         0  usbd_desc.o ABSOLUTE
    ..\USB_DEVICE\Target\usbd_conf.c         0x00000000   Number         0  usbd_conf.o ABSOLUTE
    ..\User\Src\flash_handle.c               0x00000000   Number         0  flash_handle.o ABSOLUTE
    ..\User\Src\ledb_handle.c                0x00000000   Number         0  ledb_handle.o ABSOLUTE
    ..\User\Src\tim3_counter_handle.c        0x00000000   Number         0  tim3_counter_handle.o ABSOLUTE
    ..\User\Src\uart1_debug_handle.c         0x00000000   Number         0  uart1_debug_handle.o ABSOLUTE
    ..\User\Src\uart2_main_handle.c          0x00000000   Number         0  uart2_main_handle.o ABSOLUTE
    ..\User\Src\usbd_gp_handle.c             0x00000000   Number         0  usbd_gp_handle.o ABSOLUTE
    ..\User\Src\user_function_handle.c       0x00000000   Number         0  user_function_handle.o ABSOLUTE
    ..\User\Src\user_handle.c                0x00000000   Number         0  user_handle.o ABSOLUTE
    ..\User\Src\user_ringbuffer_handle.c     0x00000000   Number         0  user_ringbuffer_handle.o ABSOLUTE
    ..\User\Src\user_script_handle.c         0x00000000   Number         0  user_script_handle.o ABSOLUTE
    ..\\Drivers\\STM32F1xx_HAL_Driver\\Src\\stm32f1xx_hal_uart.c 0x00000000   Number         0  stm32f1xx_hal_uart.o ABSOLUTE
    ..\\User\\Src\\flash_handle.c            0x00000000   Number         0  flash_handle.o ABSOLUTE
    ..\\User\\Src\\ledb_handle.c             0x00000000   Number         0  ledb_handle.o ABSOLUTE
    ..\\User\\Src\\tim3_counter_handle.c     0x00000000   Number         0  tim3_counter_handle.o ABSOLUTE
    ..\\User\\Src\\uart1_debug_handle.c      0x00000000   Number         0  uart1_debug_handle.o ABSOLUTE
    ..\\User\\Src\\uart2_main_handle.c       0x00000000   Number         0  uart2_main_handle.o ABSOLUTE
    ..\\User\\Src\\usbd_gp_handle.c          0x00000000   Number         0  usbd_gp_handle.o ABSOLUTE
    ..\\User\\Src\\user_function_handle.c    0x00000000   Number         0  user_function_handle.o ABSOLUTE
    ..\\User\\Src\\user_handle.c             0x00000000   Number         0  user_handle.o ABSOLUTE
    ..\\User\\Src\\user_ringbuffer_handle.c  0x00000000   Number         0  user_ringbuffer_handle.o ABSOLUTE
    ..\\User\\Src\\user_script_handle.c      0x00000000   Number         0  user_script_handle.o ABSOLUTE
    cdrcmple.s                               0x00000000   Number         0  cdrcmple.o ABSOLUTE
    dc.s                                     0x00000000   Number         0  dc.o ABSOLUTE
    handlers.s                               0x00000000   Number         0  handlers.o ABSOLUTE
    init.s                                   0x00000000   Number         0  init.o ABSOLUTE
    startup_stm32f103xb.s                    0x00000000   Number         0  startup_stm32f103xb.o ABSOLUTE
    RESET                                    0x08000000   Section      236  startup_stm32f103xb.o(RESET)
    .ARM.Collect$$$$00000000                 0x080000ec   Section        0  entry.o(.ARM.Collect$$$$00000000)
    .ARM.Collect$$$$00000001                 0x080000ec   Section        4  entry2.o(.ARM.Collect$$$$00000001)
    .ARM.Collect$$$$00000004                 0x080000f0   Section        4  entry5.o(.ARM.Collect$$$$00000004)
    .ARM.Collect$$$$00000008                 0x080000f4   Section        0  entry7b.o(.ARM.Collect$$$$00000008)
    .ARM.Collect$$$$0000000A                 0x080000f4   Section        0  entry8b.o(.ARM.Collect$$$$0000000A)
    .ARM.Collect$$$$0000000B                 0x080000f4   Section        8  entry9a.o(.ARM.Collect$$$$0000000B)
    .ARM.Collect$$$$0000000D                 0x080000fc   Section        0  entry10a.o(.ARM.Collect$$$$0000000D)
    .ARM.Collect$$$$0000000F                 0x080000fc   Section        0  entry11a.o(.ARM.Collect$$$$0000000F)
    .ARM.Collect$$$$00002712                 0x080000fc   Section        4  entry2.o(.ARM.Collect$$$$00002712)
    __lit__00000000                          0x080000fc   Data           4  entry2.o(.ARM.Collect$$$$00002712)
    .text                                    0x08000100   Section       36  startup_stm32f103xb.o(.text)
    .text                                    0x08000124   Section        0  llushr.o(.text)
    .text                                    0x08000144   Section        0  rand.o(.text)
    .text                                    0x08000168   Section        0  memcpya.o(.text)
    .text                                    0x0800018c   Section        0  memseta.o(.text)
    .text                                    0x080001b0   Section        0  calloc.o(.text)
    .text                                    0x080001cc   Section        0  uidiv.o(.text)
    .text                                    0x080001f8   Section        0  uldiv.o(.text)
    .text                                    0x0800025a   Section        0  iusefp.o(.text)
    .text                                    0x0800025a   Section        0  dadd.o(.text)
    .text                                    0x080003a8   Section        0  dmul.o(.text)
    .text                                    0x0800048c   Section        0  ddiv.o(.text)
    .text                                    0x0800056a   Section        0  dfixul.o(.text)
    .text                                    0x0800059c   Section       48  cdrcmple.o(.text)
    .text                                    0x080005cc   Section       36  init.o(.text)
    .text                                    0x080005f0   Section        0  llshl.o(.text)
    .text                                    0x0800060e   Section        0  llsshr.o(.text)
    .text                                    0x08000632   Section        0  depilogue.o(.text)
    .text                                    0x080006ec   Section        0  __dczerorl2.o(.text)
    i.BinaryOp                               0x08000744   Section        0  user_script_handle.o(i.BinaryOp)
    i.BusFault_Handler                       0x080007ac   Section        0  stm32f1xx_it.o(i.BusFault_Handler)
    i.CUSTOM_HID_DeInit_FS                   0x080007ae   Section        0  usbd_custom_hid_if.o(i.CUSTOM_HID_DeInit_FS)
    CUSTOM_HID_DeInit_FS                     0x080007af   Thumb Code     4  usbd_custom_hid_if.o(i.CUSTOM_HID_DeInit_FS)
    i.CUSTOM_HID_Init_FS                     0x080007b2   Section        0  usbd_custom_hid_if.o(i.CUSTOM_HID_Init_FS)
    CUSTOM_HID_Init_FS                       0x080007b3   Thumb Code     4  usbd_custom_hid_if.o(i.CUSTOM_HID_Init_FS)
    i.CUSTOM_HID_OutEvent_FS                 0x080007b6   Section        0  usbd_custom_hid_if.o(i.CUSTOM_HID_OutEvent_FS)
    CUSTOM_HID_OutEvent_FS                   0x080007b7   Thumb Code     4  usbd_custom_hid_if.o(i.CUSTOM_HID_OutEvent_FS)
    i.DebugMon_Handler                       0x080007ba   Section        0  stm32f1xx_it.o(i.DebugMon_Handler)
    i.Error_Handler                          0x080007bc   Section        0  main.o(i.Error_Handler)
    i.FLASH_MassErase                        0x080007c0   Section        0  stm32f1xx_hal_flash_ex.o(i.FLASH_MassErase)
    FLASH_MassErase                          0x080007c1   Thumb Code    26  stm32f1xx_hal_flash_ex.o(i.FLASH_MassErase)
    i.FLASH_PageErase                        0x080007e4   Section        0  stm32f1xx_hal_flash_ex.o(i.FLASH_PageErase)
    i.FLASH_Program_HalfWord                 0x08000808   Section        0  stm32f1xx_hal_flash.o(i.FLASH_Program_HalfWord)
    FLASH_Program_HalfWord                   0x08000809   Thumb Code    20  stm32f1xx_hal_flash.o(i.FLASH_Program_HalfWord)
    i.FLASH_SetErrorCode                     0x08000824   Section        0  stm32f1xx_hal_flash.o(i.FLASH_SetErrorCode)
    FLASH_SetErrorCode                       0x08000825   Thumb Code    84  stm32f1xx_hal_flash.o(i.FLASH_SetErrorCode)
    i.FLASH_WaitForLastOperation             0x08000880   Section        0  stm32f1xx_hal_flash.o(i.FLASH_WaitForLastOperation)
    i.HAL_DMA_Abort                          0x080008d4   Section        0  stm32f1xx_hal_dma.o(i.HAL_DMA_Abort)
    i.HAL_DMA_Abort_IT                       0x0800091c   Section        0  stm32f1xx_hal_dma.o(i.HAL_DMA_Abort_IT)
    i.HAL_Delay                              0x080009b4   Section        0  stm32f1xx_hal.o(i.HAL_Delay)
    i.HAL_FLASHEx_Erase                      0x080009d8   Section        0  stm32f1xx_hal_flash_ex.o(i.HAL_FLASHEx_Erase)
    i.HAL_FLASH_Program                      0x08000a80   Section        0  stm32f1xx_hal_flash.o(i.HAL_FLASH_Program)
    i.HAL_FLASH_Unlock                       0x08000b00   Section        0  stm32f1xx_hal_flash.o(i.HAL_FLASH_Unlock)
    i.HAL_GPIO_Init                          0x08000b28   Section        0  stm32f1xx_hal_gpio.o(i.HAL_GPIO_Init)
    i.HAL_GPIO_WritePin                      0x08000d08   Section        0  stm32f1xx_hal_gpio.o(i.HAL_GPIO_WritePin)
    i.HAL_GetTick                            0x08000d14   Section        0  stm32f1xx_hal.o(i.HAL_GetTick)
    i.HAL_IncTick                            0x08000d20   Section        0  stm32f1xx_hal.o(i.HAL_IncTick)
    i.HAL_Init                               0x08000d30   Section        0  stm32f1xx_hal.o(i.HAL_Init)
    i.HAL_InitTick                           0x08000d54   Section        0  stm32f1xx_hal.o(i.HAL_InitTick)
    i.HAL_MspInit                            0x08000d94   Section        0  stm32f1xx_hal_msp.o(i.HAL_MspInit)
    i.HAL_NVIC_EnableIRQ                     0x08000dd0   Section        0  stm32f1xx_hal_cortex.o(i.HAL_NVIC_EnableIRQ)
    i.HAL_NVIC_SetPriority                   0x08000dec   Section        0  stm32f1xx_hal_cortex.o(i.HAL_NVIC_SetPriority)
    i.HAL_NVIC_SetPriorityGrouping           0x08000e2c   Section        0  stm32f1xx_hal_cortex.o(i.HAL_NVIC_SetPriorityGrouping)
    i.HAL_PCDEx_PMAConfig                    0x08000e50   Section        0  stm32f1xx_hal_pcd_ex.o(i.HAL_PCDEx_PMAConfig)
    i.HAL_PCDEx_SetConnectionState           0x08000e8c   Section        0  usbd_conf.o(i.HAL_PCDEx_SetConnectionState)
    i.HAL_PCD_DataInStageCallback            0x08000e8e   Section        0  usbd_conf.o(i.HAL_PCD_DataInStageCallback)
    i.HAL_PCD_DataOutStageCallback           0x08000ea0   Section        0  usbd_conf.o(i.HAL_PCD_DataOutStageCallback)
    i.HAL_PCD_EP_Close                       0x08000eb4   Section        0  stm32f1xx_hal_pcd.o(i.HAL_PCD_EP_Close)
    i.HAL_PCD_EP_ClrStall                    0x08000f00   Section        0  stm32f1xx_hal_pcd.o(i.HAL_PCD_EP_ClrStall)
    i.HAL_PCD_EP_DB_Receive                  0x08000f5c   Section        0  stm32f1xx_hal_pcd.o(i.HAL_PCD_EP_DB_Receive)
    HAL_PCD_EP_DB_Receive                    0x08000f5d   Thumb Code   230  stm32f1xx_hal_pcd.o(i.HAL_PCD_EP_DB_Receive)
    i.HAL_PCD_EP_DB_Transmit                 0x08001042   Section        0  stm32f1xx_hal_pcd.o(i.HAL_PCD_EP_DB_Transmit)
    HAL_PCD_EP_DB_Transmit                   0x08001043   Thumb Code   816  stm32f1xx_hal_pcd.o(i.HAL_PCD_EP_DB_Transmit)
    i.HAL_PCD_EP_Open                        0x08001372   Section        0  stm32f1xx_hal_pcd.o(i.HAL_PCD_EP_Open)
    i.HAL_PCD_EP_Receive                     0x080013d2   Section        0  stm32f1xx_hal_pcd.o(i.HAL_PCD_EP_Receive)
    i.HAL_PCD_EP_SetStall                    0x08001404   Section        0  stm32f1xx_hal_pcd.o(i.HAL_PCD_EP_SetStall)
    i.HAL_PCD_EP_Transmit                    0x08001476   Section        0  stm32f1xx_hal_pcd.o(i.HAL_PCD_EP_Transmit)
    i.HAL_PCD_IRQHandler                     0x080014aa   Section        0  stm32f1xx_hal_pcd.o(i.HAL_PCD_IRQHandler)
    i.HAL_PCD_Init                           0x08001600   Section        0  stm32f1xx_hal_pcd.o(i.HAL_PCD_Init)
    i.HAL_PCD_MspInit                        0x080016dc   Section        0  usbd_conf.o(i.HAL_PCD_MspInit)
    i.HAL_PCD_ResetCallback                  0x08001718   Section        0  usbd_conf.o(i.HAL_PCD_ResetCallback)
    i.HAL_PCD_ResumeCallback                 0x0800173e   Section        0  usbd_conf.o(i.HAL_PCD_ResumeCallback)
    i.HAL_PCD_SOFCallback                    0x08001746   Section        0  usbd_conf.o(i.HAL_PCD_SOFCallback)
    i.HAL_PCD_SetAddress                     0x0800174e   Section        0  stm32f1xx_hal_pcd.o(i.HAL_PCD_SetAddress)
    i.HAL_PCD_SetupStageCallback             0x08001776   Section        0  usbd_conf.o(i.HAL_PCD_SetupStageCallback)
    i.HAL_PCD_Start                          0x08001784   Section        0  stm32f1xx_hal_pcd.o(i.HAL_PCD_Start)
    i.HAL_PCD_SuspendCallback                0x080017b8   Section        0  usbd_conf.o(i.HAL_PCD_SuspendCallback)
    i.HAL_RCCEx_PeriphCLKConfig              0x080017dc   Section        0  stm32f1xx_hal_rcc_ex.o(i.HAL_RCCEx_PeriphCLKConfig)
    i.HAL_RCC_ClockConfig                    0x080018c8   Section        0  stm32f1xx_hal_rcc.o(i.HAL_RCC_ClockConfig)
    i.HAL_RCC_GetPCLK1Freq                   0x080019f4   Section        0  stm32f1xx_hal_rcc.o(i.HAL_RCC_GetPCLK1Freq)
    i.HAL_RCC_GetPCLK2Freq                   0x08001a14   Section        0  stm32f1xx_hal_rcc.o(i.HAL_RCC_GetPCLK2Freq)
    i.HAL_RCC_GetSysClockFreq                0x08001a34   Section        0  stm32f1xx_hal_rcc.o(i.HAL_RCC_GetSysClockFreq)
    i.HAL_RCC_OscConfig                      0x08001aa0   Section        0  stm32f1xx_hal_rcc.o(i.HAL_RCC_OscConfig)
    i.HAL_SYSTICK_Config                     0x08001dc0   Section        0  stm32f1xx_hal_cortex.o(i.HAL_SYSTICK_Config)
    i.HAL_TIMEx_BreakCallback                0x08001de8   Section        0  stm32f1xx_hal_tim_ex.o(i.HAL_TIMEx_BreakCallback)
    i.HAL_TIMEx_CommutCallback               0x08001dea   Section        0  stm32f1xx_hal_tim_ex.o(i.HAL_TIMEx_CommutCallback)
    i.HAL_TIMEx_MasterConfigSynchronization  0x08001dec   Section        0  stm32f1xx_hal_tim_ex.o(i.HAL_TIMEx_MasterConfigSynchronization)
    i.HAL_TIM_Base_Init                      0x08001e54   Section        0  stm32f1xx_hal_tim.o(i.HAL_TIM_Base_Init)
    i.HAL_TIM_Base_MspInit                   0x08001eb0   Section        0  stm32f1xx_hal_msp.o(i.HAL_TIM_Base_MspInit)
    i.HAL_TIM_Base_Start_IT                  0x08001eec   Section        0  stm32f1xx_hal_tim.o(i.HAL_TIM_Base_Start_IT)
    i.HAL_TIM_ConfigClockSource              0x08001f44   Section        0  stm32f1xx_hal_tim.o(i.HAL_TIM_ConfigClockSource)
    i.HAL_TIM_IC_CaptureCallback             0x0800201a   Section        0  stm32f1xx_hal_tim.o(i.HAL_TIM_IC_CaptureCallback)
    i.HAL_TIM_IRQHandler                     0x0800201c   Section        0  stm32f1xx_hal_tim.o(i.HAL_TIM_IRQHandler)
    i.HAL_TIM_OC_DelayElapsedCallback        0x08002182   Section        0  stm32f1xx_hal_tim.o(i.HAL_TIM_OC_DelayElapsedCallback)
    i.HAL_TIM_PWM_PulseFinishedCallback      0x08002184   Section        0  stm32f1xx_hal_tim.o(i.HAL_TIM_PWM_PulseFinishedCallback)
    i.HAL_TIM_PeriodElapsedCallback          0x08002188   Section        0  tim3_counter_handle.o(i.HAL_TIM_PeriodElapsedCallback)
    i.HAL_TIM_TriggerCallback                0x080021cc   Section        0  stm32f1xx_hal_tim.o(i.HAL_TIM_TriggerCallback)
    i.HAL_UARTEx_RxEventCallback             0x080021ce   Section        0  stm32f1xx_hal_uart.o(i.HAL_UARTEx_RxEventCallback)
    i.HAL_UART_ErrorCallback                 0x080021d0   Section        0  stm32f1xx_hal_uart.o(i.HAL_UART_ErrorCallback)
    i.HAL_UART_IRQHandler                    0x080021d4   Section        0  stm32f1xx_hal_uart.o(i.HAL_UART_IRQHandler)
    i.HAL_UART_Init                          0x080023e0   Section        0  stm32f1xx_hal_uart.o(i.HAL_UART_Init)
    i.HAL_UART_MspInit                       0x08002444   Section        0  stm32f1xx_hal_msp.o(i.HAL_UART_MspInit)
    i.HAL_UART_Receive_IT                    0x08002510   Section        0  stm32f1xx_hal_uart.o(i.HAL_UART_Receive_IT)
    i.HAL_UART_RxCpltCallback                0x0800253c   Section        0  uart2_main_handle.o(i.HAL_UART_RxCpltCallback)
    i.HAL_UART_Transmit                      0x08002574   Section        0  stm32f1xx_hal_uart.o(i.HAL_UART_Transmit)
    i.HAL_UART_TxCpltCallback                0x08002626   Section        0  stm32f1xx_hal_uart.o(i.HAL_UART_TxCpltCallback)
    i.HardFault_Handler                      0x08002628   Section        0  stm32f1xx_it.o(i.HardFault_Handler)
    i.IntToUnicode                           0x0800262c   Section        0  usbd_desc.o(i.IntToUnicode)
    IntToUnicode                             0x0800262d   Thumb Code    56  usbd_desc.o(i.IntToUnicode)
    i.MX_GPIO_Init                           0x08002664   Section        0  main.o(i.MX_GPIO_Init)
    MX_GPIO_Init                             0x08002665   Thumb Code   118  main.o(i.MX_GPIO_Init)
    i.MX_TIM3_Init                           0x080026e4   Section        0  main.o(i.MX_TIM3_Init)
    MX_TIM3_Init                             0x080026e5   Thumb Code    94  main.o(i.MX_TIM3_Init)
    i.MX_USB_DEVICE_Init                     0x0800274c   Section        0  usb_device.o(i.MX_USB_DEVICE_Init)
    i.MemManage_Handler                      0x080027a0   Section        0  stm32f1xx_it.o(i.MemManage_Handler)
    i.NMI_Handler                            0x080027a2   Section        0  stm32f1xx_it.o(i.NMI_Handler)
    i.PCD_EP_ISR_Handler                     0x080027a4   Section        0  stm32f1xx_hal_pcd.o(i.PCD_EP_ISR_Handler)
    PCD_EP_ISR_Handler                       0x080027a5   Thumb Code   788  stm32f1xx_hal_pcd.o(i.PCD_EP_ISR_Handler)
    i.PendSV_Handler                         0x08002ab8   Section        0  stm32f1xx_it.o(i.PendSV_Handler)
    i.SVC_Handler                            0x08002aba   Section        0  stm32f1xx_it.o(i.SVC_Handler)
    i.SysTick_Handler                        0x08002abc   Section        0  stm32f1xx_it.o(i.SysTick_Handler)
    i.SystemClock_Config                     0x08002ac0   Section        0  main.o(i.SystemClock_Config)
    i.SystemInit                             0x08002b36   Section        0  system_stm32f1xx.o(i.SystemInit)
    i.TIM3_IRQHandler                        0x08002b38   Section        0  stm32f1xx_it.o(i.TIM3_IRQHandler)
    i.TIM_Base_SetConfig                     0x08002b44   Section        0  stm32f1xx_hal_tim.o(i.TIM_Base_SetConfig)
    i.TIM_ETR_SetConfig                      0x08002bb0   Section        0  stm32f1xx_hal_tim.o(i.TIM_ETR_SetConfig)
    i.TIM_ITRx_SetConfig                     0x08002bc4   Section        0  stm32f1xx_hal_tim.o(i.TIM_ITRx_SetConfig)
    TIM_ITRx_SetConfig                       0x08002bc5   Thumb Code    16  stm32f1xx_hal_tim.o(i.TIM_ITRx_SetConfig)
    i.TIM_TI1_ConfigInputStage               0x08002bd4   Section        0  stm32f1xx_hal_tim.o(i.TIM_TI1_ConfigInputStage)
    TIM_TI1_ConfigInputStage                 0x08002bd5   Thumb Code    34  stm32f1xx_hal_tim.o(i.TIM_TI1_ConfigInputStage)
    i.TIM_TI2_ConfigInputStage               0x08002bf6   Section        0  stm32f1xx_hal_tim.o(i.TIM_TI2_ConfigInputStage)
    TIM_TI2_ConfigInputStage                 0x08002bf7   Thumb Code    36  stm32f1xx_hal_tim.o(i.TIM_TI2_ConfigInputStage)
    i.UART_DMAAbortOnError                   0x08002c1a   Section        0  stm32f1xx_hal_uart.o(i.UART_DMAAbortOnError)
    UART_DMAAbortOnError                     0x08002c1b   Thumb Code    16  stm32f1xx_hal_uart.o(i.UART_DMAAbortOnError)
    i.UART_EndRxTransfer                     0x08002c2a   Section        0  stm32f1xx_hal_uart.o(i.UART_EndRxTransfer)
    UART_EndRxTransfer                       0x08002c2b   Thumb Code    48  stm32f1xx_hal_uart.o(i.UART_EndRxTransfer)
    i.UART_Receive_IT                        0x08002c5a   Section        0  stm32f1xx_hal_uart.o(i.UART_Receive_IT)
    UART_Receive_IT                          0x08002c5b   Thumb Code   182  stm32f1xx_hal_uart.o(i.UART_Receive_IT)
    i.UART_SetConfig                         0x08002d10   Section        0  stm32f1xx_hal_uart.o(i.UART_SetConfig)
    UART_SetConfig                           0x08002d11   Thumb Code   178  stm32f1xx_hal_uart.o(i.UART_SetConfig)
    i.UART_Start_Receive_IT                  0x08002dc8   Section        0  stm32f1xx_hal_uart.o(i.UART_Start_Receive_IT)
    i.UART_WaitOnFlagUntilTimeout            0x08002dfe   Section        0  stm32f1xx_hal_uart.o(i.UART_WaitOnFlagUntilTimeout)
    UART_WaitOnFlagUntilTimeout              0x08002dff   Thumb Code   100  stm32f1xx_hal_uart.o(i.UART_WaitOnFlagUntilTimeout)
    i.USART2_IRQHandler                      0x08002e64   Section        0  stm32f1xx_it.o(i.USART2_IRQHandler)
    i.USBD_CUSTOM_HID_DataIn                 0x08002e70   Section        0  usbd_customhid.o(i.USBD_CUSTOM_HID_DataIn)
    USBD_CUSTOM_HID_DataIn                   0x08002e71   Thumb Code    14  usbd_customhid.o(i.USBD_CUSTOM_HID_DataIn)
    i.USBD_CUSTOM_HID_DataOut                0x08002e7e   Section        0  usbd_customhid.o(i.USBD_CUSTOM_HID_DataOut)
    USBD_CUSTOM_HID_DataOut                  0x08002e7f   Thumb Code    36  usbd_customhid.o(i.USBD_CUSTOM_HID_DataOut)
    i.USBD_CUSTOM_HID_DeInit                 0x08002ea2   Section        0  usbd_customhid.o(i.USBD_CUSTOM_HID_DeInit)
    USBD_CUSTOM_HID_DeInit                   0x08002ea3   Thumb Code    56  usbd_customhid.o(i.USBD_CUSTOM_HID_DeInit)
    i.USBD_CUSTOM_HID_EP0_RxReady            0x08002eda   Section        0  usbd_customhid.o(i.USBD_CUSTOM_HID_EP0_RxReady)
    USBD_CUSTOM_HID_EP0_RxReady              0x08002edb   Thumb Code    34  usbd_customhid.o(i.USBD_CUSTOM_HID_EP0_RxReady)
    i.USBD_CUSTOM_HID_GetDeviceQualifierDesc 0x08002efc   Section        0  usbd_customhid.o(i.USBD_CUSTOM_HID_GetDeviceQualifierDesc)
    USBD_CUSTOM_HID_GetDeviceQualifierDesc   0x08002efd   Thumb Code     8  usbd_customhid.o(i.USBD_CUSTOM_HID_GetDeviceQualifierDesc)
    i.USBD_CUSTOM_HID_GetFSCfgDesc           0x08002f08   Section        0  usbd_customhid.o(i.USBD_CUSTOM_HID_GetFSCfgDesc)
    USBD_CUSTOM_HID_GetFSCfgDesc             0x08002f09   Thumb Code     8  usbd_customhid.o(i.USBD_CUSTOM_HID_GetFSCfgDesc)
    i.USBD_CUSTOM_HID_GetHSCfgDesc           0x08002f14   Section        0  usbd_customhid.o(i.USBD_CUSTOM_HID_GetHSCfgDesc)
    USBD_CUSTOM_HID_GetHSCfgDesc             0x08002f15   Thumb Code     8  usbd_customhid.o(i.USBD_CUSTOM_HID_GetHSCfgDesc)
    i.USBD_CUSTOM_HID_GetOtherSpeedCfgDesc   0x08002f20   Section        0  usbd_customhid.o(i.USBD_CUSTOM_HID_GetOtherSpeedCfgDesc)
    USBD_CUSTOM_HID_GetOtherSpeedCfgDesc     0x08002f21   Thumb Code     8  usbd_customhid.o(i.USBD_CUSTOM_HID_GetOtherSpeedCfgDesc)
    i.USBD_CUSTOM_HID_Init                   0x08002f2c   Section        0  usbd_customhid.o(i.USBD_CUSTOM_HID_Init)
    USBD_CUSTOM_HID_Init                     0x08002f2d   Thumb Code    84  usbd_customhid.o(i.USBD_CUSTOM_HID_Init)
    i.USBD_CUSTOM_HID_RegisterInterface      0x08002f80   Section        0  usbd_customhid.o(i.USBD_CUSTOM_HID_RegisterInterface)
    i.USBD_CUSTOM_HID_SendReport             0x08002f90   Section        0  usbd_customhid.o(i.USBD_CUSTOM_HID_SendReport)
    i.USBD_CUSTOM_HID_Setup                  0x08002fbc   Section        0  usbd_customhid.o(i.USBD_CUSTOM_HID_Setup)
    USBD_CUSTOM_HID_Setup                    0x08002fbd   Thumb Code   218  usbd_customhid.o(i.USBD_CUSTOM_HID_Setup)
    i.USBD_ClrClassConfig                    0x0800309c   Section        0  usbd_core.o(i.USBD_ClrClassConfig)
    i.USBD_CtlContinueRx                     0x080030aa   Section        0  usbd_ioreq.o(i.USBD_CtlContinueRx)
    i.USBD_CtlContinueSendData               0x080030ba   Section        0  usbd_ioreq.o(i.USBD_CtlContinueSendData)
    i.USBD_CtlError                          0x080030ca   Section        0  usbd_ctlreq.o(i.USBD_CtlError)
    i.USBD_CtlPrepareRx                      0x080030e0   Section        0  usbd_ioreq.o(i.USBD_CtlPrepareRx)
    i.USBD_CtlReceiveStatus                  0x080030fe   Section        0  usbd_ioreq.o(i.USBD_CtlReceiveStatus)
    i.USBD_CtlSendData                       0x08003114   Section        0  usbd_ioreq.o(i.USBD_CtlSendData)
    i.USBD_CtlSendStatus                     0x0800312e   Section        0  usbd_ioreq.o(i.USBD_CtlSendStatus)
    i.USBD_FS_ConfigStrDescriptor            0x08003144   Section        0  usbd_desc.o(i.USBD_FS_ConfigStrDescriptor)
    i.USBD_FS_DeviceDescriptor               0x0800316c   Section        0  usbd_desc.o(i.USBD_FS_DeviceDescriptor)
    i.USBD_FS_InterfaceStrDescriptor         0x08003178   Section        0  usbd_desc.o(i.USBD_FS_InterfaceStrDescriptor)
    i.USBD_FS_LangIDStrDescriptor            0x080031a4   Section        0  usbd_desc.o(i.USBD_FS_LangIDStrDescriptor)
    i.USBD_FS_ManufacturerStrDescriptor      0x080031b0   Section        0  usbd_desc.o(i.USBD_FS_ManufacturerStrDescriptor)
    i.USBD_FS_ProductStrDescriptor           0x080031d0   Section        0  usbd_desc.o(i.USBD_FS_ProductStrDescriptor)
    i.USBD_FS_SerialStrDescriptor            0x080031f4   Section        0  usbd_desc.o(i.USBD_FS_SerialStrDescriptor)
    i.USBD_GetDescriptor                     0x0800322c   Section        0  usbd_ctlreq.o(i.USBD_GetDescriptor)
    USBD_GetDescriptor                       0x0800322d   Thumb Code   224  usbd_ctlreq.o(i.USBD_GetDescriptor)
    i.USBD_GetString                         0x0800330c   Section        0  usbd_ctlreq.o(i.USBD_GetString)
    i.USBD_Get_USB_Status                    0x08003354   Section        0  usbd_conf.o(i.USBD_Get_USB_Status)
    USBD_Get_USB_Status                      0x08003355   Thumb Code    24  usbd_conf.o(i.USBD_Get_USB_Status)
    i.USBD_Init                              0x0800336c   Section        0  usbd_core.o(i.USBD_Init)
    i.USBD_LL_ClearStallEP                   0x08003396   Section        0  usbd_conf.o(i.USBD_LL_ClearStallEP)
    i.USBD_LL_CloseEP                        0x080033a8   Section        0  usbd_conf.o(i.USBD_LL_CloseEP)
    i.USBD_LL_DataInStage                    0x080033ba   Section        0  usbd_core.o(i.USBD_LL_DataInStage)
    i.USBD_LL_DataOutStage                   0x08003480   Section        0  usbd_core.o(i.USBD_LL_DataOutStage)
    i.USBD_LL_Init                           0x08003504   Section        0  usbd_conf.o(i.USBD_LL_Init)
    i.USBD_LL_IsStallEP                      0x08003574   Section        0  usbd_conf.o(i.USBD_LL_IsStallEP)
    i.USBD_LL_OpenEP                         0x08003594   Section        0  usbd_conf.o(i.USBD_LL_OpenEP)
    i.USBD_LL_PrepareReceive                 0x080035ac   Section        0  usbd_conf.o(i.USBD_LL_PrepareReceive)
    i.USBD_LL_Reset                          0x080035be   Section        0  usbd_core.o(i.USBD_LL_Reset)
    i.USBD_LL_Resume                         0x0800360e   Section        0  usbd_core.o(i.USBD_LL_Resume)
    i.USBD_LL_SOF                            0x08003622   Section        0  usbd_core.o(i.USBD_LL_SOF)
    i.USBD_LL_SetSpeed                       0x0800363a   Section        0  usbd_core.o(i.USBD_LL_SetSpeed)
    i.USBD_LL_SetUSBAddress                  0x08003640   Section        0  usbd_conf.o(i.USBD_LL_SetUSBAddress)
    i.USBD_LL_SetupStage                     0x08003652   Section        0  usbd_core.o(i.USBD_LL_SetupStage)
    i.USBD_LL_StallEP                        0x080036ac   Section        0  usbd_conf.o(i.USBD_LL_StallEP)
    i.USBD_LL_Start                          0x080036be   Section        0  usbd_conf.o(i.USBD_LL_Start)
    i.USBD_LL_Suspend                        0x080036d0   Section        0  usbd_core.o(i.USBD_LL_Suspend)
    i.USBD_LL_Transmit                       0x080036e2   Section        0  usbd_conf.o(i.USBD_LL_Transmit)
    i.USBD_ParseSetupRequest                 0x080036f4   Section        0  usbd_ctlreq.o(i.USBD_ParseSetupRequest)
    i.USBD_RegisterClass                     0x0800371c   Section        0  usbd_core.o(i.USBD_RegisterClass)
    i.USBD_SetClassConfig                    0x0800372c   Section        0  usbd_core.o(i.USBD_SetClassConfig)
    i.USBD_SetConfig                         0x08003744   Section        0  usbd_ctlreq.o(i.USBD_SetConfig)
    USBD_SetConfig                           0x08003745   Thumb Code   128  usbd_ctlreq.o(i.USBD_SetConfig)
    i.USBD_Start                             0x080037c8   Section        0  usbd_core.o(i.USBD_Start)
    i.USBD_StdDevReq                         0x080037d2   Section        0  usbd_ctlreq.o(i.USBD_StdDevReq)
    i.USBD_StdEPReq                          0x080038e4   Section        0  usbd_ctlreq.o(i.USBD_StdEPReq)
    i.USBD_StdItfReq                         0x08003a34   Section        0  usbd_ctlreq.o(i.USBD_StdItfReq)
    i.USBD_static_free                       0x08003a82   Section        0  usbd_conf.o(i.USBD_static_free)
    i.USBD_static_malloc                     0x08003a84   Section        0  usbd_conf.o(i.USBD_static_malloc)
    i.USB_ActivateEndpoint                   0x08003a8c   Section        0  stm32f1xx_ll_usb.o(i.USB_ActivateEndpoint)
    i.USB_CoreInit                           0x08003ce4   Section        0  stm32f1xx_ll_usb.o(i.USB_CoreInit)
    i.USB_DeactivateEndpoint                 0x08003ce8   Section        0  stm32f1xx_ll_usb.o(i.USB_DeactivateEndpoint)
    i.USB_DevConnect                         0x08003df6   Section        0  stm32f1xx_ll_usb.o(i.USB_DevConnect)
    i.USB_DevDisconnect                      0x08003dfa   Section        0  stm32f1xx_ll_usb.o(i.USB_DevDisconnect)
    i.USB_DevInit                            0x08003dfe   Section        0  stm32f1xx_ll_usb.o(i.USB_DevInit)
    i.USB_DisableGlobalInt                   0x08003e10   Section        0  stm32f1xx_ll_usb.o(i.USB_DisableGlobalInt)
    i.USB_EP0_OutStart                       0x08003e1e   Section        0  stm32f1xx_ll_usb.o(i.USB_EP0_OutStart)
    i.USB_EPClearStall                       0x08003e22   Section        0  stm32f1xx_ll_usb.o(i.USB_EPClearStall)
    i.USB_EPSetStall                         0x08003e9a   Section        0  stm32f1xx_ll_usb.o(i.USB_EPSetStall)
    i.USB_EPStartXfer                        0x08003ecc   Section        0  stm32f1xx_ll_usb.o(i.USB_EPStartXfer)
    i.USB_EnableGlobalInt                    0x080044d8   Section        0  stm32f1xx_ll_usb.o(i.USB_EnableGlobalInt)
    i.USB_LP_CAN1_RX0_IRQHandler             0x080044ec   Section        0  stm32f1xx_it.o(i.USB_LP_CAN1_RX0_IRQHandler)
    i.USB_ReadInterrupts                     0x080044f8   Section        0  stm32f1xx_ll_usb.o(i.USB_ReadInterrupts)
    i.USB_ReadPMA                            0x08004500   Section        0  stm32f1xx_ll_usb.o(i.USB_ReadPMA)
    i.USB_SetCurrentMode                     0x0800452c   Section        0  stm32f1xx_ll_usb.o(i.USB_SetCurrentMode)
    i.USB_SetDevAddress                      0x08004530   Section        0  stm32f1xx_ll_usb.o(i.USB_SetDevAddress)
    i.USB_WritePMA                           0x0800453c   Section        0  stm32f1xx_ll_usb.o(i.USB_WritePMA)
    i.UsageFault_Handler                     0x08004562   Section        0  stm32f1xx_it.o(i.UsageFault_Handler)
    i.__0printf                              0x08004564   Section        0  printfa.o(i.__0printf)
    i.__0vsprintf                            0x08004584   Section        0  printfa.o(i.__0vsprintf)
    i.__NVIC_SetPriority                     0x080045a8   Section        0  stm32f1xx_hal_cortex.o(i.__NVIC_SetPriority)
    __NVIC_SetPriority                       0x080045a9   Thumb Code    32  stm32f1xx_hal_cortex.o(i.__NVIC_SetPriority)
    i.__scatterload_copy                     0x080045c8   Section       14  handlers.o(i.__scatterload_copy)
    i.__scatterload_null                     0x080045d6   Section        2  handlers.o(i.__scatterload_null)
    i.__scatterload_zeroinit                 0x080045d8   Section       14  handlers.o(i.__scatterload_zeroinit)
    i._fp_digits                             0x080045e8   Section        0  printfa.o(i._fp_digits)
    _fp_digits                               0x080045e9   Thumb Code   366  printfa.o(i._fp_digits)
    i._printf_core                           0x0800476c   Section        0  printfa.o(i._printf_core)
    _printf_core                             0x0800476d   Thumb Code  1744  printfa.o(i._printf_core)
    i._printf_post_padding                   0x08004e48   Section        0  printfa.o(i._printf_post_padding)
    _printf_post_padding                     0x08004e49   Thumb Code    36  printfa.o(i._printf_post_padding)
    i._printf_pre_padding                    0x08004e6c   Section        0  printfa.o(i._printf_pre_padding)
    _printf_pre_padding                      0x08004e6d   Thumb Code    46  printfa.o(i._printf_pre_padding)
    i._sputc                                 0x08004e9a   Section        0  printfa.o(i._sputc)
    _sputc                                   0x08004e9b   Thumb Code    10  printfa.o(i._sputc)
    i.ecScript_handle                        0x08004ea4   Section        0  user_script_handle.o(i.ecScript_handle)
    i.ecScript_init                          0x080056d8   Section        0  user_script_handle.o(i.ecScript_init)
    i.ecScript_start                         0x08005780   Section        0  user_script_handle.o(i.ecScript_start)
    i.ecScript_stop                          0x080057b4   Section        0  user_script_handle.o(i.ecScript_stop)
    i.flash_ecScript_read8B                  0x080057c8   Section        0  flash_handle.o(i.flash_ecScript_read8B)
    i.flash_ecScript_resetWriteAddr          0x080057d8   Section        0  flash_handle.o(i.flash_ecScript_resetWriteAddr)
    i.flash_ecScript_write8B                 0x08005804   Section        0  flash_handle.o(i.flash_ecScript_write8B)
    i.flash_userVal_init                     0x080058c4   Section        0  flash_handle.o(i.flash_userVal_init)
    i.flash_userVal_write                    0x080058f4   Section        0  flash_handle.o(i.flash_userVal_write)
    i.flash_write16B                         0x08005930   Section        0  flash_handle.o(i.flash_write16B)
    i.flash_write32B                         0x08005938   Section        0  flash_handle.o(i.flash_write32B)
    i.flash_writeErase                       0x08005940   Section        0  flash_handle.o(i.flash_writeErase)
    i.flash_writeUnlock                      0x0800595c   Section        0  flash_handle.o(i.flash_writeUnlock)
    i.fputc                                  0x0800596c   Section        0  uart1_debug_handle.o(i.fputc)
    i.free                                   0x08005988   Section        0  malloc.o(i.free)
    i.ledb_off                               0x080059d8   Section        0  ledb_handle.o(i.ledb_off)
    i.ledb_on                                0x080059e8   Section        0  ledb_handle.o(i.ledb_on)
    i.ledb_test                              0x080059f8   Section        0  ledb_handle.o(i.ledb_test)
    i.main                                   0x08005a18   Section        0  main.o(i.main)
    i.malloc                                 0x08005b6c   Section        0  malloc.o(i.malloc)
    i.printx                                 0x08005bd8   Section        0  uart1_debug_handle.o(i.printx)
    i.tim3_nvic_init                         0x08005c0c   Section        0  tim3_counter_handle.o(i.tim3_nvic_init)
    i.umain_cmd_handle                       0x08005c4c   Section        0  uart2_main_handle.o(i.umain_cmd_handle)
    i.umain_handle                           0x08005cfc   Section        0  uart2_main_handle.o(i.umain_handle)
    i.umain_nvic_init                        0x08005de0   Section        0  uart2_main_handle.o(i.umain_nvic_init)
    i.umain_script_handle                    0x08005e24   Section        0  uart2_main_handle.o(i.umain_script_handle)
    i.umain_send8B                           0x08005f0c   Section        0  uart2_main_handle.o(i.umain_send8B)
    i.umain_sendCmd                          0x08005f6c   Section        0  uart2_main_handle.o(i.umain_sendCmd)
    i.umain_trans_handle                     0x08005fb0   Section        0  uart2_main_handle.o(i.umain_trans_handle)
    i.usbd_gp_init                           0x08006078   Section        0  usbd_gp_handle.o(i.usbd_gp_init)
    i.usbd_send                              0x0800609c   Section        0  usbd_gp_handle.o(i.usbd_send)
    i.usbd_serialcon_input_handle            0x08006124   Section        0  usbd_gp_handle.o(i.usbd_serialcon_input_handle)
    i.user_ringBufferData_in                 0x08006158   Section        0  user_ringbuffer_handle.o(i.user_ringBufferData_in)
    i.user_ringBufferData_out                0x08006194   Section        0  user_ringbuffer_handle.o(i.user_ringBufferData_out)
    i.user_ringbuffer_init                   0x080061c4   Section        0  user_ringbuffer_handle.o(i.user_ringbuffer_init)
    .constdata                               0x0800621c   Section       16  system_stm32f1xx.o(.constdata)
    .constdata                               0x0800622c   Section        8  system_stm32f1xx.o(.constdata)
    .conststring                             0x08006234   Section        7  main.o(.conststring)
    .conststring                             0x0800623c   Section       31  usbd_gp_handle.o(.conststring)
    .conststring                             0x0800625c   Section       32  uart2_main_handle.o(.conststring)
    .conststring                             0x0800627c   Section        8  flash_handle.o(.conststring)
    .conststring                             0x08006284   Section       13  user_ringbuffer_handle.o(.conststring)
    .conststring                             0x08006294   Section        7  tim3_counter_handle.o(.conststring)
    .conststring                             0x0800629c   Section        9  user_script_handle.o(.conststring)
    .data                                    0x20000000   Section        4  main.o(.data)
    .data                                    0x20000004   Section       28  usbd_desc.o(.data)
    .data                                    0x20000020   Section       50  usbd_desc.o(.data)
    .data                                    0x20000054   Section       86  usbd_custom_hid_if.o(.data)
    CUSTOM_HID_ReportDesc_FS                 0x20000054   Data          86  usbd_custom_hid_if.o(.data)
    .data                                    0x200000ac   Section       16  usbd_custom_hid_if.o(.data)
    .data                                    0x200000bc   Section       12  stm32f1xx_hal.o(.data)
    .data                                    0x200000c8   Section        4  system_stm32f1xx.o(.data)
    .data                                    0x200000cc   Section        1  usbd_ctlreq.o(.data)
    cfgidx                                   0x200000cc   Data           1  usbd_ctlreq.o(.data)
    .data                                    0x200000d0   Section       56  usbd_customhid.o(.data)
    .data                                    0x20000108   Section      162  usbd_customhid.o(.data)
    USBD_CUSTOM_HID_CfgFSDesc                0x20000108   Data          41  usbd_customhid.o(.data)
    USBD_CUSTOM_HID_CfgHSDesc                0x20000134   Data          41  usbd_customhid.o(.data)
    USBD_CUSTOM_HID_OtherSpeedCfgDesc        0x20000160   Data          41  usbd_customhid.o(.data)
    USBD_CUSTOM_HID_Desc                     0x2000018c   Data           9  usbd_customhid.o(.data)
    USBD_CUSTOM_HID_DeviceQualifierDesc      0x20000198   Data          18  usbd_customhid.o(.data)
    .data                                    0x200001ac   Section       32  usbd_gp_handle.o(.data)
    .data                                    0x200001cc   Section       36  uart2_main_handle.o(.data)
    .data                                    0x200001f0   Section       12  flash_handle.o(.data)
    .data                                    0x200001fc   Section       24  user_ringbuffer_handle.o(.data)
    r_pBuffer                                0x20000200   Data           4  user_ringbuffer_handle.o(.data)
    r_buffsize                               0x20000204   Data           4  user_ringbuffer_handle.o(.data)
    r_writePos                               0x20000208   Data           4  user_ringbuffer_handle.o(.data)
    r_readPos                                0x2000020c   Data           4  user_ringbuffer_handle.o(.data)
    r_dataLen                                0x20000210   Data           4  user_ringbuffer_handle.o(.data)
    .data                                    0x20000214   Section        8  tim3_counter_handle.o(.data)
    .data                                    0x2000021c   Section       32  user_script_handle.o(.data)
    .data                                    0x2000023c   Section        4  rand.o(.data)
    _rand_state                              0x2000023c   Data           4  rand.o(.data)
    .data                                    0x20000240   Section        4  stdout.o(.data)
    .data                                    0x20000244   Section        4  mvars.o(.data)
    .data                                    0x20000248   Section        4  mvars.o(.data)
    .bss                                     0x2000024c   Section      208  main.o(.bss)
    .bss                                     0x2000031c   Section      708  usb_device.o(.bss)
    .bss                                     0x200005e0   Section      512  usbd_desc.o(.bss)
    .bss                                     0x200007e0   Section      860  usbd_conf.o(.bss)
    mem                                      0x200007e0   Data         112  usbd_conf.o(.bss)
    .bss                                     0x20000b40   Section       32  stm32f1xx_hal_flash.o(.bss)
    .bss                                     0x20000b60   Section       20  uart2_main_handle.o(.bss)
    .bss                                     0x20000b74   Section      900  user_script_handle.o(.bss)
    HEAP                                     0x20000ef8   Section      512  startup_stm32f103xb.o(HEAP)
    STACK                                    0x200010f8   Section     1024  startup_stm32f103xb.o(STACK)

    Global Symbols

    Symbol Name                              Value     Ov Type        Size  Object(Section)

    BuildAttributes$$THM_ISAv4$P$D$K$B$S$PE$A:L22UL41UL21$X:L11$S22US41US21$IEEE1$IW$USESV6$~STKCKD$USESV7$~SHL$OSPACE$ROPI$EBA8$MICROLIB$REQ8$PRES8$EABIv2 0x00000000   Number         0  anon$$obj.o ABSOLUTE
    __ARM_use_no_argv                        0x00000000   Number         0  main.o ABSOLUTE
    _printf_a                                0x00000000   Number         0  stubs.o ABSOLUTE
    _printf_c                                0x00000000   Number         0  stubs.o ABSOLUTE
    _printf_charcount                        0x00000000   Number         0  stubs.o ABSOLUTE
    _printf_d                                0x00000000   Number         0  stubs.o ABSOLUTE
    _printf_e                                0x00000000   Number         0  stubs.o ABSOLUTE
    _printf_f                                0x00000000   Number         0  stubs.o ABSOLUTE
    _printf_flags                            0x00000000   Number         0  stubs.o ABSOLUTE
    _printf_fp_dec                           0x00000000   Number         0  stubs.o ABSOLUTE
    _printf_fp_hex                           0x00000000   Number         0  stubs.o ABSOLUTE
    _printf_g                                0x00000000   Number         0  stubs.o ABSOLUTE
    _printf_i                                0x00000000   Number         0  stubs.o ABSOLUTE
    _printf_int_dec                          0x00000000   Number         0  stubs.o ABSOLUTE
    _printf_l                                0x00000000   Number         0  stubs.o ABSOLUTE
    _printf_lc                               0x00000000   Number         0  stubs.o ABSOLUTE
    _printf_ll                               0x00000000   Number         0  stubs.o ABSOLUTE
    _printf_lld                              0x00000000   Number         0  stubs.o ABSOLUTE
    _printf_lli                              0x00000000   Number         0  stubs.o ABSOLUTE
    _printf_llo                              0x00000000   Number         0  stubs.o ABSOLUTE
    _printf_llu                              0x00000000   Number         0  stubs.o ABSOLUTE
    _printf_llx                              0x00000000   Number         0  stubs.o ABSOLUTE
    _printf_longlong_dec                     0x00000000   Number         0  stubs.o ABSOLUTE
    _printf_longlong_hex                     0x00000000   Number         0  stubs.o ABSOLUTE
    _printf_longlong_oct                     0x00000000   Number         0  stubs.o ABSOLUTE
    _printf_ls                               0x00000000   Number         0  stubs.o ABSOLUTE
    _printf_mbtowc                           0x00000000   Number         0  stubs.o ABSOLUTE
    _printf_n                                0x00000000   Number         0  stubs.o ABSOLUTE
    _printf_o                                0x00000000   Number         0  stubs.o ABSOLUTE
    _printf_p                                0x00000000   Number         0  stubs.o ABSOLUTE
    _printf_percent                          0x00000000   Number         0  stubs.o ABSOLUTE
    _printf_pre_padding                      0x00000000   Number         0  stubs.o ABSOLUTE
    _printf_return_value                     0x00000000   Number         0  stubs.o ABSOLUTE
    _printf_s                                0x00000000   Number         0  stubs.o ABSOLUTE
    _printf_sizespec                         0x00000000   Number         0  stubs.o ABSOLUTE
    _printf_str                              0x00000000   Number         0  stubs.o ABSOLUTE
    _printf_truncate_signed                  0x00000000   Number         0  stubs.o ABSOLUTE
    _printf_truncate_unsigned                0x00000000   Number         0  stubs.o ABSOLUTE
    _printf_u                                0x00000000   Number         0  stubs.o ABSOLUTE
    _printf_wc                               0x00000000   Number         0  stubs.o ABSOLUTE
    _printf_wctomb                           0x00000000   Number         0  stubs.o ABSOLUTE
    _printf_widthprec                        0x00000000   Number         0  stubs.o ABSOLUTE
    _printf_x                                0x00000000   Number         0  stubs.o ABSOLUTE
    __cpp_initialize__aeabi_                  - Undefined Weak Reference
    __cxa_finalize                            - Undefined Weak Reference
    _clock_init                               - Undefined Weak Reference
    _microlib_exit                            - Undefined Weak Reference
    __Vectors_Size                           0x000000ec   Number         0  startup_stm32f103xb.o ABSOLUTE
    __Vectors                                0x08000000   Data           4  startup_stm32f103xb.o(RESET)
    __Vectors_End                            0x080000ec   Data           0  startup_stm32f103xb.o(RESET)
    __main                                   0x080000ed   Thumb Code     0  entry.o(.ARM.Collect$$$$00000000)
    _main_stk                                0x080000ed   Thumb Code     0  entry2.o(.ARM.Collect$$$$00000001)
    _main_scatterload                        0x080000f1   Thumb Code     0  entry5.o(.ARM.Collect$$$$00000004)
    __main_after_scatterload                 0x080000f5   Thumb Code     0  entry5.o(.ARM.Collect$$$$00000004)
    _main_clock                              0x080000f5   Thumb Code     0  entry7b.o(.ARM.Collect$$$$00000008)
    _main_cpp_init                           0x080000f5   Thumb Code     0  entry8b.o(.ARM.Collect$$$$0000000A)
    _main_init                               0x080000f5   Thumb Code     0  entry9a.o(.ARM.Collect$$$$0000000B)
    __rt_final_cpp                           0x080000fd   Thumb Code     0  entry10a.o(.ARM.Collect$$$$0000000D)
    __rt_final_exit                          0x080000fd   Thumb Code     0  entry11a.o(.ARM.Collect$$$$0000000F)
    Reset_Handler                            0x08000101   Thumb Code     8  startup_stm32f103xb.o(.text)
    ADC1_2_IRQHandler                        0x0800011b   Thumb Code     0  startup_stm32f103xb.o(.text)
    CAN1_RX1_IRQHandler                      0x0800011b   Thumb Code     0  startup_stm32f103xb.o(.text)
    CAN1_SCE_IRQHandler                      0x0800011b   Thumb Code     0  startup_stm32f103xb.o(.text)
    DMA1_Channel1_IRQHandler                 0x0800011b   Thumb Code     0  startup_stm32f103xb.o(.text)
    DMA1_Channel2_IRQHandler                 0x0800011b   Thumb Code     0  startup_stm32f103xb.o(.text)
    DMA1_Channel3_IRQHandler                 0x0800011b   Thumb Code     0  startup_stm32f103xb.o(.text)
    DMA1_Channel4_IRQHandler                 0x0800011b   Thumb Code     0  startup_stm32f103xb.o(.text)
    DMA1_Channel5_IRQHandler                 0x0800011b   Thumb Code     0  startup_stm32f103xb.o(.text)
    DMA1_Channel6_IRQHandler                 0x0800011b   Thumb Code     0  startup_stm32f103xb.o(.text)
    DMA1_Channel7_IRQHandler                 0x0800011b   Thumb Code     0  startup_stm32f103xb.o(.text)
    EXTI0_IRQHandler                         0x0800011b   Thumb Code     0  startup_stm32f103xb.o(.text)
    EXTI15_10_IRQHandler                     0x0800011b   Thumb Code     0  startup_stm32f103xb.o(.text)
    EXTI1_IRQHandler                         0x0800011b   Thumb Code     0  startup_stm32f103xb.o(.text)
    EXTI2_IRQHandler                         0x0800011b   Thumb Code     0  startup_stm32f103xb.o(.text)
    EXTI3_IRQHandler                         0x0800011b   Thumb Code     0  startup_stm32f103xb.o(.text)
    EXTI4_IRQHandler                         0x0800011b   Thumb Code     0  startup_stm32f103xb.o(.text)
    EXTI9_5_IRQHandler                       0x0800011b   Thumb Code     0  startup_stm32f103xb.o(.text)
    FLASH_IRQHandler                         0x0800011b   Thumb Code     0  startup_stm32f103xb.o(.text)
    I2C1_ER_IRQHandler                       0x0800011b   Thumb Code     0  startup_stm32f103xb.o(.text)
    I2C1_EV_IRQHandler                       0x0800011b   Thumb Code     0  startup_stm32f103xb.o(.text)
    I2C2_ER_IRQHandler                       0x0800011b   Thumb Code     0  startup_stm32f103xb.o(.text)
    I2C2_EV_IRQHandler                       0x0800011b   Thumb Code     0  startup_stm32f103xb.o(.text)
    PVD_IRQHandler                           0x0800011b   Thumb Code     0  startup_stm32f103xb.o(.text)
    RCC_IRQHandler                           0x0800011b   Thumb Code     0  startup_stm32f103xb.o(.text)
    RTC_Alarm_IRQHandler                     0x0800011b   Thumb Code     0  startup_stm32f103xb.o(.text)
    RTC_IRQHandler                           0x0800011b   Thumb Code     0  startup_stm32f103xb.o(.text)
    SPI1_IRQHandler                          0x0800011b   Thumb Code     0  startup_stm32f103xb.o(.text)
    SPI2_IRQHandler                          0x0800011b   Thumb Code     0  startup_stm32f103xb.o(.text)
    TAMPER_IRQHandler                        0x0800011b   Thumb Code     0  startup_stm32f103xb.o(.text)
    TIM1_BRK_IRQHandler                      0x0800011b   Thumb Code     0  startup_stm32f103xb.o(.text)
    TIM1_CC_IRQHandler                       0x0800011b   Thumb Code     0  startup_stm32f103xb.o(.text)
    TIM1_TRG_COM_IRQHandler                  0x0800011b   Thumb Code     0  startup_stm32f103xb.o(.text)
    TIM1_UP_IRQHandler                       0x0800011b   Thumb Code     0  startup_stm32f103xb.o(.text)
    TIM2_IRQHandler                          0x0800011b   Thumb Code     0  startup_stm32f103xb.o(.text)
    TIM4_IRQHandler                          0x0800011b   Thumb Code     0  startup_stm32f103xb.o(.text)
    USART1_IRQHandler                        0x0800011b   Thumb Code     0  startup_stm32f103xb.o(.text)
    USART3_IRQHandler                        0x0800011b   Thumb Code     0  startup_stm32f103xb.o(.text)
    USBWakeUp_IRQHandler                     0x0800011b   Thumb Code     0  startup_stm32f103xb.o(.text)
    USB_HP_CAN1_TX_IRQHandler                0x0800011b   Thumb Code     0  startup_stm32f103xb.o(.text)
    WWDG_IRQHandler                          0x0800011b   Thumb Code     0  startup_stm32f103xb.o(.text)
    __aeabi_llsr                             0x08000125   Thumb Code    32  llushr.o(.text)
    _ll_ushift_r                             0x08000125   Thumb Code     0  llushr.o(.text)
    rand                                     0x08000145   Thumb Code    20  rand.o(.text)
    srand                                    0x08000159   Thumb Code     6  rand.o(.text)
    __aeabi_memcpy                           0x08000169   Thumb Code    36  memcpya.o(.text)
    __aeabi_memcpy4                          0x08000169   Thumb Code     0  memcpya.o(.text)
    __aeabi_memcpy8                          0x08000169   Thumb Code     0  memcpya.o(.text)
    __aeabi_memset                           0x0800018d   Thumb Code    14  memseta.o(.text)
    __aeabi_memset4                          0x0800018d   Thumb Code     0  memseta.o(.text)
    __aeabi_memset8                          0x0800018d   Thumb Code     0  memseta.o(.text)
    __aeabi_memclr                           0x0800019b   Thumb Code     4  memseta.o(.text)
    __aeabi_memclr4                          0x0800019b   Thumb Code     0  memseta.o(.text)
    __aeabi_memclr8                          0x0800019b   Thumb Code     0  memseta.o(.text)
    _memset$wrapper                          0x0800019f   Thumb Code    18  memseta.o(.text)
    calloc                                   0x080001b1   Thumb Code    28  calloc.o(.text)
    __aeabi_uidiv                            0x080001cd   Thumb Code     0  uidiv.o(.text)
    __aeabi_uidivmod                         0x080001cd   Thumb Code    44  uidiv.o(.text)
    __aeabi_uldivmod                         0x080001f9   Thumb Code    98  uldiv.o(.text)
    __I$use$fp                               0x0800025b   Thumb Code     0  iusefp.o(.text)
    __aeabi_dadd                             0x0800025b   Thumb Code   322  dadd.o(.text)
    __aeabi_dsub                             0x0800039d   Thumb Code     6  dadd.o(.text)
    __aeabi_drsub                            0x080003a3   Thumb Code     6  dadd.o(.text)
    __aeabi_dmul                             0x080003a9   Thumb Code   228  dmul.o(.text)
    __aeabi_ddiv                             0x0800048d   Thumb Code   222  ddiv.o(.text)
    __aeabi_d2ulz                            0x0800056b   Thumb Code    48  dfixul.o(.text)
    __aeabi_cdrcmple                         0x0800059d   Thumb Code    48  cdrcmple.o(.text)
    __scatterload                            0x080005cd   Thumb Code    28  init.o(.text)
    __scatterload_rt2                        0x080005cd   Thumb Code     0  init.o(.text)
    __aeabi_llsl                             0x080005f1   Thumb Code    30  llshl.o(.text)
    _ll_shift_l                              0x080005f1   Thumb Code     0  llshl.o(.text)
    __aeabi_lasr                             0x0800060f   Thumb Code    36  llsshr.o(.text)
    _ll_sshift_r                             0x0800060f   Thumb Code     0  llsshr.o(.text)
    _double_round                            0x08000633   Thumb Code    30  depilogue.o(.text)
    _double_epilogue                         0x08000651   Thumb Code   156  depilogue.o(.text)
    __decompress                             0x080006ed   Thumb Code     0  __dczerorl2.o(.text)
    __decompress1                            0x080006ed   Thumb Code    86  __dczerorl2.o(.text)
    BinaryOp                                 0x08000745   Thumb Code    98  user_script_handle.o(i.BinaryOp)
    BusFault_Handler                         0x080007ad   Thumb Code     2  stm32f1xx_it.o(i.BusFault_Handler)
    DebugMon_Handler                         0x080007bb   Thumb Code     2  stm32f1xx_it.o(i.DebugMon_Handler)
    Error_Handler                            0x080007bd   Thumb Code     4  main.o(i.Error_Handler)
    FLASH_PageErase                          0x080007e5   Thumb Code    28  stm32f1xx_hal_flash_ex.o(i.FLASH_PageErase)
    FLASH_WaitForLastOperation               0x08000881   Thumb Code    80  stm32f1xx_hal_flash.o(i.FLASH_WaitForLastOperation)
    HAL_DMA_Abort                            0x080008d5   Thumb Code    70  stm32f1xx_hal_dma.o(i.HAL_DMA_Abort)
    HAL_DMA_Abort_IT                         0x0800091d   Thumb Code   148  stm32f1xx_hal_dma.o(i.HAL_DMA_Abort_IT)
    HAL_Delay                                0x080009b5   Thumb Code    32  stm32f1xx_hal.o(i.HAL_Delay)
    HAL_FLASHEx_Erase                        0x080009d9   Thumb Code   160  stm32f1xx_hal_flash_ex.o(i.HAL_FLASHEx_Erase)
    HAL_FLASH_Program                        0x08000a81   Thumb Code   120  stm32f1xx_hal_flash.o(i.HAL_FLASH_Program)
    HAL_FLASH_Unlock                         0x08000b01   Thumb Code    28  stm32f1xx_hal_flash.o(i.HAL_FLASH_Unlock)
    HAL_GPIO_Init                            0x08000b29   Thumb Code   446  stm32f1xx_hal_gpio.o(i.HAL_GPIO_Init)
    HAL_GPIO_WritePin                        0x08000d09   Thumb Code    10  stm32f1xx_hal_gpio.o(i.HAL_GPIO_WritePin)
    HAL_GetTick                              0x08000d15   Thumb Code     6  stm32f1xx_hal.o(i.HAL_GetTick)
    HAL_IncTick                              0x08000d21   Thumb Code    12  stm32f1xx_hal.o(i.HAL_IncTick)
    HAL_Init                                 0x08000d31   Thumb Code    32  stm32f1xx_hal.o(i.HAL_Init)
    HAL_InitTick                             0x08000d55   Thumb Code    54  stm32f1xx_hal.o(i.HAL_InitTick)
    HAL_MspInit                              0x08000d95   Thumb Code    52  stm32f1xx_hal_msp.o(i.HAL_MspInit)
    HAL_NVIC_EnableIRQ                       0x08000dd1   Thumb Code    26  stm32f1xx_hal_cortex.o(i.HAL_NVIC_EnableIRQ)
    HAL_NVIC_SetPriority                     0x08000ded   Thumb Code    60  stm32f1xx_hal_cortex.o(i.HAL_NVIC_SetPriority)
    HAL_NVIC_SetPriorityGrouping             0x08000e2d   Thumb Code    26  stm32f1xx_hal_cortex.o(i.HAL_NVIC_SetPriorityGrouping)
    HAL_PCDEx_PMAConfig                      0x08000e51   Thumb Code    60  stm32f1xx_hal_pcd_ex.o(i.HAL_PCDEx_PMAConfig)
    HAL_PCDEx_SetConnectionState             0x08000e8d   Thumb Code     2  usbd_conf.o(i.HAL_PCDEx_SetConnectionState)
    HAL_PCD_DataInStageCallback              0x08000e8f   Thumb Code    18  usbd_conf.o(i.HAL_PCD_DataInStageCallback)
    HAL_PCD_DataOutStageCallback             0x08000ea1   Thumb Code    20  usbd_conf.o(i.HAL_PCD_DataOutStageCallback)
    HAL_PCD_EP_Close                         0x08000eb5   Thumb Code    76  stm32f1xx_hal_pcd.o(i.HAL_PCD_EP_Close)
    HAL_PCD_EP_ClrStall                      0x08000f01   Thumb Code    92  stm32f1xx_hal_pcd.o(i.HAL_PCD_EP_ClrStall)
    HAL_PCD_EP_Open                          0x08001373   Thumb Code    96  stm32f1xx_hal_pcd.o(i.HAL_PCD_EP_Open)
    HAL_PCD_EP_Receive                       0x080013d3   Thumb Code    50  stm32f1xx_hal_pcd.o(i.HAL_PCD_EP_Receive)
    HAL_PCD_EP_SetStall                      0x08001405   Thumb Code   114  stm32f1xx_hal_pcd.o(i.HAL_PCD_EP_SetStall)
    HAL_PCD_EP_Transmit                      0x08001477   Thumb Code    52  stm32f1xx_hal_pcd.o(i.HAL_PCD_EP_Transmit)
    HAL_PCD_IRQHandler                       0x080014ab   Thumb Code   340  stm32f1xx_hal_pcd.o(i.HAL_PCD_IRQHandler)
    HAL_PCD_Init                             0x08001601   Thumb Code   218  stm32f1xx_hal_pcd.o(i.HAL_PCD_Init)
    HAL_PCD_MspInit                          0x080016dd   Thumb Code    50  usbd_conf.o(i.HAL_PCD_MspInit)
    HAL_PCD_ResetCallback                    0x08001719   Thumb Code    38  usbd_conf.o(i.HAL_PCD_ResetCallback)
    HAL_PCD_ResumeCallback                   0x0800173f   Thumb Code     8  usbd_conf.o(i.HAL_PCD_ResumeCallback)
    HAL_PCD_SOFCallback                      0x08001747   Thumb Code     8  usbd_conf.o(i.HAL_PCD_SOFCallback)
    HAL_PCD_SetAddress                       0x0800174f   Thumb Code    40  stm32f1xx_hal_pcd.o(i.HAL_PCD_SetAddress)
    HAL_PCD_SetupStageCallback               0x08001777   Thumb Code    14  usbd_conf.o(i.HAL_PCD_SetupStageCallback)
    HAL_PCD_Start                            0x08001785   Thumb Code    50  stm32f1xx_hal_pcd.o(i.HAL_PCD_Start)
    HAL_PCD_SuspendCallback                  0x080017b9   Thumb Code    30  usbd_conf.o(i.HAL_PCD_SuspendCallback)
    HAL_RCCEx_PeriphCLKConfig                0x080017dd   Thumb Code   224  stm32f1xx_hal_rcc_ex.o(i.HAL_RCCEx_PeriphCLKConfig)
    HAL_RCC_ClockConfig                      0x080018c9   Thumb Code   280  stm32f1xx_hal_rcc.o(i.HAL_RCC_ClockConfig)
    HAL_RCC_GetPCLK1Freq                     0x080019f5   Thumb Code    20  stm32f1xx_hal_rcc.o(i.HAL_RCC_GetPCLK1Freq)
    HAL_RCC_GetPCLK2Freq                     0x08001a15   Thumb Code    20  stm32f1xx_hal_rcc.o(i.HAL_RCC_GetPCLK2Freq)
    HAL_RCC_GetSysClockFreq                  0x08001a35   Thumb Code    74  stm32f1xx_hal_rcc.o(i.HAL_RCC_GetSysClockFreq)
    HAL_RCC_OscConfig                        0x08001aa1   Thumb Code   778  stm32f1xx_hal_rcc.o(i.HAL_RCC_OscConfig)
    HAL_SYSTICK_Config                       0x08001dc1   Thumb Code    40  stm32f1xx_hal_cortex.o(i.HAL_SYSTICK_Config)
    HAL_TIMEx_BreakCallback                  0x08001de9   Thumb Code     2  stm32f1xx_hal_tim_ex.o(i.HAL_TIMEx_BreakCallback)
    HAL_TIMEx_CommutCallback                 0x08001deb   Thumb Code     2  stm32f1xx_hal_tim_ex.o(i.HAL_TIMEx_CommutCallback)
    HAL_TIMEx_MasterConfigSynchronization    0x08001ded   Thumb Code    92  stm32f1xx_hal_tim_ex.o(i.HAL_TIMEx_MasterConfigSynchronization)
    HAL_TIM_Base_Init                        0x08001e55   Thumb Code    90  stm32f1xx_hal_tim.o(i.HAL_TIM_Base_Init)
    HAL_TIM_Base_MspInit                     0x08001eb1   Thumb Code    50  stm32f1xx_hal_msp.o(i.HAL_TIM_Base_MspInit)
    HAL_TIM_Base_Start_IT                    0x08001eed   Thumb Code    76  stm32f1xx_hal_tim.o(i.HAL_TIM_Base_Start_IT)
    HAL_TIM_ConfigClockSource                0x08001f45   Thumb Code   214  stm32f1xx_hal_tim.o(i.HAL_TIM_ConfigClockSource)
    HAL_TIM_IC_CaptureCallback               0x0800201b   Thumb Code     2  stm32f1xx_hal_tim.o(i.HAL_TIM_IC_CaptureCallback)
    HAL_TIM_IRQHandler                       0x0800201d   Thumb Code   358  stm32f1xx_hal_tim.o(i.HAL_TIM_IRQHandler)
    HAL_TIM_OC_DelayElapsedCallback          0x08002183   Thumb Code     2  stm32f1xx_hal_tim.o(i.HAL_TIM_OC_DelayElapsedCallback)
    HAL_TIM_PWM_PulseFinishedCallback        0x08002185   Thumb Code     2  stm32f1xx_hal_tim.o(i.HAL_TIM_PWM_PulseFinishedCallback)
    HAL_TIM_PeriodElapsedCallback            0x08002189   Thumb Code    52  tim3_counter_handle.o(i.HAL_TIM_PeriodElapsedCallback)
    HAL_TIM_TriggerCallback                  0x080021cd   Thumb Code     2  stm32f1xx_hal_tim.o(i.HAL_TIM_TriggerCallback)
    HAL_UARTEx_RxEventCallback               0x080021cf   Thumb Code     2  stm32f1xx_hal_uart.o(i.HAL_UARTEx_RxEventCallback)
    HAL_UART_ErrorCallback                   0x080021d1   Thumb Code     2  stm32f1xx_hal_uart.o(i.HAL_UART_ErrorCallback)
    HAL_UART_IRQHandler                      0x080021d5   Thumb Code   520  stm32f1xx_hal_uart.o(i.HAL_UART_IRQHandler)
    HAL_UART_Init                            0x080023e1   Thumb Code    98  stm32f1xx_hal_uart.o(i.HAL_UART_Init)
    HAL_UART_MspInit                         0x08002445   Thumb Code   186  stm32f1xx_hal_msp.o(i.HAL_UART_MspInit)
    HAL_UART_Receive_IT                      0x08002511   Thumb Code    42  stm32f1xx_hal_uart.o(i.HAL_UART_Receive_IT)
    HAL_UART_RxCpltCallback                  0x0800253d   Thumb Code    40  uart2_main_handle.o(i.HAL_UART_RxCpltCallback)
    HAL_UART_Transmit                        0x08002575   Thumb Code   178  stm32f1xx_hal_uart.o(i.HAL_UART_Transmit)
    HAL_UART_TxCpltCallback                  0x08002627   Thumb Code     2  stm32f1xx_hal_uart.o(i.HAL_UART_TxCpltCallback)
    HardFault_Handler                        0x08002629   Thumb Code     2  stm32f1xx_it.o(i.HardFault_Handler)
    MX_USB_DEVICE_Init                       0x0800274d   Thumb Code    66  usb_device.o(i.MX_USB_DEVICE_Init)
    MemManage_Handler                        0x080027a1   Thumb Code     2  stm32f1xx_it.o(i.MemManage_Handler)
    NMI_Handler                              0x080027a3   Thumb Code     2  stm32f1xx_it.o(i.NMI_Handler)
    PendSV_Handler                           0x08002ab9   Thumb Code     2  stm32f1xx_it.o(i.PendSV_Handler)
    SVC_Handler                              0x08002abb   Thumb Code     2  stm32f1xx_it.o(i.SVC_Handler)
    SysTick_Handler                          0x08002abd   Thumb Code     4  stm32f1xx_it.o(i.SysTick_Handler)
    SystemClock_Config                       0x08002ac1   Thumb Code   118  main.o(i.SystemClock_Config)
    SystemInit                               0x08002b37   Thumb Code     2  system_stm32f1xx.o(i.SystemInit)
    TIM3_IRQHandler                          0x08002b39   Thumb Code     6  stm32f1xx_it.o(i.TIM3_IRQHandler)
    TIM_Base_SetConfig                       0x08002b45   Thumb Code    94  stm32f1xx_hal_tim.o(i.TIM_Base_SetConfig)
    TIM_ETR_SetConfig                        0x08002bb1   Thumb Code    20  stm32f1xx_hal_tim.o(i.TIM_ETR_SetConfig)
    UART_Start_Receive_IT                    0x08002dc9   Thumb Code    54  stm32f1xx_hal_uart.o(i.UART_Start_Receive_IT)
    USART2_IRQHandler                        0x08002e65   Thumb Code     6  stm32f1xx_it.o(i.USART2_IRQHandler)
    USBD_CUSTOM_HID_RegisterInterface        0x08002f81   Thumb Code    16  usbd_customhid.o(i.USBD_CUSTOM_HID_RegisterInterface)
    USBD_CUSTOM_HID_SendReport               0x08002f91   Thumb Code    44  usbd_customhid.o(i.USBD_CUSTOM_HID_SendReport)
    USBD_ClrClassConfig                      0x0800309d   Thumb Code    14  usbd_core.o(i.USBD_ClrClassConfig)
    USBD_CtlContinueRx                       0x080030ab   Thumb Code    16  usbd_ioreq.o(i.USBD_CtlContinueRx)
    USBD_CtlContinueSendData                 0x080030bb   Thumb Code    16  usbd_ioreq.o(i.USBD_CtlContinueSendData)
    USBD_CtlError                            0x080030cb   Thumb Code    22  usbd_ctlreq.o(i.USBD_CtlError)
    USBD_CtlPrepareRx                        0x080030e1   Thumb Code    30  usbd_ioreq.o(i.USBD_CtlPrepareRx)
    USBD_CtlReceiveStatus                    0x080030ff   Thumb Code    22  usbd_ioreq.o(i.USBD_CtlReceiveStatus)
    USBD_CtlSendData                         0x08003115   Thumb Code    26  usbd_ioreq.o(i.USBD_CtlSendData)
    USBD_CtlSendStatus                       0x0800312f   Thumb Code    22  usbd_ioreq.o(i.USBD_CtlSendStatus)
    USBD_FS_ConfigStrDescriptor              0x08003145   Thumb Code    16  usbd_desc.o(i.USBD_FS_ConfigStrDescriptor)
    USBD_FS_DeviceDescriptor                 0x0800316d   Thumb Code     8  usbd_desc.o(i.USBD_FS_DeviceDescriptor)
    USBD_FS_InterfaceStrDescriptor           0x08003179   Thumb Code    16  usbd_desc.o(i.USBD_FS_InterfaceStrDescriptor)
    USBD_FS_LangIDStrDescriptor              0x080031a5   Thumb Code     8  usbd_desc.o(i.USBD_FS_LangIDStrDescriptor)
    USBD_FS_ManufacturerStrDescriptor        0x080031b1   Thumb Code    16  usbd_desc.o(i.USBD_FS_ManufacturerStrDescriptor)
    USBD_FS_ProductStrDescriptor             0x080031d1   Thumb Code    16  usbd_desc.o(i.USBD_FS_ProductStrDescriptor)
    USBD_FS_SerialStrDescriptor              0x080031f5   Thumb Code    48  usbd_desc.o(i.USBD_FS_SerialStrDescriptor)
    USBD_GetString                           0x0800330d   Thumb Code    72  usbd_ctlreq.o(i.USBD_GetString)
    USBD_Init                                0x0800336d   Thumb Code    42  usbd_core.o(i.USBD_Init)
    USBD_LL_ClearStallEP                     0x08003397   Thumb Code    18  usbd_conf.o(i.USBD_LL_ClearStallEP)
    USBD_LL_CloseEP                          0x080033a9   Thumb Code    18  usbd_conf.o(i.USBD_LL_CloseEP)
    USBD_LL_DataInStage                      0x080033bb   Thumb Code   198  usbd_core.o(i.USBD_LL_DataInStage)
    USBD_LL_DataOutStage                     0x08003481   Thumb Code   130  usbd_core.o(i.USBD_LL_DataOutStage)
    USBD_LL_Init                             0x08003505   Thumb Code   104  usbd_conf.o(i.USBD_LL_Init)
    USBD_LL_IsStallEP                        0x08003575   Thumb Code    32  usbd_conf.o(i.USBD_LL_IsStallEP)
    USBD_LL_OpenEP                           0x08003595   Thumb Code    24  usbd_conf.o(i.USBD_LL_OpenEP)
    USBD_LL_PrepareReceive                   0x080035ad   Thumb Code    18  usbd_conf.o(i.USBD_LL_PrepareReceive)
    USBD_LL_Reset                            0x080035bf   Thumb Code    80  usbd_core.o(i.USBD_LL_Reset)
    USBD_LL_Resume                           0x0800360f   Thumb Code    20  usbd_core.o(i.USBD_LL_Resume)
    USBD_LL_SOF                              0x08003623   Thumb Code    24  usbd_core.o(i.USBD_LL_SOF)
    USBD_LL_SetSpeed                         0x0800363b   Thumb Code     6  usbd_core.o(i.USBD_LL_SetSpeed)
    USBD_LL_SetUSBAddress                    0x08003641   Thumb Code    18  usbd_conf.o(i.USBD_LL_SetUSBAddress)
    USBD_LL_SetupStage                       0x08003653   Thumb Code    90  usbd_core.o(i.USBD_LL_SetupStage)
    USBD_LL_StallEP                          0x080036ad   Thumb Code    18  usbd_conf.o(i.USBD_LL_StallEP)
    USBD_LL_Start                            0x080036bf   Thumb Code    18  usbd_conf.o(i.USBD_LL_Start)
    USBD_LL_Suspend                          0x080036d1   Thumb Code    18  usbd_core.o(i.USBD_LL_Suspend)
    USBD_LL_Transmit                         0x080036e3   Thumb Code    18  usbd_conf.o(i.USBD_LL_Transmit)
    USBD_ParseSetupRequest                   0x080036f5   Thumb Code    40  usbd_ctlreq.o(i.USBD_ParseSetupRequest)
    USBD_RegisterClass                       0x0800371d   Thumb Code    16  usbd_core.o(i.USBD_RegisterClass)
    USBD_SetClassConfig                      0x0800372d   Thumb Code    22  usbd_core.o(i.USBD_SetClassConfig)
    USBD_Start                               0x080037c9   Thumb Code    10  usbd_core.o(i.USBD_Start)
    USBD_StdDevReq                           0x080037d3   Thumb Code   274  usbd_ctlreq.o(i.USBD_StdDevReq)
    USBD_StdEPReq                            0x080038e5   Thumb Code   336  usbd_ctlreq.o(i.USBD_StdEPReq)
    USBD_StdItfReq                           0x08003a35   Thumb Code    78  usbd_ctlreq.o(i.USBD_StdItfReq)
    USBD_static_free                         0x08003a83   Thumb Code     2  usbd_conf.o(i.USBD_static_free)
    USBD_static_malloc                       0x08003a85   Thumb Code     4  usbd_conf.o(i.USBD_static_malloc)
    USB_ActivateEndpoint                     0x08003a8d   Thumb Code   600  stm32f1xx_ll_usb.o(i.USB_ActivateEndpoint)
    USB_CoreInit                             0x08003ce5   Thumb Code     4  stm32f1xx_ll_usb.o(i.USB_CoreInit)
    USB_DeactivateEndpoint                   0x08003ce9   Thumb Code   270  stm32f1xx_ll_usb.o(i.USB_DeactivateEndpoint)
    USB_DevConnect                           0x08003df7   Thumb Code     4  stm32f1xx_ll_usb.o(i.USB_DevConnect)
    USB_DevDisconnect                        0x08003dfb   Thumb Code     4  stm32f1xx_ll_usb.o(i.USB_DevDisconnect)
    USB_DevInit                              0x08003dff   Thumb Code    18  stm32f1xx_ll_usb.o(i.USB_DevInit)
    USB_DisableGlobalInt                     0x08003e11   Thumb Code    14  stm32f1xx_ll_usb.o(i.USB_DisableGlobalInt)
    USB_EP0_OutStart                         0x08003e1f   Thumb Code     4  stm32f1xx_ll_usb.o(i.USB_EP0_OutStart)
    USB_EPClearStall                         0x08003e23   Thumb Code   120  stm32f1xx_ll_usb.o(i.USB_EPClearStall)
    USB_EPSetStall                           0x08003e9b   Thumb Code    50  stm32f1xx_ll_usb.o(i.USB_EPSetStall)
    USB_EPStartXfer                          0x08003ecd   Thumb Code  1548  stm32f1xx_ll_usb.o(i.USB_EPStartXfer)
    USB_EnableGlobalInt                      0x080044d9   Thumb Code    18  stm32f1xx_ll_usb.o(i.USB_EnableGlobalInt)
    USB_LP_CAN1_RX0_IRQHandler               0x080044ed   Thumb Code     6  stm32f1xx_it.o(i.USB_LP_CAN1_RX0_IRQHandler)
    USB_ReadInterrupts                       0x080044f9   Thumb Code     6  stm32f1xx_ll_usb.o(i.USB_ReadInterrupts)
    USB_ReadPMA                              0x08004501   Thumb Code    44  stm32f1xx_ll_usb.o(i.USB_ReadPMA)
    USB_SetCurrentMode                       0x0800452d   Thumb Code     4  stm32f1xx_ll_usb.o(i.USB_SetCurrentMode)
    USB_SetDevAddress                        0x08004531   Thumb Code    12  stm32f1xx_ll_usb.o(i.USB_SetDevAddress)
    USB_WritePMA                             0x0800453d   Thumb Code    38  stm32f1xx_ll_usb.o(i.USB_WritePMA)
    UsageFault_Handler                       0x08004563   Thumb Code     2  stm32f1xx_it.o(i.UsageFault_Handler)
    __0printf                                0x08004565   Thumb Code    22  printfa.o(i.__0printf)
    __1printf                                0x08004565   Thumb Code     0  printfa.o(i.__0printf)
    __2printf                                0x08004565   Thumb Code     0  printfa.o(i.__0printf)
    __c89printf                              0x08004565   Thumb Code     0  printfa.o(i.__0printf)
    printf                                   0x08004565   Thumb Code     0  printfa.o(i.__0printf)
    __0vsprintf                              0x08004585   Thumb Code    30  printfa.o(i.__0vsprintf)
    __1vsprintf                              0x08004585   Thumb Code     0  printfa.o(i.__0vsprintf)
    __2vsprintf                              0x08004585   Thumb Code     0  printfa.o(i.__0vsprintf)
    __c89vsprintf                            0x08004585   Thumb Code     0  printfa.o(i.__0vsprintf)
    vsprintf                                 0x08004585   Thumb Code     0  printfa.o(i.__0vsprintf)
    __scatterload_copy                       0x080045c9   Thumb Code    14  handlers.o(i.__scatterload_copy)
    __scatterload_null                       0x080045d7   Thumb Code     2  handlers.o(i.__scatterload_null)
    __scatterload_zeroinit                   0x080045d9   Thumb Code    14  handlers.o(i.__scatterload_zeroinit)
    ecScript_handle                          0x08004ea5   Thumb Code  2096  user_script_handle.o(i.ecScript_handle)
    ecScript_init                            0x080056d9   Thumb Code   154  user_script_handle.o(i.ecScript_init)
    ecScript_start                           0x08005781   Thumb Code    38  user_script_handle.o(i.ecScript_start)
    ecScript_stop                            0x080057b5   Thumb Code    14  user_script_handle.o(i.ecScript_stop)
    flash_ecScript_read8B                    0x080057c9   Thumb Code    10  flash_handle.o(i.flash_ecScript_read8B)
    flash_ecScript_resetWriteAddr            0x080057d9   Thumb Code    14  flash_handle.o(i.flash_ecScript_resetWriteAddr)
    flash_ecScript_write8B                   0x08005805   Thumb Code   160  flash_handle.o(i.flash_ecScript_write8B)
    flash_userVal_init                       0x080058c5   Thumb Code    20  flash_handle.o(i.flash_userVal_init)
    flash_userVal_write                      0x080058f5   Thumb Code    36  flash_handle.o(i.flash_userVal_write)
    flash_write16B                           0x08005931   Thumb Code     8  flash_handle.o(i.flash_write16B)
    flash_write32B                           0x08005939   Thumb Code     8  flash_handle.o(i.flash_write32B)
    flash_writeErase                         0x08005941   Thumb Code    28  flash_handle.o(i.flash_writeErase)
    flash_writeUnlock                        0x0800595d   Thumb Code    10  flash_handle.o(i.flash_writeUnlock)
    fputc                                    0x0800596d   Thumb Code    24  uart1_debug_handle.o(i.fputc)
    free                                     0x08005989   Thumb Code    76  malloc.o(i.free)
    ledb_off                                 0x080059d9   Thumb Code    10  ledb_handle.o(i.ledb_off)
    ledb_on                                  0x080059e9   Thumb Code    12  ledb_handle.o(i.ledb_on)
    ledb_test                                0x080059f9   Thumb Code    32  ledb_handle.o(i.ledb_test)
    main                                     0x08005a19   Thumb Code   208  main.o(i.main)
    malloc                                   0x08005b6d   Thumb Code    92  malloc.o(i.malloc)
    printx                                   0x08005bd9   Thumb Code    46  uart1_debug_handle.o(i.printx)
    tim3_nvic_init                           0x08005c0d   Thumb Code    38  tim3_counter_handle.o(i.tim3_nvic_init)
    umain_cmd_handle                         0x08005c4d   Thumb Code   132  uart2_main_handle.o(i.umain_cmd_handle)
    umain_handle                             0x08005cfd   Thumb Code   190  uart2_main_handle.o(i.umain_handle)
    umain_nvic_init                          0x08005de1   Thumb Code    42  uart2_main_handle.o(i.umain_nvic_init)
    umain_script_handle                      0x08005e25   Thumb Code   146  uart2_main_handle.o(i.umain_script_handle)
    umain_send8B                             0x08005f0d   Thumb Code    66  uart2_main_handle.o(i.umain_send8B)
    umain_sendCmd                            0x08005f6d   Thumb Code    44  uart2_main_handle.o(i.umain_sendCmd)
    umain_trans_handle                       0x08005fb1   Thumb Code   142  uart2_main_handle.o(i.umain_trans_handle)
    usbd_gp_init                             0x08006079   Thumb Code    30  usbd_gp_handle.o(i.usbd_gp_init)
    usbd_send                                0x0800609d   Thumb Code    80  usbd_gp_handle.o(i.usbd_send)
    usbd_serialcon_input_handle              0x08006125   Thumb Code    46  usbd_gp_handle.o(i.usbd_serialcon_input_handle)
    user_ringBufferData_in                   0x08006159   Thumb Code    54  user_ringbuffer_handle.o(i.user_ringBufferData_in)
    user_ringBufferData_out                  0x08006195   Thumb Code    44  user_ringbuffer_handle.o(i.user_ringBufferData_out)
    user_ringbuffer_init                     0x080061c5   Thumb Code    40  user_ringbuffer_handle.o(i.user_ringbuffer_init)
    AHBPrescTable                            0x0800621c   Data          16  system_stm32f1xx.o(.constdata)
    APBPrescTable                            0x0800622c   Data           8  system_stm32f1xx.o(.constdata)
    Region$$Table$$Base                      0x080062a8   Number         0  anon$$obj.o(Region$$Table)
    Region$$Table$$Limit                     0x080062c8   Number         0  anon$$obj.o(Region$$Table)
    TAG_INIT                                 0x20000000   Data           4  main.o(.data)
    FS_Desc                                  0x20000004   Data          28  usbd_desc.o(.data)
    USBD_LangIDDesc                          0x20000020   Data           4  usbd_desc.o(.data)
    USBD_FS_DeviceDesc                       0x20000024   Data          18  usbd_desc.o(.data)
    USBD_StringSerial                        0x20000038   Data          26  usbd_desc.o(.data)
    USBD_CustomHID_fops_FS                   0x200000ac   Data          16  usbd_custom_hid_if.o(.data)
    uwTickFreq                               0x200000bc   Data           1  stm32f1xx_hal.o(.data)
    uwTickPrio                               0x200000c0   Data           4  stm32f1xx_hal.o(.data)
    uwTick                                   0x200000c4   Data           4  stm32f1xx_hal.o(.data)
    SystemCoreClock                          0x200000c8   Data           4  system_stm32f1xx.o(.data)
    USBD_CUSTOM_HID                          0x200000d0   Data          56  usbd_customhid.o(.data)
    TAG_USBD                                 0x200001ac   Data           4  usbd_gp_handle.o(.data)
    TAG_SEND_BUF                             0x200001b0   Data           4  usbd_gp_handle.o(.data)
    TAG_SEND_RAW_BUF                         0x200001b4   Data           4  usbd_gp_handle.o(.data)
    TAG_SEND_INIT_BUF                        0x200001b8   Data           4  usbd_gp_handle.o(.data)
    send_buf                                 0x200001bc   Data           8  usbd_gp_handle.o(.data)
    send_initbuf                             0x200001c4   Data           8  usbd_gp_handle.o(.data)
    rxTemp                                   0x200001cc   Data           1  uart2_main_handle.o(.data)
    rxCache                                  0x200001cd   Data           1  uart2_main_handle.o(.data)
    rxTail                                   0x200001ce   Data           1  uart2_main_handle.o(.data)
    rxScript_Flag                            0x200001cf   Data           1  uart2_main_handle.o(.data)
    HAT                                      0x200001d0   Data           1  uart2_main_handle.o(.data)
    LX                                       0x200001d1   Data           1  uart2_main_handle.o(.data)
    LY                                       0x200001d2   Data           1  uart2_main_handle.o(.data)
    RX                                       0x200001d3   Data           1  uart2_main_handle.o(.data)
    RY                                       0x200001d4   Data           1  uart2_main_handle.o(.data)
    rxScAddr                                 0x200001d6   Data           2  uart2_main_handle.o(.data)
    rxScLen                                  0x200001d8   Data           2  uart2_main_handle.o(.data)
    rxScAddr_last                            0x200001da   Data           2  uart2_main_handle.o(.data)
    TAG_UMAIN                                0x200001dc   Data           4  uart2_main_handle.o(.data)
    TAG_CMD                                  0x200001e0   Data           4  uart2_main_handle.o(.data)
    TAG_RECV                                 0x200001e4   Data           4  uart2_main_handle.o(.data)
    TAG_SEND                                 0x200001e8   Data           4  uart2_main_handle.o(.data)
    Button                                   0x200001ec   Data           4  uart2_main_handle.o(.data)
    fl_LockState_Flag                        0x200001f0   Data           1  flash_handle.o(.data)
    ec_seed                                  0x200001f2   Data           2  flash_handle.o(.data)
    TAG_FLASH                                0x200001f4   Data           4  flash_handle.o(.data)
    fl_ecScWrite_Addr                        0x200001f8   Data           4  flash_handle.o(.data)
    TAG_RINGBUFFER                           0x200001fc   Data           4  user_ringbuffer_handle.o(.data)
    TAG_TIM3                                 0x20000214   Data           4  tim3_counter_handle.o(.data)
    tim3_globolTick                          0x20000218   Data           4  tim3_counter_handle.o(.data)
    ecScript_Flag                            0x2000021c   Data           1  user_script_handle.o(.data)
    ecScript_HAT                             0x2000021d   Data           1  user_script_handle.o(.data)
    ecScript_LX                              0x2000021e   Data           1  user_script_handle.o(.data)
    ecScript_LY                              0x2000021f   Data           1  user_script_handle.o(.data)
    ecScript_RX                              0x20000220   Data           1  user_script_handle.o(.data)
    ecScript_RY                              0x20000221   Data           1  user_script_handle.o(.data)
    tail_wait                                0x20000222   Data           2  user_script_handle.o(.data)
    TAG_SCRIPT                               0x20000224   Data           4  user_script_handle.o(.data)
    timer_ms                                 0x20000228   Data           4  user_script_handle.o(.data)
    wait_ms                                  0x2000022c   Data           4  user_script_handle.o(.data)
    ecScript_Button                          0x20000230   Data           4  user_script_handle.o(.data)
    script_addr                              0x20000234   Data           4  user_script_handle.o(.data)
    timer_elapsed                            0x20000238   Data           4  user_script_handle.o(.data)
    __stdout                                 0x20000240   Data           4  stdout.o(.data)
    __microlib_freelist                      0x20000244   Data           4  mvars.o(.data)
    __microlib_freelist_initialised          0x20000248   Data           4  mvars.o(.data)
    htim3                                    0x2000024c   Data          72  main.o(.bss)
    huart1                                   0x20000294   Data          68  main.o(.bss)
    huart2                                   0x200002d8   Data          68  main.o(.bss)
    hUsbDeviceFS                             0x2000031c   Data         708  usb_device.o(.bss)
    USBD_StrDesc                             0x200005e0   Data         512  usbd_desc.o(.bss)
    hpcd_USB_FS                              0x20000850   Data         748  usbd_conf.o(.bss)
    pFlash                                   0x20000b40   Data          32  stm32f1xx_hal_flash.o(.bss)
    rxBuffer                                 0x20000b60   Data          20  uart2_main_handle.o(.bss)
    mem                                      0x20000b74   Data         900  user_script_handle.o(.bss)
    __heap_base                              0x20000ef8   Data           0  startup_stm32f103xb.o(HEAP)
    __heap_limit                             0x200010f8   Data           0  startup_stm32f103xb.o(HEAP)
    __initial_sp                             0x200014f8   Data           0  startup_stm32f103xb.o(STACK)



==============================================================================

Memory Map of the image

  Image Entry point : 0x080000ed

  Load Region LR_IROM1 (Base: 0x08000000, Size: 0x00006514, Max: 0x00010000, ABSOLUTE, COMPRESSED[0x00006408])

    Execution Region ER_IROM1 (Exec base: 0x08000000, Load base: 0x08000000, Size: 0x000062c8, Max: 0x00010000, ABSOLUTE)

    Exec Addr    Load Addr    Size         Type   Attr      Idx    E Section Name        Object

    0x08000000   0x08000000   0x000000ec   Data   RO            3    RESET               startup_stm32f103xb.o
    0x080000ec   0x080000ec   0x00000000   Code   RO         4496  * .ARM.Collect$$$$00000000  mc_w.l(entry.o)
    0x080000ec   0x080000ec   0x00000004   Code   RO         4801    .ARM.Collect$$$$00000001  mc_w.l(entry2.o)
    0x080000f0   0x080000f0   0x00000004   Code   RO         4804    .ARM.Collect$$$$00000004  mc_w.l(entry5.o)
    0x080000f4   0x080000f4   0x00000000   Code   RO         4806    .ARM.Collect$$$$00000008  mc_w.l(entry7b.o)
    0x080000f4   0x080000f4   0x00000000   Code   RO         4808    .ARM.Collect$$$$0000000A  mc_w.l(entry8b.o)
    0x080000f4   0x080000f4   0x00000008   Code   RO         4809    .ARM.Collect$$$$0000000B  mc_w.l(entry9a.o)
    0x080000fc   0x080000fc   0x00000000   Code   RO         4811    .ARM.Collect$$$$0000000D  mc_w.l(entry10a.o)
    0x080000fc   0x080000fc   0x00000000   Code   RO         4813    .ARM.Collect$$$$0000000F  mc_w.l(entry11a.o)
    0x080000fc   0x080000fc   0x00000004   Code   RO         4802    .ARM.Collect$$$$00002712  mc_w.l(entry2.o)
    0x08000100   0x08000100   0x00000024   Code   RO            4    .text               startup_stm32f103xb.o
    0x08000124   0x08000124   0x00000020   Code   RO         4499    .text               mc_w.l(llushr.o)
    0x08000144   0x08000144   0x00000024   Code   RO         4501    .text               mc_w.l(rand.o)
    0x08000168   0x08000168   0x00000024   Code   RO         4504    .text               mc_w.l(memcpya.o)
    0x0800018c   0x0800018c   0x00000024   Code   RO         4506    .text               mc_w.l(memseta.o)
    0x080001b0   0x080001b0   0x0000001c   Code   RO         4799    .text               mc_w.l(calloc.o)
    0x080001cc   0x080001cc   0x0000002c   Code   RO         4816    .text               mc_w.l(uidiv.o)
    0x080001f8   0x080001f8   0x00000062   Code   RO         4818    .text               mc_w.l(uldiv.o)
    0x0800025a   0x0800025a   0x00000000   Code   RO         4822    .text               mc_w.l(iusefp.o)
    0x0800025a   0x0800025a   0x0000014e   Code   RO         4823    .text               mf_w.l(dadd.o)
    0x080003a8   0x080003a8   0x000000e4   Code   RO         4825    .text               mf_w.l(dmul.o)
    0x0800048c   0x0800048c   0x000000de   Code   RO         4827    .text               mf_w.l(ddiv.o)
    0x0800056a   0x0800056a   0x00000030   Code   RO         4829    .text               mf_w.l(dfixul.o)
    0x0800059a   0x0800059a   0x00000002   PAD
    0x0800059c   0x0800059c   0x00000030   Code   RO         4831    .text               mf_w.l(cdrcmple.o)
    0x080005cc   0x080005cc   0x00000024   Code   RO         4833    .text               mc_w.l(init.o)
    0x080005f0   0x080005f0   0x0000001e   Code   RO         4835    .text               mc_w.l(llshl.o)
    0x0800060e   0x0800060e   0x00000024   Code   RO         4837    .text               mc_w.l(llsshr.o)
    0x08000632   0x08000632   0x000000ba   Code   RO         4839    .text               mf_w.l(depilogue.o)
    0x080006ec   0x080006ec   0x00000056   Code   RO         4849    .text               mc_w.l(__dczerorl2.o)
    0x08000742   0x08000742   0x00000002   PAD
    0x08000744   0x08000744   0x00000068   Code   RO         4439    i.BinaryOp          user_script_handle.o
    0x080007ac   0x080007ac   0x00000002   Code   RO          221    i.BusFault_Handler  stm32f1xx_it.o
    0x080007ae   0x080007ae   0x00000004   Code   RO          505    i.CUSTOM_HID_DeInit_FS  usbd_custom_hid_if.o
    0x080007b2   0x080007b2   0x00000004   Code   RO          506    i.CUSTOM_HID_Init_FS  usbd_custom_hid_if.o
    0x080007b6   0x080007b6   0x00000004   Code   RO          507    i.CUSTOM_HID_OutEvent_FS  usbd_custom_hid_if.o
    0x080007ba   0x080007ba   0x00000002   Code   RO          222    i.DebugMon_Handler  stm32f1xx_it.o
    0x080007bc   0x080007bc   0x00000004   Code   RO           13    i.Error_Handler     main.o
    0x080007c0   0x080007c0   0x00000024   Code   RO         2065    i.FLASH_MassErase   stm32f1xx_hal_flash_ex.o
    0x080007e4   0x080007e4   0x00000024   Code   RO         2070    i.FLASH_PageErase   stm32f1xx_hal_flash_ex.o
    0x08000808   0x08000808   0x0000001c   Code   RO         1962    i.FLASH_Program_HalfWord  stm32f1xx_hal_flash.o
    0x08000824   0x08000824   0x0000005c   Code   RO         1963    i.FLASH_SetErrorCode  stm32f1xx_hal_flash.o
    0x08000880   0x08000880   0x00000054   Code   RO         1964    i.FLASH_WaitForLastOperation  stm32f1xx_hal_flash.o
    0x080008d4   0x080008d4   0x00000046   Code   RO         1626    i.HAL_DMA_Abort     stm32f1xx_hal_dma.o
    0x0800091a   0x0800091a   0x00000002   PAD
    0x0800091c   0x0800091c   0x00000098   Code   RO         1627    i.HAL_DMA_Abort_IT  stm32f1xx_hal_dma.o
    0x080009b4   0x080009b4   0x00000024   Code   RO         1254    i.HAL_Delay         stm32f1xx_hal.o
    0x080009d8   0x080009d8   0x000000a8   Code   RO         2071    i.HAL_FLASHEx_Erase  stm32f1xx_hal_flash_ex.o
    0x08000a80   0x08000a80   0x00000080   Code   RO         1973    i.HAL_FLASH_Program  stm32f1xx_hal_flash.o
    0x08000b00   0x08000b00   0x00000028   Code   RO         1975    i.HAL_FLASH_Unlock  stm32f1xx_hal_flash.o
    0x08000b28   0x08000b28   0x000001e0   Code   RO         1562    i.HAL_GPIO_Init     stm32f1xx_hal_gpio.o
    0x08000d08   0x08000d08   0x0000000a   Code   RO         1566    i.HAL_GPIO_WritePin  stm32f1xx_hal_gpio.o
    0x08000d12   0x08000d12   0x00000002   PAD
    0x08000d14   0x08000d14   0x0000000c   Code   RO         1258    i.HAL_GetTick       stm32f1xx_hal.o
    0x08000d20   0x08000d20   0x00000010   Code   RO         1264    i.HAL_IncTick       stm32f1xx_hal.o
    0x08000d30   0x08000d30   0x00000024   Code   RO         1265    i.HAL_Init          stm32f1xx_hal.o
    0x08000d54   0x08000d54   0x00000040   Code   RO         1266    i.HAL_InitTick      stm32f1xx_hal.o
    0x08000d94   0x08000d94   0x0000003c   Code   RO          323    i.HAL_MspInit       stm32f1xx_hal_msp.o
    0x08000dd0   0x08000dd0   0x0000001a   Code   RO         1722    i.HAL_NVIC_EnableIRQ  stm32f1xx_hal_cortex.o
    0x08000dea   0x08000dea   0x00000002   PAD
    0x08000dec   0x08000dec   0x00000040   Code   RO         1728    i.HAL_NVIC_SetPriority  stm32f1xx_hal_cortex.o
    0x08000e2c   0x08000e2c   0x00000024   Code   RO         1729    i.HAL_NVIC_SetPriorityGrouping  stm32f1xx_hal_cortex.o
    0x08000e50   0x08000e50   0x0000003c   Code   RO         1027    i.HAL_PCDEx_PMAConfig  stm32f1xx_hal_pcd_ex.o
    0x08000e8c   0x08000e8c   0x00000002   Code   RO          546    i.HAL_PCDEx_SetConnectionState  usbd_conf.o
    0x08000e8e   0x08000e8e   0x00000012   Code   RO          548    i.HAL_PCD_DataInStageCallback  usbd_conf.o
    0x08000ea0   0x08000ea0   0x00000014   Code   RO          549    i.HAL_PCD_DataOutStageCallback  usbd_conf.o
    0x08000eb4   0x08000eb4   0x0000004c   Code   RO          803    i.HAL_PCD_EP_Close  stm32f1xx_hal_pcd.o
    0x08000f00   0x08000f00   0x0000005c   Code   RO          804    i.HAL_PCD_EP_ClrStall  stm32f1xx_hal_pcd.o
    0x08000f5c   0x08000f5c   0x000000e6   Code   RO          805    i.HAL_PCD_EP_DB_Receive  stm32f1xx_hal_pcd.o
    0x08001042   0x08001042   0x00000330   Code   RO          806    i.HAL_PCD_EP_DB_Transmit  stm32f1xx_hal_pcd.o
    0x08001372   0x08001372   0x00000060   Code   RO          809    i.HAL_PCD_EP_Open   stm32f1xx_hal_pcd.o
    0x080013d2   0x080013d2   0x00000032   Code   RO          810    i.HAL_PCD_EP_Receive  stm32f1xx_hal_pcd.o
    0x08001404   0x08001404   0x00000072   Code   RO          811    i.HAL_PCD_EP_SetStall  stm32f1xx_hal_pcd.o
    0x08001476   0x08001476   0x00000034   Code   RO          812    i.HAL_PCD_EP_Transmit  stm32f1xx_hal_pcd.o
    0x080014aa   0x080014aa   0x00000154   Code   RO          814    i.HAL_PCD_IRQHandler  stm32f1xx_hal_pcd.o
    0x080015fe   0x080015fe   0x00000002   PAD
    0x08001600   0x08001600   0x000000da   Code   RO          817    i.HAL_PCD_Init      stm32f1xx_hal_pcd.o
    0x080016da   0x080016da   0x00000002   PAD
    0x080016dc   0x080016dc   0x0000003c   Code   RO          554    i.HAL_PCD_MspInit   usbd_conf.o
    0x08001718   0x08001718   0x00000026   Code   RO          555    i.HAL_PCD_ResetCallback  usbd_conf.o
    0x0800173e   0x0800173e   0x00000008   Code   RO          556    i.HAL_PCD_ResumeCallback  usbd_conf.o
    0x08001746   0x08001746   0x00000008   Code   RO          557    i.HAL_PCD_SOFCallback  usbd_conf.o
    0x0800174e   0x0800174e   0x00000028   Code   RO          823    i.HAL_PCD_SetAddress  stm32f1xx_hal_pcd.o
    0x08001776   0x08001776   0x0000000e   Code   RO          558    i.HAL_PCD_SetupStageCallback  usbd_conf.o
    0x08001784   0x08001784   0x00000032   Code   RO          825    i.HAL_PCD_Start     stm32f1xx_hal_pcd.o
    0x080017b6   0x080017b6   0x00000002   PAD
    0x080017b8   0x080017b8   0x00000024   Code   RO          559    i.HAL_PCD_SuspendCallback  usbd_conf.o
    0x080017dc   0x080017dc   0x000000ec   Code   RO         1525    i.HAL_RCCEx_PeriphCLKConfig  stm32f1xx_hal_rcc_ex.o
    0x080018c8   0x080018c8   0x0000012c   Code   RO         1422    i.HAL_RCC_ClockConfig  stm32f1xx_hal_rcc.o
    0x080019f4   0x080019f4   0x00000020   Code   RO         1429    i.HAL_RCC_GetPCLK1Freq  stm32f1xx_hal_rcc.o
    0x08001a14   0x08001a14   0x00000020   Code   RO         1430    i.HAL_RCC_GetPCLK2Freq  stm32f1xx_hal_rcc.o
    0x08001a34   0x08001a34   0x0000006c   Code   RO         1431    i.HAL_RCC_GetSysClockFreq  stm32f1xx_hal_rcc.o
    0x08001aa0   0x08001aa0   0x00000320   Code   RO         1434    i.HAL_RCC_OscConfig  stm32f1xx_hal_rcc.o
    0x08001dc0   0x08001dc0   0x00000028   Code   RO         1733    i.HAL_SYSTICK_Config  stm32f1xx_hal_cortex.o
    0x08001de8   0x08001de8   0x00000002   Code   RO         2928    i.HAL_TIMEx_BreakCallback  stm32f1xx_hal_tim_ex.o
    0x08001dea   0x08001dea   0x00000002   Code   RO         2929    i.HAL_TIMEx_CommutCallback  stm32f1xx_hal_tim_ex.o
    0x08001dec   0x08001dec   0x00000068   Code   RO         2947    i.HAL_TIMEx_MasterConfigSynchronization  stm32f1xx_hal_tim_ex.o
    0x08001e54   0x08001e54   0x0000005a   Code   RO         2224    i.HAL_TIM_Base_Init  stm32f1xx_hal_tim.o
    0x08001eae   0x08001eae   0x00000002   PAD
    0x08001eb0   0x08001eb0   0x0000003c   Code   RO          325    i.HAL_TIM_Base_MspInit  stm32f1xx_hal_msp.o
    0x08001eec   0x08001eec   0x00000058   Code   RO         2229    i.HAL_TIM_Base_Start_IT  stm32f1xx_hal_tim.o
    0x08001f44   0x08001f44   0x000000d6   Code   RO         2233    i.HAL_TIM_ConfigClockSource  stm32f1xx_hal_tim.o
    0x0800201a   0x0800201a   0x00000002   Code   RO         2258    i.HAL_TIM_IC_CaptureCallback  stm32f1xx_hal_tim.o
    0x0800201c   0x0800201c   0x00000166   Code   RO         2272    i.HAL_TIM_IRQHandler  stm32f1xx_hal_tim.o
    0x08002182   0x08002182   0x00000002   Code   RO         2275    i.HAL_TIM_OC_DelayElapsedCallback  stm32f1xx_hal_tim.o
    0x08002184   0x08002184   0x00000002   Code   RO         2302    i.HAL_TIM_PWM_PulseFinishedCallback  stm32f1xx_hal_tim.o
    0x08002186   0x08002186   0x00000002   PAD
    0x08002188   0x08002188   0x00000044   Code   RO         4405    i.HAL_TIM_PeriodElapsedCallback  tim3_counter_handle.o
    0x080021cc   0x080021cc   0x00000002   Code   RO         2315    i.HAL_TIM_TriggerCallback  stm32f1xx_hal_tim.o
    0x080021ce   0x080021ce   0x00000002   Code   RO         3206    i.HAL_UARTEx_RxEventCallback  stm32f1xx_hal_uart.o
    0x080021d0   0x080021d0   0x00000002   Code   RO         3220    i.HAL_UART_ErrorCallback  stm32f1xx_hal_uart.o
    0x080021d2   0x080021d2   0x00000002   PAD
    0x080021d4   0x080021d4   0x0000020c   Code   RO         3223    i.HAL_UART_IRQHandler  stm32f1xx_hal_uart.o
    0x080023e0   0x080023e0   0x00000062   Code   RO         3224    i.HAL_UART_Init     stm32f1xx_hal_uart.o
    0x08002442   0x08002442   0x00000002   PAD
    0x08002444   0x08002444   0x000000cc   Code   RO          327    i.HAL_UART_MspInit  stm32f1xx_hal_msp.o
    0x08002510   0x08002510   0x0000002a   Code   RO         3229    i.HAL_UART_Receive_IT  stm32f1xx_hal_uart.o
    0x0800253a   0x0800253a   0x00000002   PAD
    0x0800253c   0x0800253c   0x00000038   Code   RO         4106    i.HAL_UART_RxCpltCallback  uart2_main_handle.o
    0x08002574   0x08002574   0x000000b2   Code   RO         3232    i.HAL_UART_Transmit  stm32f1xx_hal_uart.o
    0x08002626   0x08002626   0x00000002   Code   RO         3235    i.HAL_UART_TxCpltCallback  stm32f1xx_hal_uart.o
    0x08002628   0x08002628   0x00000002   Code   RO          223    i.HardFault_Handler  stm32f1xx_it.o
    0x0800262a   0x0800262a   0x00000002   PAD
    0x0800262c   0x0800262c   0x00000038   Code   RO          419    i.IntToUnicode      usbd_desc.o
    0x08002664   0x08002664   0x00000080   Code   RO           14    i.MX_GPIO_Init      main.o
    0x080026e4   0x080026e4   0x00000068   Code   RO           15    i.MX_TIM3_Init      main.o
    0x0800274c   0x0800274c   0x00000054   Code   RO          371    i.MX_USB_DEVICE_Init  usb_device.o
    0x080027a0   0x080027a0   0x00000002   Code   RO          224    i.MemManage_Handler  stm32f1xx_it.o
    0x080027a2   0x080027a2   0x00000002   Code   RO          225    i.NMI_Handler       stm32f1xx_it.o
    0x080027a4   0x080027a4   0x00000314   Code   RO          829    i.PCD_EP_ISR_Handler  stm32f1xx_hal_pcd.o
    0x08002ab8   0x08002ab8   0x00000002   Code   RO          226    i.PendSV_Handler    stm32f1xx_it.o
    0x08002aba   0x08002aba   0x00000002   Code   RO          227    i.SVC_Handler       stm32f1xx_it.o
    0x08002abc   0x08002abc   0x00000004   Code   RO          228    i.SysTick_Handler   stm32f1xx_it.o
    0x08002ac0   0x08002ac0   0x00000076   Code   RO           16    i.SystemClock_Config  main.o
    0x08002b36   0x08002b36   0x00000002   Code   RO         3553    i.SystemInit        system_stm32f1xx.o
    0x08002b38   0x08002b38   0x0000000c   Code   RO          229    i.TIM3_IRQHandler   stm32f1xx_it.o
    0x08002b44   0x08002b44   0x0000006c   Code   RO         2317    i.TIM_Base_SetConfig  stm32f1xx_hal_tim.o
    0x08002bb0   0x08002bb0   0x00000014   Code   RO         2328    i.TIM_ETR_SetConfig  stm32f1xx_hal_tim.o
    0x08002bc4   0x08002bc4   0x00000010   Code   RO         2329    i.TIM_ITRx_SetConfig  stm32f1xx_hal_tim.o
    0x08002bd4   0x08002bd4   0x00000022   Code   RO         2335    i.TIM_TI1_ConfigInputStage  stm32f1xx_hal_tim.o
    0x08002bf6   0x08002bf6   0x00000024   Code   RO         2337    i.TIM_TI2_ConfigInputStage  stm32f1xx_hal_tim.o
    0x08002c1a   0x08002c1a   0x00000010   Code   RO         3237    i.UART_DMAAbortOnError  stm32f1xx_hal_uart.o
    0x08002c2a   0x08002c2a   0x00000030   Code   RO         3247    i.UART_EndRxTransfer  stm32f1xx_hal_uart.o
    0x08002c5a   0x08002c5a   0x000000b6   Code   RO         3249    i.UART_Receive_IT   stm32f1xx_hal_uart.o
    0x08002d10   0x08002d10   0x000000b8   Code   RO         3250    i.UART_SetConfig    stm32f1xx_hal_uart.o
    0x08002dc8   0x08002dc8   0x00000036   Code   RO         3252    i.UART_Start_Receive_IT  stm32f1xx_hal_uart.o
    0x08002dfe   0x08002dfe   0x00000064   Code   RO         3253    i.UART_WaitOnFlagUntilTimeout  stm32f1xx_hal_uart.o
    0x08002e62   0x08002e62   0x00000002   PAD
    0x08002e64   0x08002e64   0x0000000c   Code   RO          230    i.USART2_IRQHandler  stm32f1xx_it.o
    0x08002e70   0x08002e70   0x0000000e   Code   RO         3853    i.USBD_CUSTOM_HID_DataIn  usbd_customhid.o
    0x08002e7e   0x08002e7e   0x00000024   Code   RO         3854    i.USBD_CUSTOM_HID_DataOut  usbd_customhid.o
    0x08002ea2   0x08002ea2   0x00000038   Code   RO         3855    i.USBD_CUSTOM_HID_DeInit  usbd_customhid.o
    0x08002eda   0x08002eda   0x00000022   Code   RO         3856    i.USBD_CUSTOM_HID_EP0_RxReady  usbd_customhid.o
    0x08002efc   0x08002efc   0x0000000c   Code   RO         3857    i.USBD_CUSTOM_HID_GetDeviceQualifierDesc  usbd_customhid.o
    0x08002f08   0x08002f08   0x0000000c   Code   RO         3858    i.USBD_CUSTOM_HID_GetFSCfgDesc  usbd_customhid.o
    0x08002f14   0x08002f14   0x0000000c   Code   RO         3859    i.USBD_CUSTOM_HID_GetHSCfgDesc  usbd_customhid.o
    0x08002f20   0x08002f20   0x0000000c   Code   RO         3860    i.USBD_CUSTOM_HID_GetOtherSpeedCfgDesc  usbd_customhid.o
    0x08002f2c   0x08002f2c   0x00000054   Code   RO         3861    i.USBD_CUSTOM_HID_Init  usbd_customhid.o
    0x08002f80   0x08002f80   0x00000010   Code   RO         3862    i.USBD_CUSTOM_HID_RegisterInterface  usbd_customhid.o
    0x08002f90   0x08002f90   0x0000002c   Code   RO         3863    i.USBD_CUSTOM_HID_SendReport  usbd_customhid.o
    0x08002fbc   0x08002fbc   0x000000e0   Code   RO         3864    i.USBD_CUSTOM_HID_Setup  usbd_customhid.o
    0x0800309c   0x0800309c   0x0000000e   Code   RO         3590    i.USBD_ClrClassConfig  usbd_core.o
    0x080030aa   0x080030aa   0x00000010   Code   RO         3793    i.USBD_CtlContinueRx  usbd_ioreq.o
    0x080030ba   0x080030ba   0x00000010   Code   RO         3794    i.USBD_CtlContinueSendData  usbd_ioreq.o
    0x080030ca   0x080030ca   0x00000016   Code   RO         3728    i.USBD_CtlError     usbd_ctlreq.o
    0x080030e0   0x080030e0   0x0000001e   Code   RO         3795    i.USBD_CtlPrepareRx  usbd_ioreq.o
    0x080030fe   0x080030fe   0x00000016   Code   RO         3796    i.USBD_CtlReceiveStatus  usbd_ioreq.o
    0x08003114   0x08003114   0x0000001a   Code   RO         3797    i.USBD_CtlSendData  usbd_ioreq.o
    0x0800312e   0x0800312e   0x00000016   Code   RO         3798    i.USBD_CtlSendStatus  usbd_ioreq.o
    0x08003144   0x08003144   0x00000028   Code   RO          420    i.USBD_FS_ConfigStrDescriptor  usbd_desc.o
    0x0800316c   0x0800316c   0x0000000c   Code   RO          421    i.USBD_FS_DeviceDescriptor  usbd_desc.o
    0x08003178   0x08003178   0x0000002c   Code   RO          422    i.USBD_FS_InterfaceStrDescriptor  usbd_desc.o
    0x080031a4   0x080031a4   0x0000000c   Code   RO          423    i.USBD_FS_LangIDStrDescriptor  usbd_desc.o
    0x080031b0   0x080031b0   0x00000020   Code   RO          424    i.USBD_FS_ManufacturerStrDescriptor  usbd_desc.o
    0x080031d0   0x080031d0   0x00000024   Code   RO          425    i.USBD_FS_ProductStrDescriptor  usbd_desc.o
    0x080031f4   0x080031f4   0x00000038   Code   RO          426    i.USBD_FS_SerialStrDescriptor  usbd_desc.o
    0x0800322c   0x0800322c   0x000000e0   Code   RO         3729    i.USBD_GetDescriptor  usbd_ctlreq.o
    0x0800330c   0x0800330c   0x00000048   Code   RO         3730    i.USBD_GetString    usbd_ctlreq.o
    0x08003354   0x08003354   0x00000018   Code   RO          560    i.USBD_Get_USB_Status  usbd_conf.o
    0x0800336c   0x0800336c   0x0000002a   Code   RO         3592    i.USBD_Init         usbd_core.o
    0x08003396   0x08003396   0x00000012   Code   RO          561    i.USBD_LL_ClearStallEP  usbd_conf.o
    0x080033a8   0x080033a8   0x00000012   Code   RO          562    i.USBD_LL_CloseEP   usbd_conf.o
    0x080033ba   0x080033ba   0x000000c6   Code   RO         3593    i.USBD_LL_DataInStage  usbd_core.o
    0x08003480   0x08003480   0x00000082   Code   RO         3594    i.USBD_LL_DataOutStage  usbd_core.o
    0x08003502   0x08003502   0x00000002   PAD
    0x08003504   0x08003504   0x00000070   Code   RO          567    i.USBD_LL_Init      usbd_conf.o
    0x08003574   0x08003574   0x00000020   Code   RO          568    i.USBD_LL_IsStallEP  usbd_conf.o
    0x08003594   0x08003594   0x00000018   Code   RO          569    i.USBD_LL_OpenEP    usbd_conf.o
    0x080035ac   0x080035ac   0x00000012   Code   RO          570    i.USBD_LL_PrepareReceive  usbd_conf.o
    0x080035be   0x080035be   0x00000050   Code   RO         3599    i.USBD_LL_Reset     usbd_core.o
    0x0800360e   0x0800360e   0x00000014   Code   RO         3600    i.USBD_LL_Resume    usbd_core.o
    0x08003622   0x08003622   0x00000018   Code   RO         3601    i.USBD_LL_SOF       usbd_core.o
    0x0800363a   0x0800363a   0x00000006   Code   RO         3602    i.USBD_LL_SetSpeed  usbd_core.o
    0x08003640   0x08003640   0x00000012   Code   RO          571    i.USBD_LL_SetUSBAddress  usbd_conf.o
    0x08003652   0x08003652   0x0000005a   Code   RO         3603    i.USBD_LL_SetupStage  usbd_core.o
    0x080036ac   0x080036ac   0x00000012   Code   RO          572    i.USBD_LL_StallEP   usbd_conf.o
    0x080036be   0x080036be   0x00000012   Code   RO          573    i.USBD_LL_Start     usbd_conf.o
    0x080036d0   0x080036d0   0x00000012   Code   RO         3604    i.USBD_LL_Suspend   usbd_core.o
    0x080036e2   0x080036e2   0x00000012   Code   RO          575    i.USBD_LL_Transmit  usbd_conf.o
    0x080036f4   0x080036f4   0x00000028   Code   RO         3731    i.USBD_ParseSetupRequest  usbd_ctlreq.o
    0x0800371c   0x0800371c   0x00000010   Code   RO         3605    i.USBD_RegisterClass  usbd_core.o
    0x0800372c   0x0800372c   0x00000016   Code   RO         3607    i.USBD_SetClassConfig  usbd_core.o
    0x08003742   0x08003742   0x00000002   PAD
    0x08003744   0x08003744   0x00000084   Code   RO         3732    i.USBD_SetConfig    usbd_ctlreq.o
    0x080037c8   0x080037c8   0x0000000a   Code   RO         3608    i.USBD_Start        usbd_core.o
    0x080037d2   0x080037d2   0x00000112   Code   RO         3733    i.USBD_StdDevReq    usbd_ctlreq.o
    0x080038e4   0x080038e4   0x00000150   Code   RO         3734    i.USBD_StdEPReq     usbd_ctlreq.o
    0x08003a34   0x08003a34   0x0000004e   Code   RO         3735    i.USBD_StdItfReq    usbd_ctlreq.o
    0x08003a82   0x08003a82   0x00000002   Code   RO          576    i.USBD_static_free  usbd_conf.o
    0x08003a84   0x08003a84   0x00000008   Code   RO          577    i.USBD_static_malloc  usbd_conf.o
    0x08003a8c   0x08003a8c   0x00000258   Code   RO         1067    i.USB_ActivateEndpoint  stm32f1xx_ll_usb.o
    0x08003ce4   0x08003ce4   0x00000004   Code   RO         1070    i.USB_CoreInit      stm32f1xx_ll_usb.o
    0x08003ce8   0x08003ce8   0x0000010e   Code   RO         1072    i.USB_DeactivateEndpoint  stm32f1xx_ll_usb.o
    0x08003df6   0x08003df6   0x00000004   Code   RO         1073    i.USB_DevConnect    stm32f1xx_ll_usb.o
    0x08003dfa   0x08003dfa   0x00000004   Code   RO         1074    i.USB_DevDisconnect  stm32f1xx_ll_usb.o
    0x08003dfe   0x08003dfe   0x00000012   Code   RO         1075    i.USB_DevInit       stm32f1xx_ll_usb.o
    0x08003e10   0x08003e10   0x0000000e   Code   RO         1076    i.USB_DisableGlobalInt  stm32f1xx_ll_usb.o
    0x08003e1e   0x08003e1e   0x00000004   Code   RO         1077    i.USB_EP0_OutStart  stm32f1xx_ll_usb.o
    0x08003e22   0x08003e22   0x00000078   Code   RO         1078    i.USB_EPClearStall  stm32f1xx_ll_usb.o
    0x08003e9a   0x08003e9a   0x00000032   Code   RO         1079    i.USB_EPSetStall    stm32f1xx_ll_usb.o
    0x08003ecc   0x08003ecc   0x0000060c   Code   RO         1080    i.USB_EPStartXfer   stm32f1xx_ll_usb.o
    0x080044d8   0x080044d8   0x00000012   Code   RO         1081    i.USB_EnableGlobalInt  stm32f1xx_ll_usb.o
    0x080044ea   0x080044ea   0x00000002   PAD
    0x080044ec   0x080044ec   0x0000000c   Code   RO          231    i.USB_LP_CAN1_RX0_IRQHandler  stm32f1xx_it.o
    0x080044f8   0x080044f8   0x00000006   Code   RO         1088    i.USB_ReadInterrupts  stm32f1xx_ll_usb.o
    0x080044fe   0x080044fe   0x00000002   PAD
    0x08004500   0x08004500   0x0000002c   Code   RO         1089    i.USB_ReadPMA       stm32f1xx_ll_usb.o
    0x0800452c   0x0800452c   0x00000004   Code   RO         1090    i.USB_SetCurrentMode  stm32f1xx_ll_usb.o
    0x08004530   0x08004530   0x0000000c   Code   RO         1091    i.USB_SetDevAddress  stm32f1xx_ll_usb.o
    0x0800453c   0x0800453c   0x00000026   Code   RO         1093    i.USB_WritePMA      stm32f1xx_ll_usb.o
    0x08004562   0x08004562   0x00000002   Code   RO          232    i.UsageFault_Handler  stm32f1xx_it.o
    0x08004564   0x08004564   0x00000020   Code   RO         4743    i.__0printf         mc_w.l(printfa.o)
    0x08004584   0x08004584   0x00000024   Code   RO         4749    i.__0vsprintf       mc_w.l(printfa.o)
    0x080045a8   0x080045a8   0x00000020   Code   RO         1735    i.__NVIC_SetPriority  stm32f1xx_hal_cortex.o
    0x080045c8   0x080045c8   0x0000000e   Code   RO         4843    i.__scatterload_copy  mc_w.l(handlers.o)
    0x080045d6   0x080045d6   0x00000002   Code   RO         4844    i.__scatterload_null  mc_w.l(handlers.o)
    0x080045d8   0x080045d8   0x0000000e   Code   RO         4845    i.__scatterload_zeroinit  mc_w.l(handlers.o)
    0x080045e6   0x080045e6   0x00000002   PAD
    0x080045e8   0x080045e8   0x00000184   Code   RO         4750    i._fp_digits        mc_w.l(printfa.o)
    0x0800476c   0x0800476c   0x000006dc   Code   RO         4751    i._printf_core      mc_w.l(printfa.o)
    0x08004e48   0x08004e48   0x00000024   Code   RO         4752    i._printf_post_padding  mc_w.l(printfa.o)
    0x08004e6c   0x08004e6c   0x0000002e   Code   RO         4753    i._printf_pre_padding  mc_w.l(printfa.o)
    0x08004e9a   0x08004e9a   0x0000000a   Code   RO         4755    i._sputc            mc_w.l(printfa.o)
    0x08004ea4   0x08004ea4   0x00000834   Code   RO         4440    i.ecScript_handle   user_script_handle.o
    0x080056d8   0x080056d8   0x000000a8   Code   RO         4441    i.ecScript_init     user_script_handle.o
    0x08005780   0x08005780   0x00000034   Code   RO         4442    i.ecScript_start    user_script_handle.o
    0x080057b4   0x080057b4   0x00000014   Code   RO         4443    i.ecScript_stop     user_script_handle.o
    0x080057c8   0x080057c8   0x00000010   Code   RO         4229    i.flash_ecScript_read8B  flash_handle.o
    0x080057d8   0x080057d8   0x0000002c   Code   RO         4230    i.flash_ecScript_resetWriteAddr  flash_handle.o
    0x08005804   0x08005804   0x000000c0   Code   RO         4231    i.flash_ecScript_write8B  flash_handle.o
    0x080058c4   0x080058c4   0x00000030   Code   RO         4235    i.flash_userVal_init  flash_handle.o
    0x080058f4   0x080058f4   0x0000003c   Code   RO         4236    i.flash_userVal_write  flash_handle.o
    0x08005930   0x08005930   0x00000008   Code   RO         4237    i.flash_write16B    flash_handle.o
    0x08005938   0x08005938   0x00000008   Code   RO         4238    i.flash_write32B    flash_handle.o
    0x08005940   0x08005940   0x0000001c   Code   RO         4239    i.flash_writeErase  flash_handle.o
    0x0800595c   0x0800595c   0x00000010   Code   RO         4241    i.flash_writeUnlock  flash_handle.o
    0x0800596c   0x0800596c   0x0000001c   Code   RO         4065    i.fputc             uart1_debug_handle.o
    0x08005988   0x08005988   0x00000050   Code   RO         4771    i.free              mc_w.l(malloc.o)
    0x080059d8   0x080059d8   0x00000010   Code   RO         4030    i.ledb_off          ledb_handle.o
    0x080059e8   0x080059e8   0x00000010   Code   RO         4031    i.ledb_on           ledb_handle.o
    0x080059f8   0x080059f8   0x00000020   Code   RO         4032    i.ledb_test         ledb_handle.o
    0x08005a18   0x08005a18   0x00000154   Code   RO           17    i.main              main.o
    0x08005b6c   0x08005b6c   0x0000006c   Code   RO         4772    i.malloc            mc_w.l(malloc.o)
    0x08005bd8   0x08005bd8   0x00000034   Code   RO         4066    i.printx            uart1_debug_handle.o
    0x08005c0c   0x08005c0c   0x00000040   Code   RO         4406    i.tim3_nvic_init    tim3_counter_handle.o
    0x08005c4c   0x08005c4c   0x000000b0   Code   RO         4107    i.umain_cmd_handle  uart2_main_handle.o
    0x08005cfc   0x08005cfc   0x000000e4   Code   RO         4108    i.umain_handle      uart2_main_handle.o
    0x08005de0   0x08005de0   0x00000044   Code   RO         4109    i.umain_nvic_init   uart2_main_handle.o
    0x08005e24   0x08005e24   0x000000e8   Code   RO         4110    i.umain_script_handle  uart2_main_handle.o
    0x08005f0c   0x08005f0c   0x00000060   Code   RO         4111    i.umain_send8B      uart2_main_handle.o
    0x08005f6c   0x08005f6c   0x00000044   Code   RO         4112    i.umain_sendCmd     uart2_main_handle.o
    0x08005fb0   0x08005fb0   0x000000c8   Code   RO         4113    i.umain_trans_handle  uart2_main_handle.o
    0x08006078   0x08006078   0x00000024   Code   RO         3943    i.usbd_gp_init      usbd_gp_handle.o
    0x0800609c   0x0800609c   0x00000088   Code   RO         3946    i.usbd_send         usbd_gp_handle.o
    0x08006124   0x08006124   0x00000034   Code   RO         3948    i.usbd_serialcon_input_handle  usbd_gp_handle.o
    0x08006158   0x08006158   0x0000003c   Code   RO         4352    i.user_ringBufferData_in  user_ringbuffer_handle.o
    0x08006194   0x08006194   0x00000030   Code   RO         4353    i.user_ringBufferData_out  user_ringbuffer_handle.o
    0x080061c4   0x080061c4   0x00000058   Code   RO         4354    i.user_ringbuffer_init  user_ringbuffer_handle.o
    0x0800621c   0x0800621c   0x00000010   Data   RO         3554    .constdata          system_stm32f1xx.o
    0x0800622c   0x0800622c   0x00000008   Data   RO         3555    .constdata          system_stm32f1xx.o
    0x08006234   0x08006234   0x00000007   Data   RO           19    .conststring        main.o
    0x0800623b   0x0800623b   0x00000001   PAD
    0x0800623c   0x0800623c   0x0000001f   Data   RO         3949    .conststring        usbd_gp_handle.o
    0x0800625b   0x0800625b   0x00000001   PAD
    0x0800625c   0x0800625c   0x00000020   Data   RO         4115    .conststring        uart2_main_handle.o
    0x0800627c   0x0800627c   0x00000008   Data   RO         4242    .conststring        flash_handle.o
    0x08006284   0x08006284   0x0000000d   Data   RO         4355    .conststring        user_ringbuffer_handle.o
    0x08006291   0x08006291   0x00000003   PAD
    0x08006294   0x08006294   0x00000007   Data   RO         4407    .conststring        tim3_counter_handle.o
    0x0800629b   0x0800629b   0x00000001   PAD
    0x0800629c   0x0800629c   0x00000009   Data   RO         4445    .conststring        user_script_handle.o
    0x080062a5   0x080062a5   0x00000003   PAD
    0x080062a8   0x080062a8   0x00000020   Data   RO         4841    Region$$Table       anon$$obj.o


    Execution Region RW_IRAM1 (Exec base: 0x20000000, Load base: 0x080062c8, Size: 0x000014f8, Max: 0x00005000, ABSOLUTE, COMPRESSED[0x00000140])

    Exec Addr    Load Addr    Size         Type   Attr      Idx    E Section Name        Object

    0x20000000   COMPRESSED   0x00000004   Data   RW           20    .data               main.o
    0x20000004   COMPRESSED   0x0000001c   Data   RW          428    .data               usbd_desc.o
    0x20000020   COMPRESSED   0x00000032   Data   RW          429    .data               usbd_desc.o
    0x20000052   COMPRESSED   0x00000002   PAD
    0x20000054   COMPRESSED   0x00000056   Data   RW          508    .data               usbd_custom_hid_if.o
    0x200000aa   COMPRESSED   0x00000002   PAD
    0x200000ac   COMPRESSED   0x00000010   Data   RW          509    .data               usbd_custom_hid_if.o
    0x200000bc   COMPRESSED   0x0000000c   Data   RW         1272    .data               stm32f1xx_hal.o
    0x200000c8   COMPRESSED   0x00000004   Data   RW         3556    .data               system_stm32f1xx.o
    0x200000cc   COMPRESSED   0x00000001   Data   RW         3736    .data               usbd_ctlreq.o
    0x200000cd   COMPRESSED   0x00000003   PAD
    0x200000d0   COMPRESSED   0x00000038   Data   RW         3865    .data               usbd_customhid.o
    0x20000108   COMPRESSED   0x000000a2   Data   RW         3866    .data               usbd_customhid.o
    0x200001aa   COMPRESSED   0x00000002   PAD
    0x200001ac   COMPRESSED   0x00000020   Data   RW         3950    .data               usbd_gp_handle.o
    0x200001cc   COMPRESSED   0x00000024   Data   RW         4116    .data               uart2_main_handle.o
    0x200001f0   COMPRESSED   0x0000000c   Data   RW         4243    .data               flash_handle.o
    0x200001fc   COMPRESSED   0x00000018   Data   RW         4356    .data               user_ringbuffer_handle.o
    0x20000214   COMPRESSED   0x00000008   Data   RW         4408    .data               tim3_counter_handle.o
    0x2000021c   COMPRESSED   0x00000020   Data   RW         4446    .data               user_script_handle.o
    0x2000023c   COMPRESSED   0x00000004   Data   RW         4502    .data               mc_w.l(rand.o)
    0x20000240   COMPRESSED   0x00000004   Data   RW         4815    .data               mc_w.l(stdout.o)
    0x20000244   COMPRESSED   0x00000004   Data   RW         4820    .data               mc_w.l(mvars.o)
    0x20000248   COMPRESSED   0x00000004   Data   RW         4821    .data               mc_w.l(mvars.o)
    0x2000024c        -       0x000000d0   Zero   RW           18    .bss                main.o
    0x2000031c        -       0x000002c4   Zero   RW          372    .bss                usb_device.o
    0x200005e0        -       0x00000200   Zero   RW          427    .bss                usbd_desc.o
    0x200007e0        -       0x0000035c   Zero   RW          578    .bss                usbd_conf.o
    0x20000b3c   COMPRESSED   0x00000004   PAD
    0x20000b40        -       0x00000020   Zero   RW         1976    .bss                stm32f1xx_hal_flash.o
    0x20000b60        -       0x00000014   Zero   RW         4114    .bss                uart2_main_handle.o
    0x20000b74        -       0x00000384   Zero   RW         4444    .bss                user_script_handle.o
    0x20000ef8        -       0x00000200   Zero   RW            2    HEAP                startup_stm32f103xb.o
    0x200010f8        -       0x00000400   Zero   RW            1    STACK               startup_stm32f103xb.o


==============================================================================

Image component sizes


      Code (inc. data)   RO Data    RW Data    ZI Data      Debug   Object Name

       420        126          8         12          0       5937   flash_handle.o
        64         10          0          0          0       1571   ledb_handle.o
       694        152          7          4        208     453123   main.o
        36          8        236          0       1536        788   startup_stm32f103xb.o
       164         28          0         12          0       5773   stm32f1xx_hal.o
       198         14          0          0          0      28839   stm32f1xx_hal_cortex.o
       222          4          0          0          0       1723   stm32f1xx_hal_dma.o
       372         40          0          0         32       4089   stm32f1xx_hal_flash.o
       240         26          0          0          0       3181   stm32f1xx_hal_flash_ex.o
       490         34          0          0          0       2844   stm32f1xx_hal_gpio.o
       324         36          0          0          0       2256   stm32f1xx_hal_msp.o
      2962          0          0          0          0      13053   stm32f1xx_hal_pcd.o
        60          0          0          0          0       1142   stm32f1xx_hal_pcd_ex.o
      1272        100          0          0          0       5092   stm32f1xx_hal_rcc.o
       236         12          0          0          0       1348   stm32f1xx_hal_rcc_ex.o
       972         26          0          0          0       9433   stm32f1xx_hal_tim.o
       108         12          0          0          0       2305   stm32f1xx_hal_tim_ex.o
      1432         10          0          0          0      10300   stm32f1xx_hal_uart.o
        56         18          0          0          0       4993   stm32f1xx_it.o
      2758          0          0          0          0      16267   stm32f1xx_ll_usb.o
         2          0         24          4          0       1071   system_stm32f1xx.o
       132         42          7          8          0       1616   tim3_counter_handle.o
        80         10          0          0          0       2881   uart1_debug_handle.o
      1124        328         32         36         20       5989   uart2_main_handle.o
        84         18          0          0        708       2206   usb_device.o
       532         28          0          0        860      13277   usbd_conf.o
       670          0          0          0          0       9239   usbd_core.o
      1178         28          0          1          0       7768   usbd_ctlreq.o
        12          0          0        102          0       1996   usbd_custom_hid_if.o
       556         32          0        218          0      10651   usbd_customhid.o
       288        104          0         78        512       5801   usbd_desc.o
       224         68         31         32          0       2917   usbd_gp_handle.o
       132          0          0          0          0       4212   usbd_ioreq.o
       196         58         13         24          0       2183   user_ringbuffer_handle.o
      2444        110          9         32        900       7421   user_script_handle.o

    ----------------------------------------------------------------------
     20768       1482        408        572       4780     653285   Object Totals
         0          0         32          0          0          0   (incl. Generated)
        34          0          9          9          4          0   (incl. Padding)

    ----------------------------------------------------------------------

      Code (inc. data)   RO Data    RW Data    ZI Data      Debug   Library Member Name

        86          0          0          0          0          0   __dczerorl2.o
        28          0          0          0          0         76   calloc.o
         0          0          0          0          0          0   entry.o
         0          0          0          0          0          0   entry10a.o
         0          0          0          0          0          0   entry11a.o
         8          4          0          0          0          0   entry2.o
         4          0          0          0          0          0   entry5.o
         0          0          0          0          0          0   entry7b.o
         0          0          0          0          0          0   entry8b.o
         8          4          0          0          0          0   entry9a.o
        30          0          0          0          0          0   handlers.o
        36          8          0          0          0         68   init.o
         0          0          0          0          0          0   iusefp.o
        30          0          0          0          0         68   llshl.o
        36          0          0          0          0         68   llsshr.o
        32          0          0          0          0         68   llushr.o
       188         20          0          0          0        160   malloc.o
        36          0          0          0          0         68   memcpya.o
        36          0          0          0          0        108   memseta.o
         0          0          0          8          0          0   mvars.o
      2304         96          0          0          0        600   printfa.o
        36         10          0          4          0        136   rand.o
         0          0          0          4          0          0   stdout.o
        44          0          0          0          0         80   uidiv.o
        98          0          0          0          0         92   uldiv.o
        48          0          0          0          0         68   cdrcmple.o
       334          0          0          0          0        148   dadd.o
       222          0          0          0          0        100   ddiv.o
       186          0          0          0          0        176   depilogue.o
        48          0          0          0          0         68   dfixul.o
       228          0          0          0          0         96   dmul.o

    ----------------------------------------------------------------------
      4112        142          0         16          0       2248   Library Totals
         6          0          0          0          0          0   (incl. Padding)

    ----------------------------------------------------------------------

      Code (inc. data)   RO Data    RW Data    ZI Data      Debug   Library Name

      3040        142          0         16          0       1592   mc_w.l
      1066          0          0          0          0        656   mf_w.l

    ----------------------------------------------------------------------
      4112        142          0         16          0       2248   Library Totals

    ----------------------------------------------------------------------

==============================================================================


      Code (inc. data)   RO Data    RW Data    ZI Data      Debug   

     24880       1624        408        588       4780     643493   Grand Totals
     24880       1624        408        320       4780     643493   ELF Image Totals (compressed)
     24880       1624        408        320          0          0   ROM Totals

==============================================================================

    Total RO  Size (Code + RO Data)                25288 (  24.70kB)
    Total RW  Size (RW Data + ZI Data)              5368 (   5.24kB)
    Total ROM Size (Code + RO Data + RW Data)      25608 (  25.01kB)

==============================================================================

