:020000040800F2
:10000000F814002001010008A32700082926000891
:10001000A1270008AD0700086345000800000000A4
:10002000000000000000000000000000BB2A0008E3
:10003000BB07000800000000B92A0008BD2A00081C
:100040001B0100081B0100081B0100081B01000820
:100050001B0100081B0100081B0100081B01000810
:100060001B0100081B0100081B0100081B01000800
:100070001B0100081B0100081B0100081B010008F0
:100080001B0100081B0100081B0100081B010008E0
:10009000ED4400081B0100081B0100081B010008BB
:1000A0001B0100081B0100081B0100081B010008C0
:1000B0001B010008392B00081B0100081B01000868
:1000C0001B0100081B0100081B0100081B010008A0
:1000D0001B0100081B010008652E00081B01000819
:1000E0001B0100081B0100081B010008DFF80CD0F1
:1000F00000F06CFA00480047195A0008F814002074
:100100000648804706480047FEE7FEE7FEE7FEE7B1
:10011000FEE7FEE7FEE7FEE7FEE7FEE7372B000817
:10012000ED000008202A04DB203A21FA02F0002129
:10013000704721FA02F3D040C2F1200291400843F7
:10014000194670470649074A0868504343F2390286
:10015000104408604008704701490860704700007B
:100160003C0200206D4EC64140EA01039B0703D0CC
:1001700009E008C9121F08C0042AFAD203E011F8E6
:10018000013B00F8013B521EF9D27047D2B201E0A8
:1001900000F8012B491EFBD270470022F6E710B58C
:1001A00013460A4604461946FFF7F0FF204610BDE5
:1001B00010B54843044605F0D9FC002805D00021BD
:1001C000002C02D0641E0155FAE710BD30B50B4675
:1001D000014600202022012409E021FA02F59D4277
:1001E00005D303FA02F5491B04FA02F52844151E4B
:1001F000A2F10102F1DC30BD2DE9F05F05460020DF
:1002000092469B4688460646814640241BE0284687
:10021000414647462246FFF785FF53465A46C01AD5
:10022000914110D311461846224600F0E1F92D1AEB
:1002300067EB01084F4622460120002100F0D8F963
:1002400017EB00094E41201EA4F10104DFDC4846F3
:1002500031462A464346BDE8F09F2DE9FE4F8046D1
:1002600081EA0300C00F0C46009021F0004123F00A
:100270000045B8EB0200A94105D240462146904610
:100280001C460B46024623F00040104347D0270D82
:10029000C7F30A00C3F30A510290401A01904028A4
:1002A0006BDAC3F3130040F4801B0098924620B130
:1002B0000023D2EB030A63EB0B0B01985946C0F104
:1002C0004002504600F094F906460D465046594605
:1002D000019A00F09CF910EB08006141002487EAC4
:1002E000115284EAE7731A4340D0009A62B3019A2C
:1002F000012A4FEA075215DC001B61EB02014FF0A7
:10030000004202EA0752CDE90042001C41F580118B
:1003100032462B4600F09CF903B0BDE8F08F404612
:100320002146F9E7001B61EB0201001C41F5801337
:1003300000185B412018A2F5001747EB030140EAC3
:10034000D570B6196D4111E06D084FEA360645EAE1
:10035000C0754FEA0752001B61EB0201001C41F51A
:10036000801149084FEA30000019514132462B46AE
:1003700003B0BDE8F04F00F05CB9009801224000E6
:100380000023D0EB020263EBE073009821464FEAB2
:10039000E074B8EB000061EB0401E9E783F000438F
:1003A0005BE781F0004158E72DE9FE4F81EA030445
:1003B00004F0004421F0004100944FF0000B23F0C2
:1003C000004350EA01045ED052EA03045BD0C3F359
:1003D0000A54C1F30A552C44A4F2F3340194A0FB4F
:1003E0000254C1F3130141F48011C3F3130343F426
:1003F000801301FB024400FB034E840A970A44EA7F
:10040000815447EA8357A4FB076802958D0A05FBD0
:1004100007854FEA932C04FB0C542705029D4FEAF5
:10042000065847EA1637B5EB08056EEB070C870E42
:10043000920E47EA811742EA8312A7FB0201B6EB4C
:100440000B0164EB00042B0D43EA0C335E1844EB04
:100450001C50DA465146E7FB0201C5F313044FEA8C
:100460000B3343EA14534FEA0432019C43EA060378
:10047000A4F10C040294009CCDE900B400F0E8F86B
:1004800003B0BDE8F08F00200146F9E72DE9F04DFB
:1004900081EA030404F0004B21F0004514464FF0BC
:1004A000000A23F0004150EA050220D054EA01027C
:1004B0001DD0C5F30A570246C5F31303C1F3130059
:1004C000C1F30A5640F4801543F48013A7EB0608E5
:1004D000101BD64608F2FD3873EB050002D308F175
:1004E000010801E092185B41B8F1000F03DA002027
:1004F0000146BDE8F08D00204FF480110646844689
:100500000EE0171B73EB050705D3121B63EB050306
:1005100006434CEA010C49084FEA300092185B414F
:1005200050EA0107EDD152EA030012D082EA04003A
:1005300083EA0501084305D0101BAB4106D2012216
:10054000002306E000224FF0004302E06FF00102BA
:1005500053101AEB06004CEB085110EB0A0041EB6C
:100560000B01BDE8F04D00F064B8C1F30A52C1F3CD
:10057000130140F2FF3341F480119A4202DA002065
:100580000146704740F233439A42A2F2334202DC02
:100590005242FFF7C7BD00F02BB8000030B5041E73
:1005A00071F1000404DB4FF00044404264EB0101B0
:1005B000141E73F1000405DB1C464FF00043524249
:1005C00063EB0403994208BF904230BD064C074DCF
:1005D00006E0E06840F0010394E807009847103413
:1005E000AC42F6D3FFF786FDA8620008C862000897
:1005F000202A04DB203A00FA02F1002070479140E3
:10060000C2F1200320FA03F3194390407047202AD7
:1006100006DBCB17203A41FA02F043EAE07306E02A
:1006200041FA02F3D040C2F120029140084319463A
:10063000704710B5141E73F1000408DA401C41F134
:10064000000192185B411A4301D120F0010010BD56
:100650002DE9F04D92469B4611B1B1FA81F202E0CC
:10066000B0FA80F220329046FFF7C2FF04460F46F0
:1006700040EA0A0041EA0B0153465A46084313D0A8
:10068000114653EA010019D0C8F140025046FFF765
:1006900049FD05460E46504659464246FFF7A8FF1B
:1006A000084305D0012004E020463946BDE8F08D1E
:1006B0000020054346EAE0762C4337430A98630559
:1006C000E40AA0EB08000022FD0A44EA47540A307D
:1006D00002D500200146E9E7010510196941DDE96D
:1006E000084500196941BDE8F04DA2E770B58C18C6
:1006F00010F8015B15F0070301D110F8013B2A1136
:1007000006D110F8012B03E010F8016B01F8016B22
:100710005B1EF9D12B0705D40023521E0DD401F81E
:10072000013BFAE710F8013BCB1A921C03E013F8E7
:10073000015B01F8015B521EF9D5A142D8D300201C
:1007400070BD000000290CD0174B082803EB4101B5
:1007500007D2DFE800F004070B0F141B1F23A1F8DA
:100760008220704731F8820F10441AE031F8820F6E
:10077000504316E031F9820F90FBF2F011E031F9AD
:10078000820F90FBF2F302FB13000AE031F8820FB4
:10079000104006E031F8820F104302E031F8820F7A
:1007A0005040088070470000740B0020FEE70020D6
:1007B00070470020704700207047704772B6FEE710
:1007C00006490020C8610648016941F00401016141
:1007D000016941F04001016170470000400B0020B9
:1007E00000200240064A0021D16106490A6942F010
:1007F00002020A614861086940F0400008617047E0
:10080000400B002000200240044B0022DA61044A21
:10081000136943F00103136101807047400B00200E
:100820000020024014480022C168CB06134904D5B9
:10083000CA6942F00202CA611022C3685B0705D58B
:10084000CB6943F00103CB6142F00402C369DB07CB
:1008500007D0CB6943F00403CB61C16921F00101EA
:10086000C161A2F58071013901D0C2607047C169D0
:1008700021F00101C161704700200240400B0020BF
:1008800070B5054600F046FA0646114C09E0681CB2
:1008900007D025B100F03EFA801BA84201D9032001
:1008A00070BDE068C007F2D1E068800601D5202065
:1008B000E060E068C00605D4E069C00702D1E068E6
:1008C000400703D5FFF7AEFF012070BD002070BDCB
:1008D0000020024010B590F821100022022905D016
:1008E0000421816380F82020012010BD01680B687D
:1008F00023F00E030B6001680B6823F001030B600B
:1009000090F84030C46B012101FA03F3636080F872
:10091000211080F82020104610BD000010B590F87E
:1009200021100024022903D00421816301243DE029
:1009300001680A6822F00E020A6001680A6822F063
:1009400001020A601A4A0168914201D1012121E0A5
:10095000174A1432914201D110211BE0144A283267
:10096000914201D1891515E0114A3C32914201D1E1
:1009700089140FE00E4A5032914202D14FF4803177
:1009800008E00B4A6432914202D14FF4801101E039
:100990004FF08071064A083A5160012180F8211019
:1009A000002180F82010416B01B18847204610BD1E
:1009B0000800024070B5044600F0ACF90546601C22
:1009C00002D004480078044400F0A4F9401BA0427F
:1009D000FAD370BDBC0000202DE9F047054626483B
:1009E0000F460126017E01290FD0012181460176A3
:1009F0002868DFF888804CF25034022808D0A246DC
:100A00002046FFF73DFFA8B131E00220BDE8F087A6
:100A10002046FFF735FF08BB0120FFF7D1FE204637
:100A2000FFF72EFFD8F81010064621F00401C8F891
:100A300010101CE04FF0FF303860AC6811E0204629
:100A4000FFF7D0FE5046FFF71BFFD8F81010060046
:100A500021F00201C8F8101001D03C6007E004F555
:100A60008064D5E9020100EB8120A042E7D8002193
:100A700089F818103046C9E7400B002000200240DA
:100A80002DE9F05F07461C4888460024017E154684
:100A90001E46012909D00121814601764CF2503AC7
:100AA0005046FFF7EDFE18B122E00220BDE8F09FAE
:100AB000012F02D0022F00D00427D346DFF83CA03C
:100AC000220128463146FFF72DFB81B208EB440096
:100AD000FFF79AFE5846FFF7D3FEDAF8102022F00F
:100AE0000102CAF8102018B9641CE4B2BC42E7D372
:100AF000002289F81820D9E7400B0020002002408E
:100B0000064900200A69120607D5054A4A60054AC7
:100B10004A600969090600D501207047002002409B
:100B200023016745AB89EFCD2DE9F84FDFF8B89188
:100B3000002409F1040A0AF1040B23460F270BF1E4
:100B4000040EC9E00125A5402A40AA427DD1674E86
:100B5000D1F804C0ACEB0608B44532D014DCBCF1CB
:100B6000030F3AD009DCBCF1000F2AD0BCF1010F11
:100B70001CD0BCF1020F31D11DE0BCF1110F17D018
:100B8000BCF1120F2AD119E0B8F5881F19D006DC84
:100B9000B8F5803F15D0B8F5801F1FD111E0B8F52A
:100BA000001F0ED0B8F5041F18D10AE0CB6815E07D
:100BB000CB681B1D12E0CB6808330FE0CB680C3309
:100BC0000CE08B682BB1012B4FF0080303D045617B
:100BD00004E0042302E0056100E00023FF2A01D8BD
:100BE000064601E000F104064FEA840501D9A5F1AB
:100BF0002005D6F8008007FA05FC28EA0C0803FA5D
:100C000005F548EA0508C6F800804D68ED0062D594
:100C1000374DAE6946F00106AE61AD6924F00306BA
:100C200005F001050095334D06EB050CDCF8085086
:100C3000A607360F07FA06F825EA0805DFF8B88098
:100C4000404503D14FF0000817E044E0DFF8AC80E6
:100C5000404502D14FF001080FE0DFF8A480404585
:100C600002D14FF0020808E0DFF89880404502D139
:100C70004FF0030801E04FF0040808FA06F848EACC
:100C80000508CCF808804D68D9F80060ED034D46A2
:100C900001D5164300E096432E604D68DAF80060F7
:100CA000AD03554601D5164300E096432E604D68CE
:100CB000DBF80060ED025D4601D5164300E0964387
:100CC0002E604D68DEF80060AD02754601D5164312
:100CD00000E096432E60641C0D682A46E5407FF4D0
:100CE00031AFBDE8F88F0000000401400000111092
:100CF000001002400000014000080140000C0140CB
:100D000000100140001401400AB10161704709045C
:100D1000FBE700000148806870470000BC0000202D
:100D2000024881680278114481607047BC0000204D
:100D3000074810B5016841F010010160032000F080
:100D400075F80F2000F006F800F024F8002010BD20
:100D50000020024070B50D4D04464FF47A7128789A
:100D6000B1FBF0F00A490968B1FBF0F001F028F896
:100D700048B9102C07D200222146501E00F036F848
:100D800000206C6070BD012070BD0000BC00002020
:100D9000C80000200C4808B5816941F0010181615B
:100DA000816901F001010091C16941F08051C16187
:100DB000C06900F0805000900448416821F0E06173
:100DC00041F00071416008BD001002400000014088
:100DD000002809DB00F01F0201219140400980003A
:100DE00000F1E020C0F8001170470000F0B40E4B95
:100DF0001B680C46C3F30223C3F10705042D00D979
:100E00000425191D072901D2002300E0DB1E01265D
:100E100006FA05F1491E214099409E40761E164073
:100E20003143F0BC03F0C0BB0CED00E0064900F01C
:100E3000070208684FF6FF03184040EA0220034A01
:100E400010430860704700000CED00E00000FA0558
:100E500010B50C0607D501F0070101EB810100EB8D
:100E6000C100283005E001EB810100EBC10000F575
:100E7000B47099B232B1012202730181190C41811F
:100E8000002010BD00220273C180F9E7704701EB1A
:100E9000810200EBC202D0F8E802D26B02F08DBAF8
:100EA00001EB810200EBC202D0F8E802D2F87C210B
:100EB00002F0E6BA70B504460B0601F0070000EB3D
:100EC000800104EBC1014FF001024FF0000503D592
:100ED00081F82920283103E081F8695101F5B471C6
:100EE000087094F8A802012808D084F8A822206885
:100EF00002F0FAFE84F8A852002070BD022070BDF6
:100F000070B5044601F00F006268904201D90120DB
:100F100070BD0B0601F0070000EB800104EBC1017E
:100F20004FF001024FF0000503D581F82920283148
:100F300003E081F8695101F5B4718D70087094F87F
:100F4000A802012808D084F8A822206802F069FFCE
:100F500084F8A852002070BD022070BD2DE9F05F1A
:100F600004685FEA424C0B788D69B4F850C04FF0CA
:100F700000064BF68F7948F2800A48F68F7B48F2DC
:100F8000C00E4FF480672AD54FF0020808EBC30863
:100F9000C44407EB4C07E45BC4F30904A54203D344
:100FA0002D1B8D6101D00BE08E61066836F8235051
:100FB00005EA090585F4005545EA0A0526F8235097
:100FC000520609D50D78036833F8252002EA0B0292
:100FD00042EA0E0223F8252084B30A8929E04FF063
:100FE000060808EBC308C44407EB4C07E45BC4F3F2
:100FF0000904A54203D32D1B8D6101D00BE08E6146
:10100000066836F8235005EA090585F4005545EAD7
:101010000A0526F82350520609D40B78056835F8DE
:10102000232002EA0B0242EA0E0225F823202CB10B
:101030004A8949690068234603F062FA2046BDE800
:10104000F09F2DE9F05F054600680C465FEA426CB0
:1010500016468B692278B0F850C048F68F774CF26C
:1010600080094FF6FF7B4FF4004E4FF4806A4FF03B
:1010700000017BD54FF0020808EBC208E0440AEB00
:10108000480C30F80C00C0F30900834211D91B1A38
:10109000A3610FD0730407D52E6836F822303B4089
:1010A00043EA090326F8223094F82420012A50D07C
:1010B0004EE1A161607810B1012813D01AE02868D0
:1010C000B0F85030184400EB0210B0F8042422F4B9
:1010D000F842A0F80424B0F8042442F40042A0F836
:1010E000042407E02868B0F85030184400EB0210E0
:1010F000A0F804146278286812B1012A11D018E00F
:10110000B0F850100844217800EB0110B0F80C142E
:1011100021F4F841A0F80C14B0F80C1441F400418B
:1011200005E0B0F850201044227800EB0210A0F83F
:101130000C1421782846FFF7AAFE7004B8D5217850
:101140002A6832F82100384040EA090022F82100DC
:10115000FEE0626902446261E2690244E26123697D
:10116000226A9A4203D31846111A04E038E084F840
:1011700024100AB110462162617811B1012923D0EF
:101180002BE02968B1F850201144227801EB0211BC
:1011900001F2044148B13E280FD84208C30700D0ED
:1011A000521C0BEA82220A8017E00A8822F4F842D5
:1011B0000A800A8842F40042F5E74209C30600D1DA
:1011C000521E4EEA8222EEE72968B1F850201144FF
:1011D000227801EB0211A1F8040483B22289B3E062
:1011E0004FF0060808EBC208E0440AEB480C30F860
:1011F0000C00C0F30900834211D31B1AA3610FD066
:10120000730407D42E6836F822303B4043EA0903C2
:1012100026F8223094F82420012A50D098E0A161C9
:10122000607810B1012813D01AE02868B0F8503067
:10123000184400EB0210B0F8042422F4F842A0F89D
:101240000424B0F8042442F40042A0F8042407E087
:101250002868B0F85030184400EB0210A0F80414CD
:101260006278286812B1012A11D018E0B0F8501045
:101270000844217800EB0110B0F80C1421F4F84177
:10128000A0F80C14B0F80C1441F4004105E0B0F8DB
:1012900050201044227800EB0210A0F80C142178A2
:1012A0002846FFF7F4FD700452D42278296831F8FB
:1012B0002200384040EA090021F8220048E0626933
:1012C00002446261E2690244E2612369226A9A424D
:1012D00003D31846111A216204E00AB110462162B4
:1012E00084F824106278296812B1012A22D029E0FA
:1012F000B1F850201144227801EB021101F20C41A7
:1013000048B13E280FD84208C30700D0521C0BEA50
:1013100082220A8016E00A8822F4F8420A800A88AB
:1013200042F40042F5E74209C30600D1521E4EEADC
:101330008222EEE7B1F850201144227801EB02112D
:10134000A1F80C04628983B26169286803F0F6F899
:1013500021782A6832F8210048F6BF73184080F0DF
:10136000300048F28003184322F821000020BDE835
:10137000F09F2DE9F04104460F0601F0070000EB55
:10138000800104EBC1014FF001064FF0000503D5C9
:1013900081F82960283103E081F8695101F5B471C1
:1013A00008700A61CB704A7802B1C881022B00D163
:1013B0000D7194F8A802012809D084F8A862206869
:1013C00002F064FB284684F8A852BDE8F0810220B0
:1013D000FBE770B50C4601F0070505EB850100EB56
:1013E000C101C1E95F230022C1F8842181F869218C
:1013F00081F8685101F5B4716207006802F066FD7A
:10140000002070BD70B504460D4601F0070061680C
:10141000884201D9012070BD29064FF000064FF027
:10142000010207D500EB800104EBC10181F82920FE
:10143000283107E005EB850104EBC10181F8696102
:1014400001F5B4718A70087094F8A802012807D0D9
:1014500084F8A822206802F020FD680702D006E088
:10146000022070BD04F52C71206802F0D8FC84F8CD
:10147000A862002070BD70B50C4601F0070505EBB1
:10148000850100EBC101C1E90F23012281F84C2045
:101490008B6400234B6481F8292001F8285F6207E0
:1014A000006802F013FD002070BD1FB504460068FF
:1014B00003F022F8000402D5204601F073F92068F9
:1014C00003F01AF840050CD5206830F8441F21F4C9
:1014D00080610180204600F01FF90021204600F0C5
:1014E00036F9206803F008F8400405D5206830F884
:1014F000441F21F480410180206802F0FDFF800438
:1015000005D5206830F8441F21F40051018020687F
:1015100002F0F2FFC00414D5206830F8401F21F01B
:1015200004010180206830F8401F21F0080101808B
:10153000204600F004F9206830F8441F21F480515F
:101540000180206802F0D8FF00053ED52268002007
:10155000694632F8203021F81030401CC0B208280B
:10156000F7D332F8400F40F001001080206830F8C7
:10157000402F22F0010202802068B0F8442052057A
:10158000FBD530F8442F22F48062028000202368CB
:1015900031F8102023F82020401CC0B20828F6D3D0
:1015A000206830F8401F41F008010180206830F8C1
:1015B000441F21F400610180206830F8401F41F091
:1015C00004010180204600F0F7F8206802F094FF43
:1015D000800508D5206830F8441F21F4007101808F
:1015E000204600F0B0F8206802F086FFC00505D55F
:1015F000206830F8441F21F4807101801FBD000075
:101600002DE9F04186B0040004D094F8A902002529
:1016100020B108E0012006B0BDE8F08184F8A852AE
:10162000204600F05BF8032084F8A902206802F04D
:10163000EFFB04F11001142288466846FEF794FD82
:1016400094E80F0002F04EFB0226D0BB0021206878
:1016500002F06CFF002001270FE000BF00EB8001CB
:1016600004EBC10181F8297001F8280FC881CD7001
:101670000D614D61401CC0B28D6161688142EDD841
:10168000002011E000EB800104EBC10181F86951F9
:1016900081F8680181F86B51C1F87851C1F87C512B
:1016A000401CC0B2C1F8805161688142EAD814225E
:1016B00041466846FEF758FD94E80F0002F09FFB94
:1016C00010B184F8A962A5E784F8245084F8A972BF
:1016D000206802F092FB00209DE7000008B500683A
:1016E0000B49884212D10B48C16941F40001C16124
:1016F000C069002200F40000009011461420FFF79A
:1017000075FBBDE808401420FFF762BB08BD000070
:10171000005C00400010024070B50446806801255E
:10172000022801D0FFF74AF82946D4F8E80201F070
:1017300084FFD4F8E802BDE8704001F040BFD0F863
:10174000E80201F064BFD0F8E80201F06ABF10B50A
:10175000044690F8A80201280BD0012084F8A802C2
:1017600084F82410206802F0E3FE002084F8A80228
:1017700010BD022010BDD0F8E82200F52C711046F3
:1017800001F067BF10B5044690F8A802012810D0F8
:10179000012084F8A802206802F09EFE0121204664
:1017A000FFF774FB206802F026FB002084F8A802F3
:1017B00010BD022010BD000010B50446D0F8E802AC
:1017C00001F086FFA069002804D00348016841F0B9
:1017D0000601016010BD000010ED00E02DE9F843A6
:1017E00005460078354CC00754D0E0690026C0009B
:1017F00008D4E06940F08050E061E069012600F023
:10180000805000902E480168C90512D401688046B6
:1018100041F480710160FFF77DFA074605E000BFE3
:10182000FFF778FAC01B642823D8D8F80000C00559
:10183000F6D5206A10F4407021D0A98801F44071D7
:1018400081421CD0206A1F49012220F440700A60A6
:1018500000220A602062C00711D0FFF75BFA07463A
:1018600041F2883808E000BFFFF754FAC11B414538
:1018700002D90320BDE8F883206A8007F4D5206AE6
:10188000696820F44070084320621EB1E06920F0CE
:101890008050E0612878800705D56068A96820F449
:1018A0004040084360602878C00605D56068E96854
:1018B00020F48000084360600020DBE70010024055
:1018C00000700040400442422DE9F0470F460500F9
:1018D00061D0434E306800F00700B84209D230684A
:1018E00020F0070038433060306800F00700B8424D
:1018F00051D128683B4C810712D5400703D5606859
:1019000040F4E06060602878000703D5606840F428
:10191000605060606068A96820F0F0000843606073
:101920002878C00728D06868012810D021680228CC
:1019300010D0890700292EDA616821F003010143E4
:101940006160FFF7E7F9804641F288390DE02168D0
:101950008903EFE78901EDE7FFF7DCF9A0EB080168
:10196000494502D90320BDE8F0876068696800F046
:101970000C00B0EB810FEFD1306800F00700B842E7
:101980000BD9306820F0070038433060306800F031
:101990000700B84201D00120E5E72878400705D5C7
:1019A0006068E96820F4E060084360602878000718
:1019B00006D56068296920F4605040EAC100606083
:1019C00000F038F86168084AC1F30311515CC8405F
:1019D0000649086006480068FFF7BCF90020C2E726
:1019E00000200240001002401C620008C8000020D5
:1019F000C00000200448054900684968044AC1F352
:101A00000221515CC8407047C8000020001002400D
:101A10002C6200080448054900684968044AC1F37B
:101A2000C221515CC8407047C8000020001002402D
:101A30002C62000812A185B00FC98DE80F0014A018
:101A4000144A006804905168134801F00C03042BF9
:101A500010D0082B0ED1C1F38343C9031DF8030036
:101A60000AD5516804AAC1F34041515C0A4A504367
:101A7000B0FBF1F005B0704708494843FAE70000B1
:101A800002030405060708090A0B0C0D0E0F1010BF
:101A9000010200000010024000127A0000093D001F
:101AA0002DE9F84F040070D02078C04DC00749D010
:101AB0006868C0F38100012807D06868C0F381001E
:101AC000022809D16868C00306D52868800339D583
:101AD00060680028E7D035E06068B0F5803F0BD043
:101AE00010B1B0F5A02F11D0286820F48030286004
:101AF000286820F4802002E0286840F480302860C4
:101B0000606890B1FFF706F906460AE0286840F4DD
:101B100080202860F0E700BFFFF7FCF8801B6428F6
:101B200073D828688003F7D50CE0FFF7F3F8064672
:101B300005E000BFFFF7EEF8801B6428F0D82868A6
:101B40008003F7D420789A4E80074FF001094FF0B8
:101B5000000839D5686810F00C0F07D06868C0F32A
:101B60008100022809D16868C00306D4286880076C
:101B700014D52069012808D110E02069B0B1C6F859
:101B80000090FFF7C7F8074605E00AE1FFF7C2F843
:101B9000C01B0228C4D828688007F7D52868616967
:101BA00020F0F80040EAC10028600DE0C6F800808F
:101BB000FFF7B0F8074604E0FFF7ACF8C01B0228B7
:101BC00023D828688007F7D4207800072CD57948D7
:101BD000A169D9B1C0F80090FFF79CF8074604E06E
:101BE000FFF798F8C01B02280FD8686A8007F7D55E
:101BF00071484FF4FA510068B0FBF1F0009000BF5B
:101C00000098411E0091FAD20EE080E0C0F80080FA
:101C1000FFF780F8074604E0FFF77CF8C01B0228B6
:101C200075D8686A8007F7D42078400760D5E869DE
:101C30000027C00008D4E86940F08050E861E869F6
:101C4000012700F0805000905C480168C90513D45A
:101C50000168834641F480710160FFF75BF88246BA
:101C600006E000BFFFF756F8A0EB0A0064284ED844
:101C7000DBF80000C005F5D5E06801280AD008B1FE
:101C8000052813D0286A20F001002862286A20F075
:101C9000040002E0286A40F001002862E06841F296
:101CA000883B98B1FFF736F882460BE0286A40F08F
:101CB00004002862EEE700BFFFF72CF8A0EB0A0152
:101CC00059455AD8286A8007F6D50CE0FFF722F864
:101CD000824605E0FFF71EF8A0EB0A0159454CD8F3
:101CE000286A8007F6D41FB1E86920F08050E861C7
:101CF000E06988B36968C1F38101022944D00228F0
:101D0000C6F8608004D0FFF705F8044638E034E0F8
:101D1000FFF700F8074604E0FEF7FCFFC01B0228AF
:101D20002BD828688001F7D4206AB0F5803F05D110
:101D30006868A16820F4003008436860D4E90801AD
:101D40000843696821F4741108436860C6F860901C
:101D5000FEF7E0FF044606E025E000BFFEF7DAFFED
:101D6000001B022809D828688001F7D51BE000BFB6
:101D7000FEF7D0FF001B022802D90320BDE8F88F30
:101D800028688001F4D40EE00128F7D06868226A40
:101D900000F48031914204D1616A00F470108842ED
:101DA00001D00120EAE70020E8E70000001002402F
:101DB0000000424280044242C800002000700040FF
:101DC00010B5401EB0F1807F01D3012010BD4FF04F
:101DD000E02460610F21601702F0E6FB0020A061A3
:101DE00007202061002010BD7047704770B590F843
:101DF0003C20012A26D0012480F83C40022280F8B1
:101E00003D2003685A689D6822F070060A683243D4
:101E10005A600D4B02689A4208D0B2F1804F05D04B
:101E20000A4B9A4202D00A4B9A4204D1496825F0E3
:101E300080031943916080F83D40002180F83C10F8
:101E4000084670BD022070BD002C01400004004017
:101E50000008004010B5040003D094F83D0010B114
:101E600007E0012010BD002084F83C00204600F06F
:101E70001FF8022084F83D00211D206800F062FE5A
:101E8000012084F8460084F83E0084F83F0084F87E
:101E9000400084F8410084F8420084F8430084F84C
:101EA000440084F8450084F83D00002010BD000087
:101EB00008B500680B49884212D10B48C16941F04E
:101EC0000201C161C069002200F0020000901146C9
:101ED0001D20FEF78BFFBDE808401D20FEF778BFF0
:101EE00008BD0000000400400010024090F83D10C2
:101EF000012901D001207047022180F83D100168BE
:101F0000CA6842F00102CA6000680B49884208D0E2
:101F1000B0F1804F05D00949884202D00849884273
:101F200004D1816801F00701062903D0016841F05E
:101F30000101016000207047002C014000040040B6
:101F40000008004070B5044690F83C00012817D006
:101F5000012584F83C50022084F83D002068826806
:101F600022F0770222F47F4282600868502830D045
:101F70000DDC20284DD005DC98B310283BD148E07B
:101F8000022070BD302844D0402834D139E0602888
:101F900028D0702806D0B0F5805F2CD0B0F5005F57
:101FA00029D10AE0CB68D1E90121206800F000FEC8
:101FB0002068816841F0770109E0CB68D1E901210F
:101FC000206800F0F5FD2068816841F4804181605F
:101FD00011E0CA684968206800F0FCFD50212068C3
:101FE00007E016E0CA684968206800F004FE602136
:101FF000206800F0E7FD84F83D50002084F83C00A4
:1020000070BDCA684968206800F0E4FD402120687E
:10201000EFE7226801461046EBE7704770B50446CB
:10202000006801694FF00005C943890715D4C168EC
:10203000C943890711D4E91E016101202077206876
:1020400080698007204602D0FFF7E7FF04E000F038
:1020500098F8204600F096F8257720680169C94372
:10206000490717D4C168C943490713D46FF0040165
:102070000161022020772068806910F4407F2046AB
:1020800002D0FFF7CAFF04E000F07BF8204600F022
:1020900079F8257720680169C943090716D4C16812
:1020A000C943090712D46FF00801016104202077A9
:1020B0002068C0698007204602D0FFF7AEFF04E029
:1020C00000F05FF8204600F05DF825772068016990
:1020D000C943C90617D4C168C943C90613D46FF0F0
:1020E00010010161082020772068C06910F4407F4A
:1020F000204602D0FFF791FF04E000F042F82046AE
:1021000000F040F8257720680169C943C90708D164
:10211000C168C943C90704D1891E0161204600F086
:1021200033F820680169C943090609D4C168C94365
:10213000090605D46FF0800101612046FFF754FEC7
:1021400020680169C943490609D4C168C9434906E1
:1021500005D46FF040010161204600F037F8206897
:102160000169C94389060BD4C168C943890607D4EC
:102170006FF0200101612046BDE87040FFF735BED9
:1021800070BD7047704700000C49884215D10C485B
:102190004168B1F57A7F01D100214160491C41605D
:1021A0000848016811B10168491E016006480168CC
:1021B000491C01600148FFF799BE70474C0200209E
:1021C000140200202C0200202802002070477047D3
:1021D00070470000F8B5026804461068D16853697A
:1021E00010F00F0F4FF0000553D003F0010601F47B
:1021F000907737435FD0C20705D0CA0503D5226C5C
:1022000042F001022264420705D5DA0703D0226CAE
:1022100042F002022264820705D5DA0703D0226C5D
:1022200042F004022264020707D501F02002324383
:1022300003D0226C42F008022264226C002A34D0BF
:10224000800604D5880602D5204600F006FD2068E9
:102250004069216CC0F38010090700D430B32046D8
:1022600000F0E3FC2068416949061BD5416921F073
:1022700040014161A06BA8B158494163A06BFEF7D2
:102280004DFB002811D0A06B416B01B0BDE8F040C0
:10229000084783060FD58B060DD52046BDE8F840CC
:1022A00000F0DBBC2046FFF793FFF8BD2046FFF7A8
:1022B0008FFF2564F8BD266B2023012E52D1C60660
:1022C00050D5CE064ED51068506800905069400633
:1022D0002AD5A16B086840680004000CEAD0A68DDE
:1022E0008642E7D9E0858869202818D0D06820F494
:1022F0008070D0602068416921F00101416120684F
:10230000416921F04001416184F83E302563206835
:10231000C16821F01001C160A06BFEF7DBFAA08D4F
:10232000E18D401A81B219E0A08DE18D401A81B291
:10233000E08D0028BED00029BCD0D06820F4907079
:10234000D0602068426922F00102426184F83E3088
:1023500025632068C26822F01002C2602046FFF7A1
:1023600036FFF8BD05062BD50D0629D594F83D009E
:102370002128F6D1A068B0F5805F01D12069B0B105
:10238000206A411C2162216800784860E08C401E70
:102390000004000CE084E4D12068C16821F08001D1
:1023A000C1602068C16841F04001C160F8BD206A89
:1023B0000088C0F308005060206A801C2062E5E7B6
:1023C0004006F3D54806F1D5D168204621F04001FA
:1023D000D16084F83D3000F026F9F8BD1B2C0008D0
:1023E00070B5040004D094F83D00002510B106E05B
:1023F000012070BD84F83C50204600F023F82420D2
:1024000084F83D002068C16821F40051C160204675
:1024100000F07EFC2068016921F490410161206890
:10242000416921F02A0141612068C16841F40051ED
:10243000C1602564202084F83D0084F83E0000201F
:1024400070BD000070B586B0002400940194029421
:1024500003942B4E03682B49022003222A4DB342DA
:1024600021D18B6943F480438B618B6903F48043F2
:1024700004938B6943F004038B618969039201F033
:10248000040104910102CDE9001069462846FEF7D7
:102490004BFB2815CDE90004694628460294FEF757
:1024A00043FB06B070BD194EB342FAD1CB6943F479
:1024B0000033CB61CB6903F4003304938B6943F0A1
:1024C00004038B618969039201F0040104910421E2
:1024D000CDE9001069462846FEF726FB0820CDE925
:1024E0000004694628460294FEF71EFB00221146AE
:1024F0002620FEF77BFC2620FEF76AFCD1E70000D1
:102500000038014000100240000801400044004033
:1025100090F83E30202B0ED159B152B190F83C309A
:10252000012B08D0012380F83C300023036300F026
:102530004BBC01207047022070470000094910B5CC
:1025400088420ED1084C09A0217803F045FB207881
:1025500003F002FE2146BDE8104001220148FFF7CA
:10256000D7BF10BDD8020020CC0100205B25785DCC
:10257000000000002DE9F843044690F83D001F4696
:1025800016460D4620284CD1C5B1BEB194F83C008A
:10259000012846D0012084F83C004FF00008C4F820
:1025A0004080212084F83D00FEF7B4FBA6848146DC
:1025B000E684A068B0F5805F03D004E00120BDE8A8
:1025C000F883206928B12E465FF0000584F83C802E
:1025D0000EE00026FAE78021204600F010FCA0B9AA
:1025E000AEB116F8010B21684860E08C401EE08413
:1025F000E08C4B464FF0000200970028EBD14FF0E3
:102600004001204600F0FBFB30B10320D7E735F84E
:10261000020BC0F30800E6E7202084F83D0000200C
:10262000CDE70220CBE77047FEE70000F0B50023BE
:102630000A24302537261F4611E000BFB4EB107F77
:1026400002D905EB107C01E006EB107C01F813C009
:1026500001EB430C00015B1C8CF80170DBB2934270
:10266000ECD3F0BD70B586B000241C4800940194F2
:1026700002940394816941F020018161816901F034
:1026800020010491816941F010018161816901F0AB
:1026900010010491816941F008018161816901F0B3
:1026A00008010491816941F004018161806901227E
:1026B00000F004000A4E1503049029463046FEF748
:1026C00023FB01200095CDE9010403200390694616
:1026D0003046FEF729FA06B070BD00000010024037
:1026E000000C014010B586B00024174800940194F6
:1026F00002940394049413490594016041F61F4128
:10270000C0E901140921C0E903148461FFF7A2FBA9
:1027100008B172B6FEE74FF48050009069460A484F
:10272000FFF710FC08B172B6FEE7049404A906484E
:102730000594FFF75BFB002801D072B6FEE706B0F8
:1027400010BD0000000400404C02002010B5002223
:102750000F49104800F00AFE08B1FEF72FF80E49A5
:102760000C4800F0DBFF08B1FEF728F80B490948D8
:1027700000F006FC08B1FEF721F8064801F024F845
:10278000002803D0BDE81040FEF718B810BD0000C7
:10279000040000201C030020D0000020AC0000201A
:1027A000FEE7FEE72DE9F84F044640F68F7B48F63A
:1027B0000F7A4FF002094FF4806874E1B0F84410CA
:1027C00011F00F063AD030F8267039047DD530F874
:1027D000261001EA0B0141F0800120F8261006EBDB
:1027E000860004EBC00595F8740105F5B475002862
:1027F0006CD0E87802286AD02878226832F8201055
:1028000048F68F73194048F2C003194322F820108C
:102810002878D4F800C03CF82010BCF850204904B7
:102820007ED509EBC000111808EB41003CF8000010
:102830008005800D009074D02A89D8E0C9062DD477
:10284000018801EA0A0141F400410180216804F194
:102850002805B1F850202B7809EBC300024408EB9F
:102860004200085AC0F309006064E16B0844E06369
:1028700000212046FEF70BFB94F8240000289CD092
:10288000A869002899D194F82400216840F08000BC
:10289000A1F84C00002084F8240004E1018804F52C
:1028A000B4750A0521D5B0F850202B78062101EB2C
:1028B000C3010A4408EB4201405A04F52C71C0F3ED
:1028C0000903EB61EA88206802E0ACE068E07AE0A6
:1028D00001F016FE2168088800EA0B0040F0800035
:1028E00008802046FEF747FFDDE00904D5D50188C2
:1028F00001EA0B0141F0800101802068B0F850200E
:102900002B78062101EBC3010A4408EB4201405A2F
:1029100083059B0DEB6110D0696971B1EA8801E014
:1029200058E056E0206801F0EBFDE9696869084469
:10293000686100212046FEF7B3FA20680188090586
:102940002DD4B0F850100844296900F20C4051B160
:102950003E2910D84A08C90700D0521C4FF6FF7113
:1029600001EA82210FE0018821F4F8410180018809
:1029700041F4004107E04A09C90600D1521E4FF454
:10298000004141EA82210180206801884BF68F7264
:10299000114081F4405148F280021143018082E0ED
:1029A000D4F800C0BCF850102A78062000EBC20012
:1029B000014408EB41003CF800008005800D0090C8
:1029C0001AD0EA8813E03A4629462046FEF7C6FAAE
:1029D000009011E0062101EBC000111808EB410046
:1029E0003CF800008005800D009005D06A89034600
:1029F0006046696901F084FDE96900980844E8616E
:102A00006969009808446861A86918B12969009843
:102A1000814204D929782046FEF742FA03E029468C
:102A2000206801F053FA38063DD506EB860004EB2A
:102A3000C001206830F8262002EA0A0242F400426F
:102A400020F8262091F82B002831032804D018B153
:102A5000022824D1F80522D42368B3F850200D7839
:102A600009EBC500024408EB4200185A8A69C0F31A
:102A7000090082420CD9121A8A610BD04A690244B9
:102A80004A61CA691044C861206801F01FFA0AE06F
:102A900000208861E9B22046FEF7F9F903E03A46E2
:102AA0002046FEF7CEFA2068B0F8441009043FF53E
:102AB00085AE0020BDE8F88F70477047FEF730B94B
:102AC00030B593B028216846FDF767FB14210AA8AA
:102AD000FDF763FB002401200F941094119401046E
:102AE00012948DE8130004904FF4E010CDE9081023
:102AF000022507956846FEF7D3FF08B172B6FEE7D8
:102B00000F20CDE90A054FF48060CDE90C40022189
:102B10000AA80E94FEF7D8FE08B172B6FEE71020A0
:102B20000F9012940FA8FEF759FE002801D072B63C
:102B3000FEE713B030BD70470148FFF76FBA0000E1
:102B40004C020020F0B50268164B174C174D4FF0A1
:102B50008047984205D0B84203D0A04201D0A84295
:102B600003D122F070064A683243984205D0B84239
:102B700003D0A04201D0A84203D122F44074CA6815
:102B800022434C6922F08002224302608A68C262BA
:102B90000A688262984201D1096901630121416199
:102BA000F0BD0000002C014000040040000800407F
:102BB00010B5846842EA032224F47F440A43224386
:102BC000826010BD826822F070020A4342F0070161
:102BD0008160704710B5036A046A24F0010404623E
:102BE000846924F0F00444EA021423F00A020A4340
:102BF0008461026210BD10B5036A23F01003036202
:102C00008369046A23F4704343EA023224F0A00388
:102C100043EA01118261016210BD10B5406A0021D2
:102C2000C185C184FFF7D4FA10BD0168CA6822F4D7
:102C30009072CA6001684A6922F001024A61016B20
:102C4000012904D10168CA6822F01002CA6020215B
:102C500080F83E1000210163704708B590F83E10DF
:102C6000222901D0022008BD82684FF480539A4285
:102C700001D1016921B1816A9A421BD04AB10AE0AF
:102C80000268816A5268C2F308020A80816A891C5C
:102C900008E0026972B10268526802F07F020A70AD
:102CA000816A491C8162C18D491E0904090CC185D4
:102CB00003D019E002685268F1E70168CA6822F09F
:102CC0002002CA600168CA6822F48072CA60016882
:102CD0004A6922F001024A61202180F83E10016B0E
:102CE000012903D0FFF72AFC002008BD0021016361
:102CF0000168CA6822F01002CA6001680A68D20638
:102D000002D50A6849680091818DFFF760FAEBE708
:102D100070B5044600680169E26821F4405111432E
:102D200001612169A0680843616908432168CA6894
:102D300041F20C639A430243CA6020684169A26968
:102D400021F44071114341611E492068884202D13B
:102D5000FEF760FE01E0FEF74DFE00EBC00101EB67
:102D60000012606864218000B2FBF0F3B3FBF1F362
:102D70006FF018067343B2FBF0F5B2FBF0F605EB0B
:102D80008305322303EB0515B5FBF1F5B6FBF1F630
:102D900005F0F00505EB0615B2FBF0F6B2FBF0F01E
:102DA000B0FBF1F06FF01802504306EB800003EB2C
:102DB0000010B0FBF1F0216800F00F00284488609B
:102DC00070BD00000038014081628285C28500210B
:102DD0000164222280F83E2080F83C100168CA6815
:102DE00042F48072CA6001684A6942F001024A6195
:102DF0000068C16841F02001C160002070472DE9E2
:102E0000F041984617460E460446069D1DE0681C94
:102E10001BD02DB1FDF77EFFA0EB0800A84214D90E
:102E20002068C16821F4D071C1602068416921F037
:102E300001014161202084F83D0084F83E0000201B
:102E400084F83C000320BDE8F0812068006836EA81
:102E5000000004D00020B842D9D00020F3E70120C0
:102E6000F9E700000148FFF7B5B90000D8020020DB
:102E7000D0F8B802002180F868100846704770B595
:102E80000546D0F8B842D5F8BC226178D2682078DF
:102E90009047562322460221284600F087FB002057
:102EA00070BD70B50446812100F07EFA0025022134
:102EB0002046E56200F078FAC4F88051D4F8B802F0
:102EC00048B1D4F8BC0204F52E74806880472068AD
:102ED00000F0D7FD2560002070BD10B5D0F8B842D5
:102EE000616E012908D1D0F8BC0223786178C268EC
:102EF0001846904700206066002010BD1221018016
:102F0000004870479801002029210180004870473F
:102F10000801002029210180004870473401002069
:102F200029210180004870476001002070B50446E7
:102F3000002640230322812100F02CFB01254023A1
:102F4000032202212046E56200F024FB6C20C4F835
:102F5000805100F097FDC4F8B80278B10546002012
:102F600085F86800D4F8BC024068804756232A469A
:102F70000221204600F01AFB304670BD0126FBE717
:102F800002460220002902D00020C2F8BC1270477D
:102F900010B5134690F89C42D0F8B822032C0BD100
:102FA00092F868400CB1012010BD012482F86840FD
:102FB0000A46812100F095FB002010BDF8B50022E3
:102FC000D0F8B832ADF800200E781546144616F049
:102FD000600622D0202E56D14A78921E0A2A52D25A
:102FE000DFE802F010085151515151140C05887856
:102FF00098654BE0012203F1580135E04888000A4A
:10300000D86543E0012203F15C012DE001225A66FC
:10301000CA88194600F064F838E04E7836B1062EBA
:103020000BD00A2E23D00B2E2DD128E090F89C2215
:10303000032A28D10222694616E04B882226B6EBE5
:10304000132F07D1CA88562A00D95622D0F8BC12AD
:103050000D6808E02126B6EB132F04D1CA880E4D67
:10306000092A00D90922294600F054F80EE090F808
:103070009C22032A07D1012203F16001F4E790F8B2
:103080009C22032A04D000F020F802242046F8BD38
:1030900088781866FAE700008C01002010B5D0F897
:1030A000B42252689047002010BD134610B50A465E
:1030B000002100F07BFA002010BD134610B50A462F
:1030C000002100F00EFB002010BD10B50446802149
:1030D00000F0ECFA2046BDE81040002100F0E6BA0E
:1030E00010B50323C0F85C21C0F89432C0F8602109
:1030F00013460A46002100F059FA002010BD10B511
:1031000005210023C0F894121A46194600F04EFA21
:10311000002010BD10B50223C261C0F894320262D3
:1031200013460A46002100F0DCFA002010BD10B55D
:1031300004210023C0F894121A46194600F0D1FA6F
:10314000002010BD10B50A46024903A000F0DEF8C9
:10315000004810BDE0050020437573746F6D204872
:10316000494420436F6E66696700000012200880A2
:10317000004870472400002010B50A46024903A009
:1031800000F0C4F8004810BDE005002043757374DA
:103190006F6D2048494420496E74657266616365AD
:1031A0000000000004200880004870472000002034
:1031B00010B50A46024903A000F0A8F8004810BD67
:1031C000E0050020454C4D41474E494649434F00DC
:1031D00010B50A46024903A000F098F8004810BD57
:1031E000E00500204D435520434F4E54524F4C4C68
:1031F0004552000010B51A2008800A480168001DD9
:103200000468001D0068081809D008220649FFF765
:103210000DFA0549042210312046FFF707FA02484B
:10322000801E10BDE8F7FF1F3A000020F8B50446E5
:103230000020ADF8000048880D46010A082944D254
:10324000DFE801F04304091743433841D4F8B012D2
:10325000207C0A6819E0207C02260028D4F8B402F9
:1032600005D0C16A68468847014646703AE0816ADF
:10327000F8E7C0B2062828D2DFE800F0030A1027DA
:103280001418D4F8B002426805E06946904718E087
:10329000D4F8B0028268C2B1207CF6E7D4F8B0025C
:1032A000C268F8E7D4F8B0024269F4E7D4F8B00293
:1032B0008269F0E7207C40B9D4F8B402416B6846DB
:1032C000884701460EE0207C20B129462046FFF7C2
:1032D000FCFEF8BDD4F8B402016B6846884701468D
:1032E00007204870BDF8000048B1EA8852B1824218
:1032F00000D90246ADF800202046FFF70BFFE88812
:103300000028E6D12046FFF712FFF8BD70B5002374
:1033100000281ED00446002502E06D1CEDB2641C9E
:103320002678002EF9D1022404EB4504148012788B
:10333000CA545B1C0322CA5400245B1C06E0CA5416
:103340005B1CDAB28C54521CD3B2401C0278002AA7
:10335000F5D170BD01004FF0000004D0012901D06B
:10336000022901D0022070470120704710B580B1BA
:10337000D0F8B43213B10023C0F8B43209B1C0F8A8
:10338000B012012180F89C12027000F0BBF80020FE
:1033900010BD022010BD10B5D0F8C002FDF7B0FD81
:1033A000BDE81040FFF7D6BF10B5D0F8C002FDF75A
:1033B00081FDBDE81040FFF7CDBF2DE9F041174674
:1033C000044651B1D4F8B40242691AB194F89C028F
:1033D000032851D00220BDE8F081D4F894320025B2
:1033E00004F11400022B03D0042B3AD0C3B33CE009
:1033F000D0E903639E4207D9F11AC1608AB2394607
:103400002046FFF75AFE12E08068B0FBF3F103FBA1
:10341000110199B9984211D3D4F8981288420DD26B
:10342000002211462046FFF748FEC4F898520023B8
:103430001A461946204600F0B9F816E0D4F8B4024E
:10344000C16829B194F89C02032801D1204688471D
:103450008021204600F02AF92046FFF750FE04E0C4
:10346000FFE78021204600F021F994F8A00201280E
:1034700004D184F8A05201E0204690470020AAE73A
:1034800070B51546044649B1D4F8B40282691AB140
:1034900094F89C02032830D0022070BDD4F8941216
:1034A00004F5AA70032902D005291ED027E0D0E92F
:1034B00003218A420BD9531AC3600846834200D3C2
:1034C00003469AB229462046FFF7EFFD17E0D4F8ED
:1034D000B402016929B194F89C02032801D1204665
:1034E00088472046FFF723FE09E000200146C4F884
:1034F0009402204600F0DAF801E0204690470020D0
:1035000070BD000010B519490446C1F8E802C0F8C2
:10351000C012174808600820486002208860002018
:103520008861C86108620846FEF76AF808B1FDF7CD
:1035300045F90022D4F8C0021823114604F530746E
:10354000FDF786FC5823002280212068FDF780FCCF
:103550009823002281212068FDF77AFCD8230022DD
:1035600002212068FDF774FC002010BD50080020E7
:10357000005C00400A0601F07F01D0F8C00201EBB8
:10358000810100EBC10002D590F82A00704790F845
:103590006A01704710B51C461346D0F8C002224697
:1035A000FDF7E7FEBDE81040FFF7D4BE10B5D0F838
:1035B000C002FDF70EFFBDE81040FFF7CBBE70B5AF
:1035C0000022044640231146FFF7E4FF4026012570
:1035D000C4F864613346002280212046C4F8585163
:1035E000FFF7D8FF6662A56184F89C520020C4F8FA
:1035F00094026060C4F8A402D4F8B80228B1D4F8E8
:10360000B4020021426820469047002070BD90F827
:103610009C12042903D190F89D1280F89C1200207E
:10362000704710B590F89C12032904D1D0F8B41259
:10363000C96901B18847002010BD0174002070479E
:1036400010B5D0F8C002FEF782F8BDE81040FFF7D1
:1036500081BE70B5044600F52A70054600F04AF8B0
:103660000120C4F89402B4F8AE02C4F8980294F8A9
:10367000A80210F01F010AD001290DD0022910D094
:1036800000F08001204600F011F8002070BD2946AE
:10369000204600F09EF8F8E72946204600F0CAF9D7
:1036A000F3E72946204600F01DF9EEE710B5D0F803
:1036B000C002FDF7A7FEBDE81040FFF74BBE10B5F6
:1036C000D0F8C002FEF75EF8BDE81040FFF742BE3A
:1036D00090F89C1280F89D12042180F89C12002022
:1036E000704710B5D0F8C002FDF7C5FEBDE8104028
:1036F000FFF730BE0A7802704A7842708A78CB7839
:1037000002EB032242800A794B7902EB032282808A
:103710008A79C97902EB0121C180704702460020F5
:1037200011B1C2F8B41270470220704710B5D0F83A
:10373000B42202241AB11268904700B9002420462E
:1037400010BD000070B50E461E4D897804462970E4
:10375000012931D894F89C0202280BD003280FD0FD
:1037600031462046FFF7B1FC29782046BDE870407D
:10377000FFF794BCD9B10320616084F89C0209E092
:1037800071B16068884212D0C1B22046FFF786FC52
:10379000297861602046FFF7C9FF02280CD006E0B7
:1037A000022084F89C0220466160FFF777FC2046E7
:1037B000BDE87040FFF7BBBC31462046BDE8704015
:1037C000FFF783BCCC00002010B5FFF778FF002086
:1037D00010BD2DE9F0410A78002612F0600208D0F1
:1037E000202A01D0402A70D1D0F8B42292689047A4
:1037F0006DE04B78002201250A2B66D2DFE803F04A
:10380000405D6557650805652C29FFF70FFD5EE0F3
:1038100004468888D8B9C888C8B94888802816D28C
:1038200000F07F0794F89C02032810D084F89E7261
:1038300039462046FFF704FF2046FFF778FC1FB10A
:10384000022084F89C0242E084F89C523FE020462B
:103850003BE0FFF777FF3AE0CB88012B35D190F8BA
:103860009C32012B04D0022B02D0032B2DD104E07B
:103870008260012200F1080116E00122011D13E01F
:1038800090F89C22012A03D0022A01D0032A1CD1DD
:10389000CA88022A19D1C560D0F8A41209B103213F
:1038A000C160022200F10C01FFF734FC0FE04988EF
:1038B00001290CD1C0F8A45211E090F89C32012BE0
:1038C00008D0022B06D0032B04D0FFF7FEFB3046B6
:1038D000BDE8F08149880129F9D1C0F8A422FFF799
:1038E00026FCF4E72DE9F0410A460446107800274B
:1038F000097910F060030AD0202B01D0402B50D161
:10390000D4F8B40211468368204698478FE0C0F38C
:103910004110012806D05078D0B301282AD00328BE
:103920003FD107E0D4F8B402114683682046BDE8D1
:10393000F041184794F89C02022802D0032872D163
:103940000AE071B380296ED02046FFF7AFFE8021D8
:103950002046FFF7ABFE6AE0508838B931B18029C4
:1039600004D0D08810B92046FFF7A0FE2046FFF70C
:10397000DEFB5CE094F89C020228E2D0032852D1DE
:10398000508898BB4806F1D02046FFF704FDEDE7CC
:10399000FFE794F89C020026022803D0032842D1B6
:1039A00012E040E009B180293DD1080601F07F0016
:1039B00000EB800004EB800101D5143101E001F53A
:1039C000AA7102220E602AE0080601F00F0000EB47
:1039D000800004EB80000AD5806920B301F07F00ED
:1039E00000EB800004EB800514350BE01FE0D0F8FD
:1039F0005801C0B101F07F0000EB800004EB8005AE
:103A000005F5AA7541B1802906D02046FFF7B2FD21
:103A100010B10120286000E02E60022229462046D5
:103A2000FFF778FB03E011462046FFF74EFB3846D0
:103A3000BDE8F08170B5054608780C4610F06000CE
:103A400003D0202801D0402816D195F89C020128E7
:103A500003D0022801D003280ED1207901280BD8E9
:103A6000D5F8B402826828469047E188014306D120
:103A70002846FFF75CFB02E02846FFF726FB002004
:103A800070BD704700487047E00700202DE9F047FF
:103A90000C78002630F8243048F68F121340CA788C
:103AA000002A7DD0012A7CD0022A02D0032A7FD0AE
:103AB000012648F28002134320F824300D7830F8B4
:103AC000254048F68F731C402C43144320F82540B2
:103AD0000D7B48F2C00C48F6BF744CF280074BF6E1
:103AE0008F79EDB391F80080C24630F8285048F243
:103AF00080181D4045EA080520F82A50B0F85050BB
:103B000091F80080054405EB0815B1F8088028F00D
:103B10000108A5F80084B0F8505091F800800544E1
:103B200005EB0815B1F80A8028F00108A5F808840B
:103B30004D78002D0D7830F825804FEA48487DD02B
:103B4000B8F1000F07DA30F8258008EA030848EAE0
:103B5000070820F825800F7830F827506D0600E020
:103B60002CE006D530F827501D4045EA0C0520F81A
:103B70002750CB780D78012B30F8253003EA040369
:103B800001D083F02003134320F825300B7830F860
:103B9000231001EA0901114320F82310304602E006
:103BA00003E008E004E0BDE8F08743F4007380E739
:103BB00043F4C0637DE743F480637AE74D782DB327
:103BC000B0F850500F78054405EB0715CF8827F063
:103BD0000107A5F800740F7830F827506D0606D558
:103BE00030F827501D4045EA0C0520F82750CB78C7
:103BF000012B06D00B7830F82310214081F02001F2
:103C0000C9E70B7830F823102140C4E7B0F85040E2
:103C10000D78044404EB0514CD8825F00105A4F8C3
:103C20000854B0F850400D78044404EB05140D69B5
:103C300004F20C4475B13E2D14D800E030E04FEA98
:103C4000550CED0701D00CF1010C4FF6FF7505EA9C
:103C50008C2511E0258825F4F8452580258845F434
:103C6000004509E04FEA551CED0601D1ACF1010C0D
:103C70004FF4004545EA8C2525800D7830F8254025
:103C8000640405D530F825401C403C4320F825400D
:103C90000B7830F8231001EA090181F440517AE7EA
:103CA000B8F1000F07DA30F8258008EA030848EA7F
:103CB000070820F825800F7830F827506D0606D5C4
:103CC00030F827501D4045EA0C0520F827500D78A4
:103CD00030F8253003EA090383F44053134320F8F6
:103CE00025308EE7002070472DE9F04391F80C80D5
:103CF0004F780A7848F6BF7C4BF68F7948F28003FC
:103D000048F2C0054CF2800648F68F74B8F1000FF7
:103D100028D0002F30F822704FEA474748D0002FB4
:103D200005DA30F822702740374320F822700A78ED
:103D300030F822707F0605D530F8227027402F43D7
:103D400020F822700D7830F825202240324320F8E8
:103D500025200C7830F8242002EA0C021A4320F8BF
:103D600024201AE07FB130F82260760605D530F8BD
:103D7000226026402E4320F822600A7830F8221074
:103D800001EA0C010EE030F822506D0405D530F840
:103D900022502540354320F822500A7830F822106E
:103DA00001EA0901194320F822100020BDE8F08340
:103DB000002F05DA30F822702740374320F82270B0
:103DC0000A7830F82260760605D530F82260264061
:103DD0002E4320F822600E7830F8262022402A4315
:103DE00020F826200C7830F8242002EA09021A4331
:103DF00020F82420C1E700207047002070470121EF
:103E000020F8401F00210180818001820846704710
:103E100030F8401F21F43F4101800020704700200E
:103E2000704730B50A7BB2BB4A7848F68F7548F2C6
:103E30008004C2B10B7830F82320520607D530F841
:103E400023202A4048F2C0052A4320F82320CA78BC
:103E5000012A20D00A7830F8221048F6BF731940A2
:103E600081F0200114E00A7830F822305B0407D595
:103E700030F822302B404CF280052B4320F82230C2
:103E80000A7830F822104BF68F73194081F44051B4
:103E9000214320F82210002030BD10B54A7809785F
:103EA000002A48F2800330F8212005D048F6BF747C
:103EB000224082F0100204E04BF68F74224082F41C
:103EC00080521A4320F82120002010BD2DE9F04730
:103ED0000E464B78097B04464FF0000948F68F7276
:103EE00048F2800A4FF6FF774FF40048012B09D0C3
:103EF00000296ED0F07802286CD001286BD0012008
:103F0000BDE8F087B5693069854200D90546C9B179
:103F1000F17848F28013022923D0317834F8210057
:103F20001040184324F82100306A401B306230787A
:103F300034F82010490671787ED500297DD00129FA
:103F40007CD03FE1ABB2F2882046716900F0F6FA0E
:103F5000B4F850003178204400EB0110A0F804546C
:103F6000EAE0316A81426AD9317834F821001040A0
:103F7000184324F82100306A401B3062307834F84E
:103F80002010490671786CD511B1012924D02AE09E
:103F9000B4F85010214401EB001000F20C404DB178
:103FA0003E2D0FD86908EA0700D0491C07EA812195
:103FB000018018E0018821F4F8410180018841F472
:103FC0000041F5E76909EA0600D1491E48EA812166
:103FD000EEE79CE1BCE126E2B4F85020111901EBB8
:103FE0000010A0F80C547289ABB22046716900F041
:103FF000A5FA7069284470613169306A884202D933
:10400000401B306202E00546C6F820907078002818
:104010007CD1B4F850003178204400EB011000F25C
:1040200004406DB13E2D13D86908EA0700D0491C41
:1040300007EA8121018012E001E19BE0BBE084E01E
:10404000018821F4F8410180018841F40041F1E741
:104050006909EA0600D1491E48EA8121EAE7328966
:1040600065E011B1012921D027E0B4F850102144B6
:1040700001EB001000F204404DB13E2D0FD869084D
:10408000EA0700D0491C07EA8121018015E0018878
:1040900021F4F8410180018841F40041F5E7690904
:1040A000EA0600D1491E48EA8121EEE7B4F8501033
:1040B000214401EB0010A0F804543289ABB2204631
:1040C000716900F03BFA7069284470613169306AA7
:1040D000884202D9401B306202E00546C6F82090B3
:1040E000707800287ED1B4F850003178204400EB7D
:1040F000011000F20C4055B13E2D10D86908EA07B6
:1041000000D0491C07EA812101800FE072E001889C
:1041100021F4F8410180018841F40041F4E7690984
:10412000EA0600D1491E48EA8121EDE77289ABB267
:104130002046716900F002FA317834F8210048F61F
:10414000BF72104080F03000C0E1327834F82200B5
:1041500048F68F63184040EA0A0024F82200B4F8B9
:1041600050003278204400EB02108BB2A0F80434E7
:104170003289DDE7B4F85010214401EB001000F261
:104180000C404DB13E2D0FD86908EA0700D0491CFC
:1041900007EA8121018015E0018821F4F8410180BE
:1041A000018841F40041F5E76909EA0600D1491E9A
:1041B00048EA8121EEE7B4F85020111901EB001014
:1041C000A0F80C547289ABB22046716900F0B6F9C0
:1041D0007069284470613169306A884203D9401B94
:1041E000306203E06EE00546C6F82090002DA3D0B3
:1041F000707858B101287FF41EAFB4F850003178C0
:10420000204400EB0110A0F8045428E7B4F8500053
:104210003178204400EB011101F204413E2D06D813
:104220006808EA0700D0401C07EA802005E068091A
:10423000EA0600D1401E48EA802008800FE711B14D
:10424000012921D027E0B4F85010214401EB0010DF
:1042500000F204404DB13E2D0FD86908EA0700D0A6
:10426000491C07EA8121018015E0018821F4F84109
:104270000180018841F40041F5E76909EA0600D1AF
:10428000491E48EA8121EEE7B4F85010214401EBC1
:104290000010A0F804543289ABB22046716900F0D6
:1042A0004DF97069284470613169306A884202D9D9
:1042B000401B306202E00546C6F82090002D96D0E3
:1042C000707858B101287FF420AFB4F85010081965
:1042D000317800EB0110A0F80C5427E7B4F8500037
:1042E0003178204400EB011101F20C413E2D06D83B
:1042F0006808EA0700D0401C07EA802005E068094A
:10430000EA0600D1401E48EA802008800EE7B16925
:104310003069814202D9091AB161B5E00846C6F890
:104320001890B1E0088820F4F8400880088840F42C
:1043300000400BE03E2875D84208C00700D0521C50
:1043400007EA822002E000BF48EA82200880B5E048
:1043500093B9B4F850003178204400EB0110316972
:1043600000F2044069B13E2913D84B08C90700D0B8
:104370005B1C07EA83210180707888B1012832D064
:104380003AE0018821F4F8410180018841F40041BC
:10439000F1E74B09C90600D15B1E48EA8321EAE731
:1043A000B4F850003178204400EB0110316900F27C
:1043B0000C4049B13E290FD84B08C90700D05B1CFF
:1043C00007EA8321018017E0018821F4F841018088
:1043D000018841F40041F5E74B09C90600D15B1E95
:1043E00048EA8321EEE7B4F850100819317800EB61
:1043F0000110318AA0F80C14F069A8B3317834F8B0
:104400002100430401D5430603D444F2400318427B
:1044100054D134F82100104048F2C002104324F86F
:1044200021004BE03CE0B1693069814202D9091AB0
:10443000B16102E00846C6F818908BB9B4F8501084
:104440003278214401EB021101F2044168B13E28A7
:1044500013D84208C30700D0521C07EA82220A8000
:10446000717889B1012921D028E00A8822F4F84224
:104470000A800A8842F40042F1E74209C30600D1EB
:10448000521E48EA8222EAE7B4F8501032782144FA
:1044900001EB021101F20C4100287FF44BAF41E720
:1044A0004209C0067FF450AF521E4DE7B4F85020C9
:1044B0001119327801EB0211A1F80C04317834F8AB
:1044C00021004BF68F72104080F4405040EA0A0001
:1044D00024F82100002013E50021A0F844104FF437
:1044E0003F41A0F840100020704700000148FCF751
:1044F000DCBF000050080020B0F844007047000006
:1045000010B500EB42005C0800F5806009D000BFE8
:1045100030F8042B01F8012B120A01F8012B641E5C
:10452000F6D1DA0701D00088087010BD002070476E
:1045300011B98021A0F84C100020704710B55B1C09
:1045400000EB42005B0800F5806009D011F8012BF8
:1045500011F8014B42EA042220F8042B5B1EF5D12E
:1045600010BDFEE70FB4054B10B503A9044A02982D
:1045700000F0FCF810BC5DF814FB00006D59000859
:104580004002002037B514460846064B6A462146CD
:1045900000F0ECF804466946002000F07EFC20465E
:1045A0003EBD00009B4E00080907090E002804DBF1
:1045B00000F1E02080F80014704700F00F0000F1D7
:1045C000E02080F8141D704702E008C8121F08C1DF
:1045D000002AFAD170477047002001E001C1121F84
:1045E000002AFBD1704700002DE9FF5F82B0002157
:1045F000DDE90430020DDDF840B0034318D044F685
:104600001050A2F2FF3242431514119801281FD016
:10461000A5EB0B00401C5FEA000A4FF000064E4F6E
:10462000DFF83891B046504615D5CAF1000413E0C2
:10463000119801244AA3012801D16FEA0B010298C5
:10464000119AC0E90031C0E9024206B0BDE8F09F0E
:10465000CBF10000DFE704460021404A491842EB55
:104660000450CDE9001012E0E00707D032463B4687
:1046700040464946FBF798FE8046894632463B460F
:1046800010461946FBF790FE06460F466410002CB4
:10469000EAD1DDE90401DDE90023BAF1000F06DA11
:1046A000FBF782FE42464B46FBF77EFE05E0FBF73A
:1046B000EDFE42464B46FBF7E9FE04460E4600225D
:1046C000284BFBF76BFF03D84FF0FF30014607E0A4
:1046D0000022254B20463146FBF7BFFDFBF745FF87
:1046E000102409E0002C0ADB0A220023FBF784FDDA
:1046F000039B30321A55641E50EA0102F2D1641C49
:10470000039AC4F111031444119A012A03D001221F
:1047100008430DD10AE0084304D000204FF0110BEC
:10472000119072E7A3EB0B056D1E0DE05B4504DDF8
:104730004FF0000205F1010504E003DA4FF000023A
:10474000A5F10105002AECD002981199C0E90231C7
:10475000C0E9004579E70000000014400000F03F88
:10476000300000000000F0430000E03F2DE9FF4F63
:1047700095B09B468946064600250FE2252877D14D
:1047800000242746F84A0121059400E0044316F866
:10479000013F203B01FA03F01042F7D130782A287C
:1047A00011D06FF02F033078A0F13002092A16D80B
:1047B000059A44F0020402EB820203EB4202104429
:1047C000761C0590EFE759F8042B0592002A03DACE
:1047D000504244F40054059044F00204761C3078B2
:1047E0002E2816D116F8010F44F004042A280DD003
:1047F0006FF02F023078A0F13003092B09D807EBB6
:10480000870302EB4303C718761CF3E759F8047BD0
:10481000761C30786C280FD006DC4C2817D068281E
:104820000DD06A2814D104E0742810D07A280FD152
:104830000DE044F400140AE044F4801401E044F470
:1048400040147278824202D104F58014761C761CE2
:10485000307866280BD013DC582877D009DC002884
:1048600075D04528F6D04628F4D047281AD19DE1C6
:1048700018E0632835D0642879D0652812D195E1F5
:10488000702873D008DC6728F1D069286FD06E28B3
:104890000DD06F2806D1B5E073282CD0752875D0BF
:1048A000782874D05A46179990476D1C75E1C4F367
:1048B0000250022809D003280DD0D9F8001004288E
:1048C0000DD00D6009F1040967E1D9F80010EA176D
:1048D000C1E90052F6E7D9F800100D80F2E70D703B
:1048E000F0E719F8041B8DF8001000208DF8010086
:1048F000EA46012003E059F804AB4FF0FF306107AE
:104900004FF0000102D40DE008F101018846B942E0
:104910000FDA8045F8DB1AF808100029F4D108E016
:1049200008F1010188468142FADB1AF808100029D3
:10493000F6D105985B46A0EB080721463846179A42
:1049400000F094FA284400EB080507E04DE029E167
:104950000DE01AF8010B5A4617999047B8F1010873
:10496000F7D25B4621463846179A13E142E00A2205
:104970000092C4F302524FF0000A022A08D059F8FC
:1049800004CB032A4FEAEC710AD00DE029E02AE0BB
:1049900009F1070121F00702F2E802C1914609E09E
:1049A0000FFA8CFC4FEAEC71042A03D14FFA8CFC0D
:1049B0004FEAEC71002907DA0A460021DCF1000C0D
:1049C00061EB02012D2202E0220504D52B228DF895
:1049D0000420012203E0E20701D02022F7E79046FD
:1049E00059E00A2102E010220DE010214FF0000AE8
:1049F00000910BE010224FF0000A44F00404082755
:104A0000009203E008224FF0000A0092C4F3025221
:104A1000022A05D059F804CB0021032A08D009E066
:104A200009F1070121F00702F2E802C1914605E011
:104A30001FFA8CFC042A01D10CF0FF0C4FF0000887
:104A4000220728D5702806D0009B83F0100353EA74
:104A50000A0305D00EE040228DF80420012208E070
:104A60005CEA010206D030228DF804208DF80500A2
:104A700002229046009B83F0080353EA0A030AD1FE
:104A80005CEA010201D1620705D530228DF80420CD
:104A90004FF001087F1E582804D034A003900EA8C0
:104AA00002900DE036A0F9E753466046009AFBF706
:104AB000A3FB84460398825C0298401E0290027019
:104AC0005CEA0100F0D1029806A9081A00F1200A58
:104AD000600702D524F4803400E00127574502DD49
:104AE000A7EB0A0000E0002000EB0A010090059807
:104AF0004144401A0590E00306D45B462146179ACC
:104B0000059800F0B3F90544002706E001A85A46CD
:104B1000C05D179990476D1C7F1C4745F6DBE0038D
:104B20000CD55B462146179A059800F09FF905447D
:104B300004E030205A46179990476D1C0099481E92
:104B400000900029F5DC08E0029802995A460078A6
:104B5000491C0291179990476D1CBAF10001AAF106
:104B6000010AF1DC65E1000009280100303132332F
:104B70003435363738396162636465660000000099
:104B80003031323334353637383941424344454683
:104B90000000000000F058F90544761C3078002829
:104BA0007FF4ECAD19B02846BDE8F08F620700D461
:104BB000062709F1070222F0070CFCE80223E14670
:104BC00003F000485FEA080C02D00FF2702C0DE0F1
:104BD0005FEA045C02D50FF2682C07E05FEAC47C50
:104BE00002D00FF2602C01E0AFF2700C4FF0FF38F2
:104BF00023F00043CDF850C065280CD006DC4528D2
:104C000009D046281DD047283DD13DE0662818D060
:104C100067287ED138E00021112F01DB112000E050
:104C2000781CCDE9000106A90EA8FFF7DDFCDDE93F
:104C30000F010E9A03910021009207F1010A0491DD
:104C40004DE04FF000400097CDE9011006A90EA8F5
:104C5000FFF7CAFCDDE90F0203920E9B11990022B7
:104C6000DDF80CA00093049211B9791C00EB010A45
:104C7000B7EB0A0004D4C0F1FF3007F1010A049039
:104C8000AAEB0700019044E0012F00DA0127002180
:104C9000112F01DD112000E03846CDE9000106A901
:104CA0000EA8FFF7A1FCDDE90F010E9A0391002188
:104CB00004910092BA4621070CD40399514500DAB9
:104CC0008A46BAF1010F05DD009AAAF10101515C93
:104CD000302908D0B84202DA10F1040F06DA0121B7
:104CE000CDE9011015E0AAF10101E9E7002805DC92
:104CF000049901440491AAEB000102E0411C5145D2
:104D000000DD8A460499401A401C01904FF0004093
:104D10000290200704D40198504501DBCDF80480AF
:104D200000208DF84F0002980DF14F07B0F1004FB1
:104D300025D02B200E9002984FF0020800280CDAA4
:104D4000404202902D200E9007E00A210298FBF7C6
:104D50003DFA3031029007F8011DB8F10001A8F1C9
:104D60000108F2DC02980028EFD1791E0E98087035
:104D7000307800F0200040F0450007F8020D12A83E
:104D8000C01B00F107081498007800B1012000EB67
:104D90000A01019801EBE07105984144401A401E58
:104DA0000590E00306D45B462146179A059800F06B
:104DB0005DF805441498007818B15A461799904741
:104DC0006D1CE00324D55B462146179A059800F038
:104DD0004DF805441CE00498002807DBDDE90301D9
:104DE000884203DD0098405C179901E01799302054
:104DF0005A469047049805F10105401C049001981B
:104E0000401E019004D12E205A46179990476D1CE0
:104E1000BAF10001AAF1010ADDDC05E017F8010B87
:104E20005A46179990476D1CB8F10001A8F1010886
:104E3000F4DC5B462146179A0598ABE62D0000008E
:104E40002B000000200000002DE9F0410446002561
:104E50001E461746880404D405E039462020B04792
:104E60006D1C641EF9D52846BDE8F0812DE9F0419E
:104E7000044600251E469046C80301D5302700E0B1
:104E80002027880404D505E041463846B0476D1C0C
:104E9000641EF9D52846BDE8F0810A68531C0B60F2
:104EA000107070472DE9FC5FF749086900287DD133
:104EB0008B4691F8018091F8049091F805A08A78CA
:104EC000CB784E690327F149012500BF01EB000CA7
:104ED0009CF85A40D4B1641E14F0FF048CF85A4078
:104EE00014D1202807D0212808D0C4060AD405FAF6
:104EF00000F4A64308E08022134605E04FF0800945
:104F0000CA4601E04FF0080881F87F71401CC0B22A
:104F10002128DBD9CBF814605C468BF8018084F83B
:104F2000049084F805A0A270C346E370B646B4F8B6
:104F300006800026CC465046B8F1000F07D0C4F8D2
:104F40001080E680CDE900C059467046ADE3A26905
:104F5000884690B2A1F87A01521CA26100F034FC9C
:104F600088F87501A16988B2491CA16100F02CFC88
:104F7000C3B288F8743198F87521FF2A01D1FF2B4C
:104F80001FD0C3A0A16800F027FE98F8751108068D
:104F900074D5BE4A40464B0602F15A0240D4C1F3D2
:104FA000440380F877315FEAC36C00E07FE30BD401
:104FB000D4F8148005FA03FC4CEA080CC4F814C0B9
:104FC00006E000F0F7FB72E303F00F0C84F801C079
:104FD00080F87F7190F8807180F8817180F880612D
:104FE00027B1B0F8821100EB410042E090F8740163
:104FF000C9070ED0010610D400F07F0000EBC001FD
:1050000001EB00104FF6FF7101EA4000E080322012
:1050100031E000EB800040002DE000F07F0037E041
:10502000C1F3401C80F878C14CF0200380F8773140
:1050300001F01F0180F8791100EB4101BCF1000F74
:1050400091F814C004D084F804C0497D617103E074
:1050500084F802C0497DE17080F87F7190F880117A
:1050600080F8811180F8806149B1B0F8821108EBB5
:105070004100B0F9820020619D540EE30AE098F8E7
:1050800074010106C9D400F07F0032214843206139
:10509000985402E3C1F3C30047460728EDD2DFE886
:1050A00000F0041B50CDF1F0EF004807E5D5B7F84C
:1050B0007401C0F30805880705D40121284600F0D3
:1050C00025FF281204E0785D012100F01FFF785DC4
:1050D000012100F01BFFE0E297F8800187F88101D1
:1050E00087F8806130B1B7F8820108EB4000B0F971
:1050F000820024E0480704D4B8F87401C0F3090022
:1051000015E0880717D4A16988B2491CA16100F095
:105110005BFB87F87301A16907F5B97788B2491C71
:10512000A16100F051FB3870386820F07E4000EB40
:105130008000400003E0B8F87401C0F3080020616B
:10514000ABE297F87E0148B100EB400107EB81012B
:10515000B7F87A21B1F8F61091428ED0401CC0B257
:1051600087F87E0100EB400007EB8000C0F8EE609E
:1051700097F87E11B7F87A0101EB410107EB810145
:10518000A1F8F60097F87E11B7F8740101EB410120
:1051900007EB8101C0F30A00A1F8F80097F880013D
:1051A00087F8810187F88061E0B3B7F8820107EBE7
:1051B000400090F8820010F00F0087F8850109D0B8
:1051C00097F87E1140F0004001EB410107EB8101AF
:1051D000C1F8EE00B8F88211404608EB410191F8A1
:1051E0008210C1F3031188F88611D9B190F87E219D
:1051F00000EB410102EB420200EB8202B1F98210A6
:10520000C2F8F21080F880510221A0F8821190F8C3
:105210007E1101EB410108EB810000BFB0F8F800FE
:10522000A0613AE2FFE787F88051A7F8826197F81A
:105230007E0100EB400007EB8000EFE748070FD549
:10524000A16988B2491CA16100F0BEFA87F8730118
:10525000A16988B2491CA16100F0B6FA87F8720111
:1052600097F8800187F8810187F880614FF000424C
:10527000F0B3B7F8821101291AD03846F1B15BE0DA
:10528000F6E125E175E000001C020020740B00200F
:105290002573205F696E7330203D20253032782CD5
:1052A000205F696E7331203D202530327800000088
:1052B00097F87E01401E87F87E01EEE190F87511A7
:1052C000490716D490F87E31B0F8741103EB43030C
:1052D000890500EB8303890DC3F8F21090F87E3145
:1052E00003EB430307EB830026D1C0F8F22023E051
:1052F0000CE090F87E31D0F8721103EB430307EB1A
:10530000830021F07C41C0F8F21015E097F87E018F
:1053100000EB400007EB8001D1F8EE00002808DA2E
:1053200000F00F0007EB400030F8821F491C01809D
:1053300002E0401CC1F8EE0097F87E1101EB41003D
:1053400007EB8003D3F8EE00002805DA00F00F0029
:1053500007EB4000B0F98200D3F8F250954205D037
:10536000854203DC491E87F87E1196E1B3F8F6000A
:1053700056E7480766D597F8742111F00301C2F388
:10538000C20387F8853102F0070087F8860106D04E
:10539000012916D002291FD003290DD127E007EBE0
:1053A000430107EB4000B1F98210B0F9820081425D
:1053B00027D028E087F8871197F8870128B30121C3
:1053C00024E007EB430107EB4000B1F98210B0F98C
:1053D0008200814215D116E007EB430107EB400044
:1053E000B1F98210B0F9820081420ADB0BE007EBD1
:1053F000430107EB4000B1F98210B0F9820081420D
:1054000001DC0121D6E70021D4E7002187F88711CC
:1054100097F8880100B1012087F88801920906D029
:10542000012A07D0022A07D0032A02D106E087F812
:10543000881132E1084002E0084300E0484087F864
:1054400088012AE197F87401410904D0012917D095
:1054500007293CD128E0C10603D597F88811002917
:1054600035D000F00F0087F8870197F87E11081AF1
:10547000C0B287F87E0187F88051A7F882510EE00C
:10548000C10602D597F8881109B300F00F0087F81C
:10549000870197F87E11081AC0B287F87E0100EBE9
:1054A000400008EB8000B9E6C00602D597F88801F5
:1054B00068B197F87D0140B107EB4001401EB1F89B
:1054C000BC10A16188F87D01E7E000F073F9E4E029
:1054D00048072DD4B7F87401C0F3C21087F88501CE
:1054E00038B197F8741108EB4000490209B249122B
:1054F0009EE097F87401400647D4A16988B2491C20
:10550000A16100F061F987F87301A16907F5B97726
:1055100088B2491CA16100F057F93870B978C1F31D
:10552000C200787501F00701F9743A8812B22AE0D6
:10553000C1F34100022814D001F00700062825D04D
:1055400097F8741101F00700C1F3C301891E87F8B1
:105550008501082919D2DFE801F031383F4EA05FFC
:10556000646EB7F87421C2F38210C2F3C20187F8E7
:10557000870187F8851102F0070287F8862108EB7A
:105580004202B2F98220FBF7DDF886E097F8740159
:10559000C0F3021187F8851100F00F0287F8872108
:1055A00041B3000608EB410003D430F8821F91405C
:1055B00002E030F9821F114101806EE0D0B108EBAA
:1055C000400030F8821F4942F6E798B108EB4000EE
:1055D00030F8821FC943EFE797F87C1107EB4000D2
:1055E000491CC9B287F87C1108EB4101B0F8820070
:1055F000A1F8940051E0D0B397F87C1107EB40007C
:1056000007EB4101B1F89410A0F8821097F87C01E3
:10561000401E88F87C0140E087F88051A8F882019C
:105620003BE020B308EB4000B0F8821001B101214B
:10563000A0F8821031E0D0B1B7F8890150B9E06824
:105640002449A7F88901088000F054F9B7F88901C6
:10565000FAF782FDFAF776FD97F8851107EB41011D
:1056600031F9822F90FBF2F302FB1300088014E063
:10567000B7F87401C1F34101C005800DD1B1012912
:1056800004D0022906D0032907D115E098F8881123
:1056900081B902E098F8881161B161792079CDE98A
:1056A0000001E378A2786178606900F03BFD012099
:1056B000BDE8FC9F218B0AE097F87D11491CCAB216
:1056C00087F87D2108EB4202218BA2F8941089B261
:1056D0000844A5E5F201002070B5264C2088FAF7B1
:1056E0003BFD254D0121284600F02AF922880023A0
:1056F000284600F021F90020204901E0082801DABD
:10570000024600E008225301082801DD024600E0BD
:1057100008225201A2F58072FF2B00DBFF23FF2A33
:1057200000DBFF2201EB4004401C2375627510284A
:10573000E4DB102001E0182801DA024600E018221C
:10574000C2F118025201182801DD034600E01823B7
:10575000C3F120035B01FF2A00DBFF22FF2B00DBEC
:10576000FF2301EB4004401C227563752028E2DB17
:1057700070BD0000F201002000000108740B002041
:1057800010B5094C00202061E06040F22A31074842
:10579000FAF703FD01202070054804495A390088B2
:1057A000A1F8890110BD00001C020020CE0B0020D2
:1057B000F2010020034800210170C168C16100F0BE
:1057C0005BBC00001C0200200249084490F8000461
:1057D00070470000000001080448034981604168E7
:1057E00003A000F0F9B9000000040108F001002056
:1057F00025732057524144445220726573657420CA
:105800006F6B00002DE9F041264C0D46804626497D
:10581000A06886B00844824203D0022006B0BDE8EA
:10582000F081C5F3470614216846FAF7B6FC00205C
:1058300069460FE000EBD07222F001035A1818F805
:105840000070C31ADB00B2F800C09F400CEB0703E6
:105850001380401CA842EDDB002788460FE000BF04
:1058600038F817200023A06800F062F810F0FF0F4E
:1058700001D00120D2E7A068801C7F1CA060B74245
:10588000EEDB00270AE0A068401B00EB4702B2F9FC
:10589000003006A0616800F09FF97F1CB742F2DB80
:1058A0000020BBE7F001002000FCFEF72573205725
:1058B00052414444525B253038785D203D202530EC
:1058C0003878000004480068401C82B203484280D7
:1058D000416803A000F080B900000108F001002039
:1058E00025732065635F73656564203D202530382E
:1058F0007800000070B5084D0121284600F020F81E
:10590000064C00232846628800F016F86168BDE85E
:10591000704003A000F060B900000108F001002011
:1059200025732056616C207772697465206F6B0057
:1059300001460120FBF7A4B801460220FBF7A0B8FE
:1059400000B585B0002202AB009283E8070004A9ED
:105950006846FBF741F8049805B000BD02490120F4
:105960000870FBF7CDB80000F001002038B5044600
:105970008DF800000223012269460248FCF7FAFD77
:10598000204638BD9402002010B5002821D0114BCC
:105990000022001F196803E0814203D80A464968C3
:1059A0000029F9D152B11368841A9C4204D10068CD
:1059B00018441060104602E0506000E0186039B1F1
:1059C00002680B1A934203D10B681A4402604968BB
:1059D000416010BD44020020012211030148FBF781
:1059E00093B90000000C014000224FF4805101489F
:1059F000FBF78AB9000C014010B50024FFF7F4FF53
:105A00006420FAF7D7FFFFF7E7FF6420FAF7D2FF29
:105A1000641C032CF2DB10BDFBF78AF9FDF750F88C
:105A2000FCF720FEFCF792FE30482F49002401606D
:105A30004FF4E131C0E901140C25C460C0E904450C
:105A40008461C461FCF7CCFC08B172B6FEE727485C
:105A50002749443001604FF41651C0E90114C46075
:105A6000C0E904458461C461FCF7BAFC08B172B6B0
:105A7000FEE7FCF737FE1FA120A000F0ADF800F014
:105A8000FBFAFFF7B9FFFFF769FF234C002319A2C8
:105A900022A0216800F0A0F84FF4807000F092FB83
:105AA000FFF710FF00F0B2F800F09AF91F4B204A00
:105AB00020A0216800F090F824A0216800F08CF864
:105AC000264C022500F01AF9217831B1012902D1C2
:105AD000FFF702FE2570FFF7E5F90128F2D020A0BC
:105AE00000F07AF872B6FEE7003801409402002018
:105AF000004400404E414E636F6E00000D0A0D0AD7
:105B00000D0A3D3D3D3D3D3E53544152542F2573BA
:105B10002F3D3D3D3D3D0000000000202573202528
:105B200073206D6F64652D2564000000FFFF010880
:105B300000000108257320666C41646472205B25B7
:105B40003038782C20253038785D000025732069A6
:105B50006E697420646F6E652E0000001C020020C8
:105B60005B4E4E4B5D20726574300000F0B50B301B
:105B7000154D20F007010024144A0FE003688B4202
:105B80000BD38B4205D95E1A43184768C3E90067F7
:105B900000E04368136002C004E0021D10680028A2
:105BA000ECD12046002802D1286808B10020F0BDC1
:105BB000064A07481060074A121A22F00702C0E995
:105BC000002401202860D7E748020020440200207A
:105BD000FC0E0020F81000200FB410B50121202089
:105BE000FAF7E6FA044603AA0299FEF7CBFC204630
:105BF000FEF7B8FC2046FFF7C7FE03A0FEF7B2FC95
:105C000010BC5DF814FB00000D0A000010B5012265
:105C100000211D20FBF7EAF81D20FBF7D9F8054805
:105C2000FCF764F904480168BDE8104003A0FFF7E1
:105C3000D3BF00004C020020140200202573206E08
:105C400076696320696E6974206F6B0038B505460C
:105C50001F4C00951FA0D4E90413A269FFF7BCFFF5
:105C60002048007818B1842D2AD0FE25F0E7A5F150
:105C7000800006281AD2DFE800F02A03051419175D
:105C8000802020E018484178827801EBC2116181C0
:105C9000C178007901EBC010A0810120E070812063
:105CA00011E0FFF76DFD0DE045200CE00020FFF74F
:105CB000CDFF2A462169BDE838400CA0FFF78CBF14
:105CC000FFF778FD8320BDE8384000F04FB938BDBC
:105CD000CC01002025732025732025733A20253020
:105CE000327800001C020020600B00202573206326
:105CF0006865636B20636D642025640038B52F48A8
:105D000000F048FA01284ED12C4C2D4D641EA1788C
:105D100063786B54E07800902A782AA0FFF75CFF44
:105D2000A17800222D4B012906D0022915D0052982
:105D30001DD0072929D02CE02878A52829D1E07882
:105D400038BB687880281CD081281AD0832818D0C6
:105D5000842816D0852814D01BE02878A52818D1CF
:105D60006878A52815D1A87881280AD011E028786C
:105D7000A5280ED1E07860B96879822809D11D780C
:105D80003DB9A270FFF762FF0DE0E07808B918781E
:105D900058B1A089401E814203D1E07808B118783B
:105DA00038B1491CA170012038BDA27000F000F983
:105DB000F9E7A27000F036F8F5E70000CD01002009
:105DC000600B00205B4E4E4B5D20494E2025642029
:105DD0002532782025327820256400001C0200201E
:105DE00010B5022200212620FBF700F82620FAF742
:105DF000EFFF012205490648FCF78AFB03480169C9
:105E0000BDE8104003A0FFF7E7BE0000CC01002072
:105E1000D80200202573206E76696320696E69744C
:105E2000206F6B00F8B5244C6389E089834206D16A
:105E30002BB122A0A2692169FFF7CEFE34E0A08930
:105E4000234D022805D12878FF2802D16878FF2841
:105E500001D063B10DE0FFF7BFFC02211D48FFF741
:105E60006FFD1DA0A2692169FFF7B6FE1CE0FFF7D8
:105E7000B3FC6389E381A08900901CA0A269216919
:105E8000FEF770FB002604E0A95D1DA0FEF76AFB8B
:105E9000761CA0898642F7DB1BA0FEF763FB6289B4
:105EA000A1890B48FFF7AEFC0020E070BDE8F84088
:105EB000822000F05BB80000CC0100202573202573
:105EC000732073616D652041646472202564000055
:105ED000600B002000040108257320257320666CE8
:105EE000617368207472696D6D6564002573202587
:105EF00073205B25645D53435B25645D3A000000BD
:105F000020253032780000000D0A00002DE9F04114
:105F100005460F480F460026C26901690DA0FEF72D
:105F200021FB00240BE0295D0CA0FEF71BFB2919C7
:105F3000022301220B48FCF71DFB0646641CBC42F1
:105F4000F1DB09A0FFF748FE3046BDE8F081000014
:105F5000CC0100202573202573200000202530323D
:105F600078000000D8020020000000001CB50223C9
:105F70008DF80400012201A90748FCF7FBFA04464A
:105F80009DF804000549009005A04B69CA6909699C
:105F9000FFF722FE20461CBDD8020020CC010020C5
:105FA00025732025732025733A2025303278000090
:105FB000F0B5234C89B004AD6079237AE279A179F8
:105FC00085E80F0060782379E278A1788DE80F00EA
:105FD0001C4D23781CA0AA692969FFF7FDFD2078D4
:105FE0006178400240EA8100A17840EA51102862BD
:105FF000E278C90041EA1211C9B22971237912016C
:1060000042EAD302D2B26A7166795B0143EA96032F
:10601000DBB2AB71B701A67947EA5607FFB2EF7161
:10602000E47966F3DF14E4B22C72CDE9007400F079
:1060300079F809B0FF20BDE8F040FFF797BF0000F6
:10604000600B0020CC01002025732025733A202509
:1060500030327820253032782025303278202530B3
:1060600032782025303278202530327820253032A1
:106070007820253032780000074810B5D0E90612A4
:10608000C0E90412C168183000F008F808B1002017
:1060900010BD012010BD0000AC01002030B585B05E
:1060A0000D460446FFF7A0FC10482A46016810A0E0
:1060B000FEF758FA20790DF1040CE379A2796179A1
:1060C0008CE80F00E0780090A378627821780AA02D
:1060D000FFF782FD082221461148FCF759FF0128ED
:1060E00002D0FFF779FC002005B030BDAC010020E4
:1060F00025732025733A0000253032782025303270
:1061000078202530327820253032782025303278BA
:106110002025303278202530327820253032780022
:106120001C03002070B50B4CDDE904562070000AFA
:106130006070A170E27023716571A4F11000A67106
:1061400041681030FFF7AAFF08B1002070BD0120A0
:1061500070BD0000BC01002070B50D49CA688C6894
:106160001346521C92FBF4F504FB15250E69B5424B
:1061700001D1002070BD4D68E85492FBF4F004FB9F
:106180001020C8604869401C4861012070BD0000B3
:10619000FC0100200A49D1E903329A4201D10020D2
:1061A00070474B689B5C03708868521C92FBF0F34D
:1061B00000FB132008614869401E486101207047B8
:1061C000FC01002070B5094D0446A860FFF7CEFC25
:1061D00068602968224620B105A0FFF7FDFC012078
:1061E00070BD08A0FFF7F8FC002070BDFC01002086
:1061F0002573207262282564622920696E697420E3
:106200006F6B000025732072622825646229206963
:106210006E6974206661696C000000000000000077
:106220000000000001020304060708090000000046
:10623000010203045B494E49545D00005B5349422F
:106240005D0000005B53425D000000005B5357425D
:106250005D0000005B555342445D00005B434D44CC
:106260005D0000005B554D41494E5D003C2D2073A3
:10627000656E64002D3E2072656376005B464C417E
:1062800053485D005B52494E474255464645525D74
:10629000000000005B54494D335D00005B534352E6
:1062A0004950545D00000000C86200080000002052
:1062B0004C020000EC060008086400084C020020B4
:1062C000AC120000D845000813346214086D311B6D
:1062D00008A5041AB1041AD1041AF5041A45041ABF
:1062E000790417040309041201320225400D0F92AC
:1062F000140101022201031A1A03100805010905FD
:10630000A1011514250135102145017501951005D0
:106310000919012910810205012507463B01750471
:10632000950165140939814265179501810126FFA0
:106330001346FF10100930093109320935750895E7
:10634000048102061CFF09201D200A020A2126954D
:10635000089102C022541420B3071B08AF041AB7D7
:106360000419871182105324F4132D2F1408A32E1F
:106370001B08BD08411ADB0C1A71041A7F04C11AEC
:1063800015201A09041A21041AFD1C1C090229DB14
:106390001125A0FA09042A02DD15092111011401B1
:1063A00022561607050203402D0107058107291A09
:1063B000091A2C39255933092E2C691A3113120167
:1063C000320225400D0F922C010102211354621B51
:1063D0000844041A4C041A3C04211B08800131694A
:1063E00008C11CFFFF64241A5C041A74043A6C3060
:1063F000612A7C0C9D0401088414C16A94185957C1
:086400000A159C2801100000A0
:04000005080000ED02
:00000001FF
